:100000000C94CB010C94E8010C94E8010C941702B9
:100010000C94E8010C94E8010C94E8010C94E801BC
:100020000C94E8010C94E8010C94E8010C94E801AC
:100030000C94E8010C94E8010C94E8010C94E8019C
:100040000C94E8010C94E8010C94E8010C94E8018C
:100050000C94E8010C94E8010C94E8010C94E8017C
:100060000C94E8010C94E8010C94E8010C94E8016C
:10007000084AD73B3BCE016E84BCBFFDC12F3D6C0F
:1000800074319ABD56833DDA3D00C77F11BED9E475
:10009000BB4C3E916BAAAABE000000803F0000004E
:1000A00000000000000000065F5F0600000000077F
:1000B000070007070000147F7F147F7F1400242EA1
:1000C0006B6B3A120000466630180C666200307A9C
:1000D0004F5D377A48000407030000000000001C51
:1000E0003E63410000000041633E1C000000082AFE
:1000F0003E1C1C3E2A0808083E3E0808000000A0DE
:10010000E06000000000080808080808000000007F
:100110006060000000006030180C060301003E7FA4
:10012000594D7F3E000042427F7F40400000627395
:1001300059496F660000226349497F360000181C48
:1001400016137F7F1000276745457D3900003C7EF0
:100150004B4979300000036371190F070000367FA7
:1001600049497F360000064F49693F1E00000000E4
:100170006C6C0000000000A0EC6C00000000081C8B
:1001800036634100000014141414141400000041DC
:1001900063361C080000020351590F0600003E7F21
:1001A000415D5D1F1E007C7E13137E7C0000417F3D
:1001B0007F49497F36001C3E634141632200417FF5
:1001C0007F41637F1C00417F7F495D416300417F28
:1001D0007F491D0103001C3E6341517372007F7F04
:1001E00008087F7F000000417F7F410000003070E1
:1001F00040417F3F0100417F7F081C776300417FC2
:100200007F41406070007F7F060C067F7F007F7F0C
:10021000060C187F7F001C3E6341633E1C00417F3B
:100220007F49090F06001E3F21717F5E0000417F5C
:100230007F19396F460026674D597B320000034114
:100240007F7F410300007F7F40407F7F00001F3F92
:1002500060603F1F00007F7F3018307F7F00637732
:100260001C081C776300074F78784F0700006773FE
:10027000594D47637100007F7F4141000000010339
:10028000060C183060000041417F7F000000080C20
:100290000603060C0800808080808080808000003B
:1002A000030704000000207454543C784000413F90
:1002B0007F44447C3800387C44446C28000030780B
:1002C00048493F7F4000387C54545C180000487E09
:1002D0007F490302000098BCA4A4F87C0400417F7D
:1002E0007F08047C780000447D7D4000000040C40D
:1002F00084FD7D000000417F7F10386C4400004188
:100300007F7F400000007C7C0C180C7C78007C7C9B
:1003100004047C780000387C44447C38000084FC71
:10032000F8A4243C1800183C24A4F8FC8400447C65
:1003300078441C180000485C5454742400000004E5
:100340003E7F442400003C7C40403C7C40001C3C00
:1003500060603C1C00003C7C6030607C3C00446C75
:100360003810386C44009CBCA0A0FC7C00004C649D
:10037000745C4C64000008083E77414100000000B6
:100380000077770000004141773E08080000020333
:1003900001030203010011241FBECFEFD4E0DEBF32
:1003A000CDBF12E0A0E0B1E0ECE3FEE102C00590B9
:1003B0000D92A635B107D9F722E0A6E5B2E001C05B
:1003C0001D92AB3EB207E1F70E945D070C941C0F33
:1003D0000C9400008068E1E0F4E1808386EF8A9568
:1003E000F1F780810895E1E0F4E120E8208326EF31
:1003F0002A95F1F7208130E0DC012D933C9321E830
:100400002083B6EFBA95F1F7208130E0FC01338309
:1004100022830895B89A83B7886083BF83B78061C9
:1004200083BF83B7816083BF81E081BF08951F923E
:100430000F920FB60F9211248F9381E08093560292
:100440008F910F900FBE0F901F9018958093DB0235
:1004500087708055E0910801F0910901808308952B
:100460008093DC02982F9F70E0910801F0910901C0
:10047000908382958F70805FE0910801F09109016F
:10048000808308958055E0910801F09109018083EF
:100490000895CF93C62F0E9426028C2F0E9430020F
:1004A000CF91089560E080E00E94490208951F9373
:1004B000CF93DF9310E0C6EAD0E0812F0E94420282
:1004C00090E00DC08491A0910601B09107018C933A
:1004D0003196EC17FD07B1F79F5F903819F0EEE900
:1004E000F0E0F0CF1F5F183041F70E945202DF9119
:1004F000CF911F910895E0910801F09109018EEAD2
:100500008083E0910801F091090181EA8083E09104
:100510000801F09109018AED8083E0910801F091D2
:10052000090182E18083E0910801F091090188ECE2
:100530008083E0910801F091090188EA8083E091CD
:100540000801F09109018FE38083E0910801F091A7
:10055000090185ED8083E0910801F091090180E8AF
:100560008083E0910801F091090181E88083E091A6
:100570000801F091090180E58083E0910801F09184
:10058000090189ED8083E0910801F091090181E280
:100590008083E0910801F091090180E28083E0917D
:1005A0000801F091090182E08083E0910801F09157
:1005B00009018BED8083E0910801F091090180E34E
:1005C0008083E0910801F09109018DEA8083E09138
:1005D0000801F09109011082E0910801F0910901F0
:1005E00084EA8083E0910801F091090186EA808322
:1005F000E0910801F09109018FEA80830E9457027F
:100600000E9452020895282F30E0F901EE0FFF1FDB
:10061000EE0FFF1FEE0FFF1FE256F040220F331FB9
:10062000220F331F220F331F2A5530409491A0917F
:100630000601B09107019C933196E217F307B1F7D9
:1006400008950F931F93CF93DF93FC010190002037
:10065000E9F73197E81BF90B1E161F0654F4EC015D
:100660008C010E0F1F1F89910E940303C017D10731
:10067000D1F7DF91CF911F910F9108950E94490208
:10068000E0910601F091070188E18083E091060185
:10069000F09107018083E0910601F09107019EE748
:1006A0009083E0910601F09107019CE39083E09133
:1006B0000601F0910701808308958AE191E09F93FC
:1006C0008F930E94CA0A0F900F900895CF92DF92E5
:1006D000EF92FF920F931F93CF93DF93EC01690189
:1006E00079836883BA0146960E94780ADD8ACC8AAB
:1006F000FB8AEA8AA02FB12FFE013296CE014296E4
:100700002D913D9121933193E817F907C9F7DF91B6
:10071000CF911F910F91FF90EF90DF90CF900895B0
:10072000DC01ED91FC91208131812115310559F0D9
:10073000FC01318320838EE291E09F938F930E948E
:10074000CA0A0F900F900895FC01A081B181FB01AE
:10075000EE0FFF1FEA0FFB1F2081318121153105AC
:1007600041F0FC013183208383E391E00E94E00AA1
:1007700008955496ED91FC915597309731F0099575
:100780008FE391E00E94E00A089585E591E00E94E0
:10079000E00A0895CF9381E691E00E94E00A0E946A
:1007A0008306843029F482E00E9449078823B9F344
:1007B0000E948306C82F823029F487E791E00E94C7
:1007C000E00A16C00E948306C82F833089F00E9479
:1007D0008306C82F813061F00E948306C82F8823CA
:1007E00039F082E00E944907811101C002C0C5E0D2
:1007F0008C2FCF9108950E9483068430E1F70895ED
:100800006F5F7F4FFC018289938901966817790792
:1008100011F461E070E0CB01089565E081500E9421
:100820003E0308950F931F93CF93DF93CDB7DEB7A9
:100830002B970FB6F894DEBF0FBECDBF8C0185E0BD
:10084000E0E8F1E0DE01119601900D928A95E1F762
:1008500086E0E5E8F1E0DE01169601900D928A95BA
:10086000E1F76CE080E00E944902CE0101960E940F
:1008700021036CE081E00E944902CE0106960E94AD
:100880002103C8010E940D042B960FB6F894DEBF19
:100890000FBECDBFDF91CF911F910F9108950F93A0
:1008A0001F93CF93DF93CDB7DEB72B970FB6F89496
:1008B000DEBF0FBECDBF8C018BE0EBE8F1E0DE01C7
:1008C000119601900D928A95E1F76CE080E00E940C
:1008D0004902CE0101960E942103C8010E940D0425
:1008E0002B960FB6F894DEBF0FBECDBFDF91CF9130
:1008F0001F910F9108950F931F93CF93DF93CDB75F
:10090000DEB72A970FB6F894DEBF0FBECDBF8C01BD
:100910008AE0E6E9F1E0DE01119601900D928A95F8
:10092000E1F76CE080E00E944902CE0101960E944E
:100930002103C8010E940D042A960FB6F894DEBF69
:100940000FBECDBFDF91CF911F910F910895CF932F
:10095000DF93EB01FC018789813641F480EA91E065
:100960000E94E00ACE010E9412040FC08C3641F4AE
:100970008AEB91E00E94E00ACE010E944F0405C07C
:10098000883619F4CB010E947B04DF91CF91089542
:10099000CF93DF93CDB7DEB7E0970FB6F894DEBF05
:1009A0000FBECDBF8BEA92E09093D6028093D50222
:1009B00080E1EAE0F1E0DE01119601900D928A9566
:1009C000E1F780E15E0191E1A90EB11CF501982FDC
:1009D00011929A95E9F76E01E1E2CE0ED11CF60173
:1009E00011928A95E9F76894EE24E1F8F12C8E01D2
:1009F0000F5F1F4F20E030E04CEC51E060E070E012
:100A00008BEA92E00E946603EE24E394F12C8501C8
:100A10002DE533E046ED51E06BEA72E081E892E0CB
:100A20000E9466036894EE24E3F8F12C860120E02E
:100A300030E040EE51E06BEA72E087E592E00E9420
:100A4000660361E070E08091D5029091D6020E9429
:100A5000A704EE24E394F12C0F2EFAE3CF2EF2E05C
:100A6000DF2EF02D8BEE91E00E94E00A0E94CA0377
:100A7000182F81E092E00E94E00A0E94570282E172
:100A800092E00E94E00A113031F1C8F0123019F002
:100A9000133061F02CC0F1E0EF1AF10841F5E0915C
:100AA000D502F091D602E288F38821C0B701809187
:100AB000D5029091D6020E9400047C0118C08FE1FB
:100AC00092E00E94E00A85ED92E00E949003EE24FD
:100AD000E394F12C0CC085E292E00E94E00AB70199
:100AE00085ED92E00E94A403EE24E394F12C8CE2C5
:100AF00092E00E94E00AE091D502F091D602868948
:100B00001F928F93DF92CF920E94CA0AB701809101
:100B1000D5029091D6020E94A7040E94FB030F9079
:100B20000F900F900F909ECF8F929F92AF92BF9297
:100B3000CF92DF92EF92FF920F931F93CF93DF93A9
:100B40007C0180E00E94EA01C82FD0E081E00E9491
:100B5000EA01682F70E00091D7021091D802C80115
:100B60000A97681779070CF4B4C04496861797075C
:100B70000CF04CC0601B710B072E000C880B990BFE
:100B80000E94230920E030E048EC52E40E94070A6A
:100B90004B015C01B801110F880B990B0E942309CE
:100BA0009B01AC0160E070E08FE793E40E94950741
:100BB0009B01AC01C501B4010E9479080E94EB08B9
:100BC0006B0126C0072E000C880B990B0E9423098D
:100BD0004B015C01B801110F880B990B0E9423098E
:100BE0009B01AC01C501B4010E94790820E030E00E
:100BF00048EC52E40E94070A20E030E048EC52E45E
:100C00000E9495070E94EB086B0102C0C12CD12CF9
:100C10000091D9021091DA02C8010A97C817D907C2
:100C20000CF45EC044968C179D070CF04AC0C01BA4
:100C3000D10BBE01DD0F880B990B0E94230920E028
:100C400030E048EC52E40E94070A4B015C01B80115
:100C5000110F880B990B0E9423099B01AC0160E0E6
:100C600070E08FE793E40E9495079B01AC01C501FA
:100C7000B4010E9479080E94EB0825C0BE01DD0F77
:100C8000880B990B0E9423094B015C01B801110FDD
:100C9000880B990B0E9423099B01AC01C501B4018B
:100CA0000E94790820E030E048EC52E40E94070AF4
:100CB00020E030E048EC52E40E9495070E94EB08E7
:100CC00002C060E070E0F701D182C082738362836A
:100CD0000DC0C8010A96861797070CF44BCF72CF48
:100CE000C8010A968C179D074CF6A1CFDF91CF91D2
:100CF0001F910F91FF90EF90DF90CF90BF90AF903A
:100D00009F908F9008958F929F92AF92BF92CF92B3
:100D1000DF92EF92FF92CF93DF938DED92E00E94EE
:100D20009405EDEDF2E0E080F180C281D381B7015E
:100D30000F2C000C880B990B0E9423094B015C01BE
:100D4000BE010D2E000C880B990B0E942309A501F2
:100D500094010E94150821E0CD2B09F020E0222308
:100D600031F021E0EF2809F020E0211179C00E9444
:100D7000EB08072E000C880B990B0E9423096B01CE
:100D80007C01C1E02BED3FE049E45FEB0E94FA09F2
:100D900088230CF4C0E0CC2371F0C1E02BED3FE0E0
:100DA00049E45FE3C701B6010E94740818160CF409
:100DB000C0E0C11157C0C1E024EE3BEC46E150EC6D
:100DC000C701B6010E94FA0988230CF4C0E0CC23C5
:100DD00071F0C1E02BED3FE049E45FEBC701B601E4
:100DE0000E94740818160CF4C0E0C1113DC0C1E0A7
:100DF00024EE3BEC46E150E4C701B6010E94FA093B
:100E000088230CF4C0E0C11131C0C1E024EE3BECFA
:100E100046E150ECC701B6010E94740818160CF4A4
:100E2000C0E0C11123C0C1E02BED3FE049E45FE326
:100E3000C701B6010E94FA0988230CF4C0E0CC2354
:100E400071F0C1E024EE3BEC46E150E4C701B6018D
:100E50000E94740818160CF4C0E0C11109C009C042
:100E600084E007C081E005C083E003C080E001C0EA
:100E700082E0DF91CF91FF90EF90DF90CF90BF9015
:100E8000AF909F908F900895B9988C988D98C19A43
:100E90000895813019F480B380710895811103C0E1
:100EA00080B380720895823031F486B38695817064
:100EB00091E08927089580E008950E947E070E94AE
:100EC0000A020E9485076DE877E081E997E00E94B9
:100ED0007F0A87ED92E00E94F3010E947B020E944C
:100EE00044070E9457020E94C804C9E4D2E0DF937D
:100EF000CF930E94CA0A0F900F90F9CF85B78068F0
:100F000085BF80B7806280BF08958FE189B910BC2A
:100F100088E18AB98EE880BD08955F9BFECF8CB1D1
:100F200008955D9BFECF8CB908955058BB27AA2722
:100F30000E94AD070C94C0090E94B20938F00E94CB
:100F4000B90920F039F49F3F19F426F40C9488096C
:100F50000EF4E095E7FB0C948209E92F0E94D10979
:100F600058F3BA17620773078407950720F079F4DE
:100F7000A6F50C94F3090EF4E0950B2EBA2FA02DD4
:100F80000B01B90190010C01CA01A0011124FF2736
:100F9000591B99F0593F50F4503E68F11A16F04031
:100FA000A22F232F342F4427585FF3CF4695379530
:100FB0002795A795F0405395C9F77EF41F16BA0BF5
:100FC000620B730B840BBAF09150A1F0FF0FBB1FA3
:100FD000661F771F881FC2F70EC0BA0F621F731FEC
:100FE000841F48F4879577956795B795F7959E3F49
:100FF00008F0B0CF9395880F08F09927EE0F9795DA
:10100000879508950E94B20960F080E891E009F4A4
:101010009EEF0E94B90928F040E851E071F45EEFBC
:101020000CC00C9488090C94F309E92FE0780E9415
:10103000D10940F3092E052AB1F3261737074807CF
:10104000590738F00E2E07F8E02569F0E025E06436
:101050000AC0EF6307F8009407FADB01B9019D01AC
:10106000DC01CA01AD01EF930E9490080E94C00903
:101070000E9445085F91552339F02BED3FE049E48C
:1010800050FD49EC0C9496070895DF93DD27B92FA6
:10109000BF7740E85FE31616170648075B0718F4AA
:1010A000D92F0E94FF099F938F937F936F930E9484
:1010B000740AE0E7F0E00E948B090E94C0092F91BA
:1010C0003F914F915F910E941A0ADD2351F0905891
:1010D000A2EA2AED3FE049EC5FE3D0785D270E9469
:1010E000AD07DF910C94C0090E945E0908F481E00D
:1010F00008950E948D080C94C0090E94B90958F007
:101100000E94B20940F029F45F3F29F00C94820953
:1011100051110C94F4090C9488090E94D10968F3C8
:101120009923B1F3552391F3951B550BBB27AA27A0
:1011300062177307840738F09F5F5F4F220F331FDA
:10114000441FAA1FA9F335D00E2E3AF0E0E832D0A2
:1011500091505040E695001CCAF72BD0FE2F29D0A5
:10116000660F771F881FBB1F261737074807AB0777
:10117000B0E809F0BB0B802DBF01FF2793585F4FEC
:101180003AF09E3F510578F00C9482090C94F409D2
:101190005F3FE4F3983ED4F3869577956795B795CE
:1011A000F7959F5FC9F7880F911D9695879597F9D9
:1011B0000895E1E0660F771F881FBB1F6217730752
:1011C0008407BA0720F0621B730B840BBA0BEE1F67
:1011D00088F7E09508950E94F2086894B1110C9484
:1011E000F40908950E94D90988F09F5798F0B92F03
:1011F0009927B751B0F0E1F0660F771F881F991F4C
:101200001AF0BA95C9F714C0B13091F00E94F309F1
:10121000B1E008950C94F309672F782F8827B85F01
:1012200039F0B93FCCF3869577956795B395D9F7A3
:101230003EF490958095709561957F4F8F4F9F4FAD
:101240000895E89409C097FB3EF4909580957095B9
:1012500061957F4F8F4F9F4F9923A9F0F92F96E902
:10126000BB279395F695879577956795B795F11177
:10127000F8CFFAF4BB0F11F460FF1BC06F5F7F4F14
:101280008F4F9F4F16C0882311F096E911C0772326
:1012900021F09EE8872F762F05C0662371F096E82F
:1012A000862F70E060E02AF09A95660F771F881FFE
:1012B000DAF7880F9695879597F90895990F0008A2
:1012C000550FAA0BE0E8FEEF16161706E807F90718
:1012D000C0F012161306E407F50798F0621B730BB3
:1012E000840B950B39F40A2661F0232B242B252B34
:1012F00021F408950A2609F4A140A6958FEF811DD7
:10130000811D089597F99F6780E870E060E0089577
:101310009FEF80EC0895DF93CF931F930F93FF927D
:10132000EF92DF927B018C01689406C0DA2EEF0108
:101330000E941A0AFE01E894A591259135914591E4
:101340005591A6F3EF010E94AD07FE019701A80198
:10135000DA9469F7DF90EF90FF900F911F91CF9192
:10136000DF91089500240A94161617061806090638
:10137000089500240A94121613061406050608950B
:10138000092E0394000C11F4882352F0BB0F40F493
:10139000BF2B11F460FF04C06F5F7F4F8F4F9F4FD3
:1013A000089557FD9058440F551F59F05F3F71F055
:1013B0004795880F97FB991F61F09F3F79F08795BC
:1013C0000895121613061406551FF2CF4695F1DF45
:1013D00008C0161617061806991FF1CF86957105D5
:1013E000610508940895E894BB2766277727CB0109
:1013F00097F908950E945E0908F48FEF08959B0104
:10140000AC0160E070E080E89FE30C9479080E94F2
:101410001A0A0C94C0090E94B20938F00E94B90956
:1014200020F0952311F00C9482090C948809112462
:101430000C94F4090E94D10970F3959FC1F3950FA4
:1014400050E0551F629FF001729FBB27F00DB11D48
:10145000639FAA27F00DB11DAA1F649F6627B00DD8
:10146000A11D661F829F2227B00DA11D621F739FC1
:10147000B00DA11D621F839FA00D611D221F749FCF
:101480003327A00D611D231F849F600D211D822F16
:10149000762F6A2F11249F5750409AF0F1F088233D
:1014A0004AF0EE0FFF1FBB1F661F771F881F91506A
:1014B0005040A9F79E3F510580F00C9482090C948E
:1014C000F4095F3FE4F3983ED4F3869577956795EA
:1014D000B795F795E7959F5FC1F7FE2B880F911D94
:1014E0009695879597F908959B01AC010C94070A8E
:1014F000FB01DC0101900D920020E1F708950F93AC
:101500001F93CF93DF93009731F46115710519F4A0
:1015100080E090E03AC08B01EC016EE070E081E089
:1015200090E00E94F10CFC01892B91F380E8838309
:101530000115110571F01387028781E8838380917B
:10154000E1029091E202892B21F4F093E202E09310
:10155000E1022097C9F0D187C087838182608383AD
:101560008091E3029091E402892B71F4F093E402FC
:10157000E093E3028091E5029091E602892B21F449
:10158000F093E602E093E502CF01DF91CF911F9146
:101590000F910895A0E0B0E0E0EDFAE00C94F50EB4
:1015A000AE014B5F5F4FFA0161917191AF01809184
:1015B000E3029091E4020E94100BE2E00C94110F00
:1015C0000F931F93CF93DF93E091E302F091E40236
:1015D000238121FF1BC08C01D0E0C0E0F801819184
:1015E0008F016091E3027091E402DB011896ED91A6
:1015F000FC911997882331F00995892B79F3DFEF56
:10160000CFEFECCF8AE00995892B19F08FEF9FEF90
:1016100002C08D2F9C2FDF91CF911F910F910895C4
:10162000ABE0B0E0E6E1FBE00C94E50E6C017B0181
:101630008A01FC0117821682838181FFCCC1CE0111
:1016400001963C01F6019381F70193FD859193FF8B
:1016500081917F01882309F4BAC1853239F493FD61
:10166000859193FF81917F01853229F4B60190E045
:101670000E944B0EE7CF912C212C312CFFE1F3156A
:10168000D8F08B3279F038F4803279F08332A1F4DB
:10169000232D20611DC08D3261F0803369F4232D2C
:1016A000216016C0832D8260382EE32DE4603E2E2B
:1016B0002AC0F32DF8601DC037FC2DC020ED280F87
:1016C0002A3040F08E32B9F436FC81C1232D2064DB
:1016D000322E19C036FE06C08AE0989E200D1124D5
:1016E000922E11C0EAE02E9E200D1124222EF32D01
:1016F000F0623F2E08C08C3621F4832D8068382E8E
:1017000002C0883641F4F70193FD859193FF8191E2
:101710007F018111B3CF982F9F7D9554933028F48A
:101720000C5F1F4F9FE399830DC0833631F08337E1
:1017300071F0833509F059C021C0F8018081898397
:101740000E5F1F4F88248394912C530113C02801EE
:10175000F2E04F0E511CF801A080B18036FE03C0AC
:10176000692D70E002C06FEF7FEFC5010E94400E4F
:101770004C018201F32DFF773F2E16C0280122E095
:10178000420E511CF801A080B18036FE03C0692DC5
:1017900070E002C06FEF7FEFC5010E942E0E4C017A
:1017A000F32DF0683F2E820133FC1BC0822D90E0A8
:1017B00088169906B0F4B60180E290E00E944B0EC4
:1017C0002A94F4CFF50137FC859137FE81915F01B2
:1017D000B60190E00E944B0E21102A9421E0821A5B
:1017E00091088114910471F7E8C0843611F08936AC
:1017F00041F5F80137FE07C06081718182819381D4
:101800000C5F1F4F08C060817181072E000C880B90
:10181000990B0E5F1F4FF32DFF763F2E97FF09C0E8
:1018200090958095709561957F4F8F4F9F4FF06891
:101830003F2E2AE030E0A3010E94870E882E8618F2
:1018400045C0853731F4232D2F7EB22E2AE030E0BB
:1018500025C0932D997FB92E8F36C1F018F48835A5
:1018600079F0B5C0803719F0883721F0B0C0E92F82
:10187000E061BE2EB4FE0DC0FB2DF460BF2E09C08A
:1018800034FE0AC0292F2660B22E06C028E030E0C0
:1018900005C020E130E002C020E132E0F801B7FEEF
:1018A00007C060817181828193810C5F1F4F06C0E8
:1018B0006081718180E090E00E5F1F4FA3010E9464
:1018C000870E882E8618FB2DFF773F2E36FE0DC023
:1018D000232D2E7FA22E891458F434FE0BC032FC27
:1018E00009C0832D8E7EA82E05C0B82CA32C03C062
:1018F000B82C01C0B92CA4FE0FC0FE01E80DF11DEB
:101900008081803321F49A2D997EA92E09C0A2FEF0
:1019100006C0B394B39404C08A2D867809F0B394BA
:10192000A3FC11C0A0FE06C0B21488F4280C922CAF
:101930009B180EC0B21460F4B60180E290E00E94E1
:101940004B0EB394F7CFB21418F42B1802C0982C96
:10195000212CA4FE10C0B60180E390E00E944B0E43
:10196000A2FE17C0A1FC03C088E790E002C088E592
:1019700090E0B6010CC08A2D867859F0A1FE02C015
:101980008BE201C080E2A7FC8DE2B60190E00E94EC
:101990004B0E891438F4B60180E390E00E944B0EA0
:1019A0009A94F7CF8A94F301E80DF11D8081B60176
:1019B00090E00E944B0E8110F5CF222009F442CE18
:1019C000B60180E290E00E944B0E2A94F6CFF60119
:1019D0008681978102C08FEF9FEF2B96E2E10C94F6
:1019E000010F0F931F93CF93DF93869F8001879FF3
:1019F000100D969F100D1124C8010E940D0DEC01D1
:101A0000009729F0A80160E070E00E94390ECE0135
:101A1000DF91CF911F910F9108950F931F93CF9353
:101A2000DF938230910510F482E090E0E091E902CA
:101A3000F091EA0220E030E0A0E0B0E0309719F148
:101A4000408151810281138148175907C8F08417DA
:101A5000950769F4109731F012960C93129713962C
:101A60001C9327C00093E9021093EA0222C02115BB
:101A7000310519F04217530718F49A01BD01EF011F
:101A8000DF01F801DBCF21153105F9F0281B390BF7
:101A90002430310580F48A819B816115710521F024
:101AA000FB019383828304C09093EA028093E9024E
:101AB000FE01329644C0FE01E20FF31F8193919321
:101AC00022503109398328833AC02091E7023091AE
:101AD000E802232B41F4209102013091030130935D
:101AE000E8022093E70220910001309101012115C5
:101AF000310541F42DB73EB74091040150910501E5
:101B0000241B350BE091E702F091E802E217F3079E
:101B1000A0F42E1B3F0B2817390778F0AC014E5F5D
:101B20005F4F2417350748F04E0F5F1F5093E802B0
:101B30004093E7028193919302C0E0E0F0E0CF018F
:101B4000DF91CF911F910F910895CF93DF9300976D
:101B500009F481C0FC01329713821282A091E9023C
:101B6000B091EA02109781F420813181820F931F96
:101B70002091E7023091E8022817390751F5F093D8
:101B8000E802E093E70267C0ED0120E030E0CE1705
:101B9000DF0740F44A815B819E0141155105F1F058
:101BA000EA01F5CFD383C28340815181840F951F11
:101BB000C817D90759F488819981840F951F029617
:101BC000918380838A819B81938382832115310550
:101BD00029F4F093EA02E093E9023DC0E901FB83B6
:101BE000EA8349915991C40FD51FEC17FD0761F4A1
:101BF00080819181840F951F0296E90199838883E2
:101C0000828193819B838A83E0E0F0E012968D913C
:101C10009C911397009719F0FD01DC01F7CF8D918E
:101C20009C9111979D012E5F3F4F820F931F209132
:101C3000E7023091E8022817390769F4309729F450
:101C40001092EA021092E90202C013821282B0934B
:101C5000E802A093E702DF91CF910895FC0105907F
:101C6000615070400110D8F7809590958E0F9F1F9E
:101C70000895DC0101C06D9341505040E0F7089594
:101C8000FC016150704001900110D8F7809590954B
:101C90008E0F9F1F08950F931F93CF93DF93FB0128
:101CA000238121FD03C08FEF9FEF2CC022FF16C0C0
:101CB00046815781248135814217530744F4A0811E
:101CC000B1819D012F5F3F4F318320838C9326810B
:101CD00037812F5F3F4F3783268314C08B01EC0180
:101CE000FB010084F185E02D0995892BE1F6D801EF
:101CF00016968D919C911797019617969C938E93AB
:101D00001697CE01DF91CF911F910F910895FA019F
:101D1000AA27283051F1203181F1E8946F936E7F2A
:101D20006E5F7F4F8F4F9F4FAF4FB1E03ED0B4E01B
:101D30003CD0670F781F891F9A1FA11D680F791F5C
:101D40008A1F911DA11D6A0F711D811D911DA11D6D
:101D500020D009F468943F912AE0269F112430197D
:101D6000305D3193DEF6CF010895462F4770405D18
:101D70004193B3E00FD0C9F7F6CF462F4F70405DC7
:101D80004A3318F0495D31FD4052419302D0A9F722
:101D9000EACFB4E0A6959795879577956795BA951C
:101DA000C9F700976105710508959B01AC010A2EE2
:101DB00006945795479537952795BA95C9F7620FB9
:101DC000731F841F951FA01D08952F923F924F925D
:101DD0005F926F927F928F929F92AF92BF92CF92BB
:101DE000DF92EF92FF920F931F93CF93DF93CDB7C4
:101DF000DEB7CA1BDB0B0FB6F894DEBF0FBECDBF3C
:101E000009942A88398848885F846E847D848C840C
:101E10009B84AA84B984C884DF80EE80FD800C8115
:101E20001B81AA81B981CE0FD11D0FB6F894DEBFF8
:0C1E30000FBECDBFED010895F894FFCF68
:101E3C000000EB022000001200108102570200008B
:101E4C00000000000000000000004EC3A5206B6ADB
:101E5C00C3B8726572207370696C6C6574004C4504
:101E6C004654004279747465206E6F646509004BAA
:101E7C004AC398522046554E534B4A4F4E535045E9
:101E8C004B45520900446F206E6F7468696E670988
:101E9C0000496E6E2069207761697420666F72202C
:101EAC00616374696F6E0055505550555055500014
:101EBC00706C61790053636F726500537461727456
:101ECC002067616D6500546F702073636F726500DD
:101EDC0055706461746520204D41494E5F4D454EEF
:101EEC00552073637265656E090055706461746585
:101EFC0020504C4159206D656E7509004D61696E1D
:101F0C00206D656E7500506C61792067616D6500A0
:101F1C0053686F772073636F72650046C3B8722085
:101F2C005761697420666F7220616374696F6E0902
:101F3C000046C3B872206F6C656420636C65617277
:101F4C00090046C3B8722073776974636809004C42
:101F5C006566740900524947485409004166746526
:101F6C00722073776974636809004E6F64656E61E3
:101F7C00766E20256320090A004D61696E206B6A1C
:061F8C00C3B8726572008B
:00000001FF
