S00D00004E6F6465322E737265635F
S214080000F8080020610408005D0408005D04080084
S2140800105D0408005D0408005D0408000000000098
S2140800200000000000000000000000005D0408005A
S2140800305D040800000000005D0408005D04080078
S2140800405D0408005D0408005D0408005D040800FF
S2140800505D0408005D0408005D0408005D040800EF
S2140800604D0F08005D040800000000005D0408004D
S2140800705D0408005D0408005D0408000000000038
S214080080000000005D0408005D0408005D04080028
S2140800905D0408005D0408005D0408005D040800AF
S2140800A05D040800000000005D040800A50C0800B8
S2140800B05D0408005D0408005D0408005D0408008F
S2140800C05D0408005D0408005D0408005D0408007F
S2140800D05D0408005D0408005D0408005D0408006F
S2140800E05D0408005D0408005D040800610308005C
S2140800F05D04080010B5054C237833B9044B13B1DA
S2140801000448AFF300800123237010BD3404002098
S21408011000000000B42108000C4B43B10C4810B591
S2140801200C49AFF300800C48036823B910BD0A4891
S214080130036833B97047094B002BF7D0BDE8104069
S2140801401847064B002BF5D0184700BF00000000E4
S214080150B421080038040020B4210800000000007C
S2140801602DE9F0435518082998BF082A64D80E4682
S214080170082D61DC324A136823F001031360136903
S214080180304B4FF440745C641C6F24F003041C6707
S21408019003245C605C66A3F500632B4CC3F80C4133
S2140801A0D3F8004144F40064C3F800415061A94202
S2140801B040DC0A460024A146DFF884804FF0005C45
S2140801C04FF0807E0127530103F1402000F53020D0
S2140801D0C0F804924344C3F808C2C0F800E2D3F853
S2140801E01C0240F40000C3F81C0207FA02F31C4382
S2140801F001329542E7DA81B1002311494FF00055E4
S2140802004FF0407001EB4312C2F8085203F1100297
S2140802105201885001339E42F4D1094B5C604FF47A
S21408022000610A4A51601A6842F001021A6000200A
S214080230BDE8F0830024DEE70120BDE8F08300BFB8
S21408024000400B40000E0E402B10001000E100E0AE
S2140802504B0103F1402303F53023D3F8103213F48F
S214080260000F36D003881C4A02EA834242F0005246
S2140802704B0103F1402303F53023C3F808228378A3
S214080280072B84BF07238370827943791B0443EACC
S2140802900263C2781343027943EA0223490101F153
S2140802A0402101F53021C1F81432827A437A1B04C2
S2140802B043EA0263C2791343027A43EA0223C1F887
S2140802C0183283781B0443F40003C1F81C3200205C
S2140802D070470120704700BF0000FC1F4B0103F168
S2140802E0402303F53023D3F8103213F4000F33D02D
S2140802F030B44B0103F1402303F53023D3F814221E
S214080300D3F81842D3F80852C5F38A450580D3F8BF
S2140803101032C3F3034383701D465BB103300023DA
S214080320032BD9BF0270120A0470240A0133013065
S214080330AB42F5D1094B01F1100252014FF0807023
S214080340985003EB4111D1F81C3243F40003C1F86E
S2140803501C32002030BC70470120704700400B401C
S21408036010B584B0324B1C6914F0060F18D014F080
S214080370020F22D114F0040F24D0022101A82D4B1D
S21408038098479DF806201AB1002301339342FCD102
S214080390BDF80430FF2B19D0092B2BD0052B2CD0F9
S2140803A014F0010F02D00122214B9A604FF400622C
S2140803B0214BC3F8842104B010BD012101A81D4BB0
S2140803C09847DEE71D481E4B9847DAE71D4B9DF811
S2140803D00720803A1A609DF80820803A5A609DF8EF
S2140803E0092002F00101197252085A729DF80A2073
S2140803F09A72D5E7144B9847D2E79DF80730022B38
S21408040009D0032B0DD0012BCAD100220F49104862
S214080410104B9847C4E700220F490D480D4B9847E4
S214080420BEE700224FF07C5109480A4B9847B7E7C9
S21408043000400B40DD02080000E100E0EC20080068
S214080440410C0800800400201D0D08006666663F03
S214080450A69B443BB90608003333333FFEE700004B
S21408046008B5184B184A9A4210D0184B154A9A42A3
S2140804700CD2013B9B1A23F003030433134412499E
S21408048051F8040B42F8040B9A42F9D1104B114A62
S2140804909A420AD2013B9B1A23F0030304331344FF
S2140804A0002142F8041B9342FBD10B4B23F0604318
S2140804B023F07F03094A9360094B9847094B9847EE
S2140804C0FEE700BF00000020B42108003404002026
S2140804D0F4040020340400200000080000ED00E0CA
S2140804E07D1F0800CD0508004FF48063204A13607E
S2140804F002F5007213601F4B1B6A13F0807F07D14A
S2140805001D4A1C4B1A621A46936E13F0010FFBD055
S2140805101A4A184B1A621A46936E13F4803FFBD099
S214080520144A136B23F0030343F001031363936E1B
S21408053013F0080FFBD0124A0E4B9A621A46936EB7
S21408054013F0020FFBD011220A4B1A631A46936E59
S21408055013F0080FFBD01222064B1A631A46936E46
S21408056013F0080FFBD0074A074B1A60704700BF06
S214080570000A0E4000060E40090837000908370131
S214080580013F0D2000BD010500000020094A136840
S21408059043F020031360A2F50132A2F53F721368F8
S2140805A043F0800313600C32136843F08003136033
S2140805B0704700BF00070E40034BD86E80B2F9287C
S2140805C08CBF00200120704700000C4070B584B036
S2140805D0224B9847224B9847224B9847224B9847DE
S2140805E0224B9847224B9847012202212148224B4A
S2140805F098474FF40042214B5A600120204B9847F9
S214080600204B9847002220492048214B9847002332
S214080610ADF8043002238DF806301E4E1E4C1F4DD2
S21408062004E0A84701461E481E4B9847B04794E882
S21408063007001D4B984794E807001C4B98471C4B2F
S21408064098470028EDD0AB238DF80730A8478DF8DB
S2140806500800002101A8174B9847E2E7E9040800BC
S214080660C10E0800290D0800D10708008D050800EE
S214080670650C08005535140061010800501A0E4034
S214080680F10C0800B50808006666663FA69B443B62
S214080690B90608007D07080080040020110D080030
S2140806A018210800410C0800290E0800950E0800BD
S2140806B0B905080051020800064B186059609A6090
S2140806C0054ADA6000221A6100225A619A61DA61E4
S2140806D0704700BF5C0400200AD7233C00000000D7
S2140806E0F8B51B4B984744F620639842C8BF0020CD
S2140806F0184B984712A3D3E90023174CA04712A318
S214080700D3E90023154CA047154B9D7A154B9847FF
S2140807102D1A154C65612769144E2168E068B047A4
S2140807203946B04707462846114B98476168B04790
S214080730014638460F4B98470F4B9847E061F8BD7F
S214080740B81E85EB51B88EBF0000000000E06F4071
S214080750F50808005912080025130800C10F0800FC
S21408076080040020591808005C040020651B080057
S214080770BD1A080055190800F11E080038B50F4BB9
S214080780DB69002B11DB01200D4B98470B4BD86912
S2140807900C4B9847094C6069A06125690A4B984735
S2140807A029460A4B9847206138BD0020044B9847D5
S2140807B0024BD8694042034B9847EBE75C0400209D
S2140807C07108080039080800BD1A080055190800FD
S2140807D0144A136843F040031360134A134B1A6015
S2140807E002220C331A6003F5C23303F5F8731A694C
S2140807F042F400521A611A6942F400521A6103F56B
S21408080060631A6840F207610A431A60084A136868
S2140808100B431360A2F50472136843F0FF031360DA
S214080820704700BF00070E400020010504800C40FA
S21408083010140E400000000010B5094B984706A398
S214080840D3E90023074CA047074B9847074B186087
S21408085010BD00BFAFF300800F0F0F0F0F0F304013
S21408086059120800251308005918080020800C4063
S214080870012805D018B94FF48062044B1A607047F7
S2140808804FF48062024B1A60704700BF34140E4063
S21408089030140E400222054B1A604FF4C873013B11
S2140808A0FDD10222024B1A60704700BF34140E4076
S2140808B030140E4008B5044A136843F400731360F6
S2140808C0024B984708BD00BF30140E409508080034
S2140808D028B9064A136843F0010313607047044AB0
S2140808E0136843F001031360704700BF30140E40CE
S2140808F034140E4000B583B001201B4B98470422E1
S2140809001A4B1A604FF4C873013BFDD1184B1B688D
S2140809109BB2ADF80630BDF80630DBB2ADF806304F
S214080920BDF806301B0203F47F43ADF806300422F8
S214080930104B1A604FF4C873013BFDD10C4B1B6873
S2140809409BB2ADF80430BDF80430DBB2ADF8043025
S2140809500020054B9847BDF80630BDF8040018443B
S21408096080B203B05DF804FBD108080034140E40CA
S2140809703C120E4030140E402DE9F8430D46161E64
S21408098048DD0A78002A35D00A460024013412F8D1
S214080990011F0029FAD1A6422DDC002403F002022A
S2140809A0002A0CBF4FF020084FF0300813F0010360
S2140809B023D1002C28DD26465FFA88F9184F4846CA
S2140809C0B847013EFBD1287888B1154FB84701349F
S2140809D015F8010F0028F9D1002E08DD35465FFA14
S2140809E088F80F4F4046B847013DFBD134442046AF
S2140809F0BDE8F8830024341BD0E72646287808B1DB
S214080A000024E2E70024E7E726461C46DBE74FF02B
S214080A102008D8E713F00104F9D04FF02008EDE7D6
S214080A20290F0800F0B585B0074681B30C460BB110
S214080A300A2A38D000238DF80F300026002946D021
S214080A400DF10F050C993A39B4FBF2F302FB134388
S214080A50092BC8BF5B18303305F8013DB4FBF2F428
S214080A60002CF1D156B10A9B1BB10B9B13F0020F59
S214080A7025D12D2305F8013C013D00260B9B0A9A3B
S214080A8029463846144CA047304405B0F0BD3023FC
S214080A908DF8043000238DF805300B9B0A9A01A9BF
S214080AA00D4CA047F1E70029C4DA4C4200238DF824
S214080AB00F300DF10F05002CD5D00126C0E72D20EC
S214080AC0064B98470A9B013B0A930126D6E71E4623
S214080AD00DF10F05D2E700BF79090800290F0800B5
S214080AE02DE9F04F87B080460B78002B00F09480F5
S214080AF08B46174600254E4EDFF83CA1DFF83C91A2
S214080B0046E0002270E0396804374A48002908BFE2
S214080B1001464046D047054435E039680437612029
S214080B2002900193009201230A224046C8470544D2
S214080B3029E0396804376120029001930092002367
S214080B4010224046C84705441DE03968043741204E
S214080B50029001930092002310224046C84705449D
S214080B6011E039680437612002900193009200234F
S214080B700A224046C847054405E0A3469BF80000FD
S214080B80B04701355C4604F1010B6378002B44D06E
S214080B90252BF3D10BF101049BF80130002B3CD038
S214080BA0252BEAD02D2B06BF0BF1020401230023C8
S214080BB02278302A05D143F0020314F8012F302A90
S214080BC0F9D02178A1F13002D2B2092A99D80022A8
S214080BD002EB8202303901EB420214F8011FA1F140
S214080BE03000C0B20928F3D973298CD0642994D070
S214080BF078299ED05829A8D07529B2D06329C2D1A1
S214080C00396804378DF8141000218DF8151005A9D9
S214080C104046D0470544B6E70025B8F1000F03D094
S214080C20D8F8003000221A70284607B0BDE8F08FC2
S214080C30290F08002C21080079090800250A080051
S214080C400FB400B583B004AA52F8041B0192002022
S214080C50034B984703B05DF804EB04B0704700BF39
S214080C60E10A08000B4A136843F0006313600A4B56
S214080C705A6A42F014025A621A6842F001021A606E
S214080C8041F6A712DA61054A5A604FF00062044B33
S214080C901A60704710060E400000084003C00400A3
S214080CA000E100E008B50D4B1B6A0D490B685A1C9D
S214080CB00A600C4BA3FB02135B09642101FB132398
S214080CC01BB9074A536801335360074B98474FF0E0
S214080CD00062064BC3F8802108BD00BF000008402C
S214080CE0500400201F85EB51E106080000E100E0F3
S214080CF0012804D010B90222044B1A607047034A30
S214080D00136843F005031360704700BF00000840EF
S214080D10014B5868704700BF500400200022014B62
S214080D205A60704750040020134B1A6842F08052ED
S214080D301A6012490A6842F080520A604FF08051E1
S214080D400F4A11600F490A6842F010020A605A6892
S214080D5042F400225A601A6F42F400221A674FF4CF
S214080D602812094B1A600C2203F528731A6049F6F4
S214080D7040420C331A60704700120E4010120E40A4
S214080D8030120E4000070E400040094000000000E8
S214080D9038B50446164B984713A3D3E90023154DD8
S214080DA0A847B8B914492046144B9847B8B92146FD
S214080DB04FF07E50124B98471249134B9847134BE7
S214080DC09847134B1860134A136843F020031360C0
S214080DD0002038BD1048114B9847012038BD1048F0
S214080DE00E4B9847012038BD7B14AE47E17AA43FE6
S214080DF07D120800091808000000DC42DD1E080005
S214080E005119080000401C47651B08003D1F0800D4
S214080E10A44209400440094034210800410C080057
S214080E20502108000000000010B584B004AB03E9A8
S214080E300700019840420E4B98470E4B98470AA366
S214080E40D3E900230C4CA04700220C4B0C4CA047BF
S214080E500C4B98470C490D4B98470D4B984704B0D8
S214080E6010BD00BFAFF30080FA7E6ABC7493783F6B
S214080E70BD1A08007D120800251308000000F83F78
S214080E80C10F0800A91808000000A041CD1C0800E2
S214080E90910D080084B004AB03E907009DF80C30F8
S214080EA02BB94FF08052044B1A6004B070474FF0CD
S214080EB08052024B1A60F8E730120E4034120E4089
S214080EC0164B00221A705A70154B4FF4407159642D
S214080ED059601A6F186F024022F440721A675966F2
S214080EE04FF48072A3F500631A6103F50073AC2112
S214080EF0196040F2232119624FF40061596040F2EC
S214080F000221C3F820114FF0FF31D960E121996022
S214080F1004490A6050221A60704700BF8C040020FB
S214080F20000E0E4000E100E0074B5B6913F0020F6D
S214080F3008D0054BD8611A46536913F4007FFBD0D6
S214080F40002070470120704700080E4008B5154B72
S214080F505B6913F0E00F03D04FF4A871114A1160D3
S214080F6013F0010F12D010484278531C594203F070
S214080F703F0301F03F0158BF4B4201788B4206D031
S214080F800849886908490A4490704B7008BD0748A4
S214080F90074B9847034B9A69034B59780B449A704A
S214080FA008BD00BF00080E408C0400206C21080015
S214080FB0410C080081F0004102E000BF83F00043C6
S214080FC030B54FEA41044FEA430594EA050F08BFD7
S214080FD090EA020F1FBF54EA000C55EA020C7FEA9B
S214080FE0645C7FEA655C00F0E2804FEA5454D4EB18
S214080FF05555B8BF6D420CDD2C4480EA020281EAE2
S214081000030382EA000083EA010180EA020281EA19
S2140810100303362D88BF30BD11F0004F4FEA01316B
S2140810204FF4801C4CEA113102D0404261EB41017A
S21408103013F0004F4FEA03334CEA133302D0524200
S21408104063EB430394EA050F00F0A780A4F10104BC
S214081050D5F1200E0DDB02FA0EFC22FA05F28018F6
S21408106041F1000103FA0EF2801843FA05F35941DC
S2140810700EE0A5F120050EF1200E012A03FA0EFC5B
S21408108028BF4CF0020C43FA05F3C01851EBE37185
S21408109001F0004507D54FF0000EDCF1000C7EEBA2
S2140810A000006EEB0101B1F5801F1BD3B1F5001FE0
S2140810B00CD349085FEA30004FEA3C0C04F10104FF
S2140810C04FEA445212F5800F80F09A80BCF1004F28
S2140810D008BF5FEA500C50F1000041EB045141EAAA
S2140810E0050130BD5FEA4C0C404141EB010111F4AB
S2140810F0801FA4F10104E9D191F0000F04BF014656
S2140811000020B1FA81F308BF2033A3F10B03B3F133
S21408111020020CDA0C3208DD02F1140CC2F10C02C3
S21408112001FA0CF021FA02F10CE002F11402D8BF21
S214081130C2F1200C01FA02F120FA0CFCDCBF41EAED
S2140811400C019040E41AA2BF01EB0451294330BDBC
S2140811506FEA04041F3C1CDA0C340EDC04F1140499
S214081160C4F1200220FA04F001FA02F340EA030070
S21408117021FA04F345EA030130BDC4F10C04C4F1B6
S214081180200220FA02F001FA04F340EA0300294696
S21408119030BD21FA04F0294630BD94F0000F83F4E0
S2140811A0801306BF81F480110134013D4EE77FEAC3
S2140811B0645C18BF7FEA655C29D094EA050F08BF0F
S2140811C090EA020F05D054EA000C04BF19461046F0
S2140811D030BD91EA030F1EBF0021002030BD5FEA34
S2140811E0545C05D14000494128BF41F0004130BD5C
S2140811F014F580043CBF01F5801130BD01F00045B0
S21408120045F0FE4141F470014FF0000030BD7FEA22
S214081210645C1ABF194610467FEA655C1CBF0B461D
S214081220024650EA013406BF52EA033591EA030F34
S21408123041F4002130BD00BF90F0000F04BF00212C
S214081240704730B54FF4806404F132044FF000055F
S2140812504FF0000150E700BF90F0000F04BF0021D8
S214081260704730B54FF4806404F1320410F000453E
S21408127048BF40424FF000013EE700BF42004FEA39
S214081280E2014FEA31014FEA02701FBF12F07F43B6
S21408129093F07F4F81F06051704792F0000F14BFB3
S2140812A093F07F4F704730B54FF4607401F00045F7
S2140812B021F0004120E700BF50EA010208BF70474E
S2140812C030B54FF000050AE050EA010208BF704743
S2140812D030B511F0004502D5404261EB41014FF4AC
S2140812E0806404F132045FEA915C3FF4DCAE4FF0B0
S2140812F003025FEADC0C18BF03325FEADC0C18BF97
S214081300033202EBDC02C2F1200300FA03FC20FAE7
S21408131002F001FA03FE40EA0E0021FA02F1144434
S214081320C1E600BF70B54FF0FF0C4CF4E06C1CEA49
S21408133011541DBF1CEA135594EA0C0F95EA0C0FBE
S21408134000F0DEF82C4481EA030621EA4C5123EA31
S2140813504C5350EA013518BF52EA033541F4801160
S21408136043F4801338D0A0FB02CE4FF00005E1FB13
S21408137002E506F00042E0FB03E54FF00006E1FB5D
S21408138003569CF0000F18BF4EF0010EA4F1FF04A0
S214081390B6F5007F64F5407404D25FEA4E0E6D41E0
S2140813A046EB060642EAC62141EA55514FEAC520F1
S2140813B040EA5E504FEACE2EB4F1FD0C88BFBCF56D
S2140813C0E06F1ED8BEF1004F08BF5FEA500E50F11E
S2140813D0000041EB045170BD06F0004646EA0101E4
S2140813E040EA020081EA0301B4EB5C04C2BFD4EB16
S2140813F00C0541EA045170BD41F480114FF0000E0F
S214081400013C00F3AB8014F1360FDEBF002001F07C
S214081410004170BDC4F10004203C35DA0C341BDCF6
S21408142004F11404C4F1200500FA05F320FA04F0C8
S21408143001FA05F240EA020001F0004221F00041FC
S21408144010EBD37021FA04F642EB06015EEA430E6F
S21408145008BF20EAD37070BDC4F10C04C4F120059F
S21408146000FA04F320FA05F001FA04F240EA020052
S21408147001F0004110EBD37041F100015EEA430E23
S21408148008BF20EAD37070BDC4F1200500FA05F243
S2140814904EEA020E20FA04F301FA05F243EA0203C2
S2140814A021FA04F001F0004121FA04F220EA0200D1
S2140814B000EBD3705EEA430E08BF20EAD37070BD17
S2140814C094F0000F0FD101F00046400041EB0101F7
S2140814D011F4801F08BF013CF7D041EA060195F0D9
S2140814E0000F18BF704703F00046520043EB030393
S2140814F013F4801F08BF013DF7D043EA0603704780
S21408150094EA0C0F0CEA135518BF95EA0C0F0CD08A
S21408151050EA410618BF52EA4306D1D181EA0301D0
S21408152001F000414FF0000070BD50EA410606BFCA
S2140815301046194652EA430619D094EA0C0F02D10F
S21408154050EA013613D195EA0C0F05D152EA033654
S2140815501CBF104619460AD181EA030101F0004172
S21408156041F0FE4141F470014FF0000070BD41F0BB
S214081570FE4141F4780170BD70B54FF0FF0C4CF495
S214081580E06C1CEA11541DBF1CEA135594EA0C0FB4
S21408159095EA0C0F00F0A7F8A4EB050481EA030E01
S2140815A052EA03354FEA013100F088804FEA0333E8
S2140815B04FF0805545EA131343EA12634FEA0222B6
S2140815C045EA111545EA10654FEA00260EF0004177
S2140815D09D4208BF964244F1FD0404F5407402D2C9
S2140815E05B084FEA3202B61A65EB03055B084FEA5A
S2140815F032024FF480104FF4002CB6EB020E75EB57
S214081600030E22BFB61A754640EA0C005B084FEA7E
S2140816103202B6EB020E75EB030E22BFB61A7546FB
S21408162040EA5C005B084FEA3202B6EB020E75EB46
S214081630030E22BFB61A754640EA9C005B084FEABE
S2140816403202B6EB020E75EB030E22BFB61A7546CB
S21408165040EADC0055EA060E18D04FEA051545EABA
S21408166016754FEA06164FEAC30343EA52734FEA63
S214081670C2025FEA1C1CC0D111F4801F0BD141EADC
S21408168000014FF000004FF0004CB6E711F4801F41
S21408169004BF01430020B4F1FD0C88BFBCF5E06F21
S2140816A03FF6AFAEB5EB030C04BFB6EB020C5FEA31
S2140816B0500C50F1000041EB045170BD0EF0004E86
S2140816C04EEA113114EB5C04C2BFD4EB0C0541EAB8
S2140816D0045170BD41F480114FF0000E013C90E6B5
S2140816E045EA060E8DE60CEA135594EA0C0F08BF79
S2140816F095EA0C0F3FF43BAF94EA0C0F0AD150EA78
S21408170001347FF434AF95EA0C0F7FF425AF10460A
S21408171019462CE795EA0C0F06D152EA03353FF432
S214081720FDAE1046194622E750EA410618BF52EAAF
S21408173043067FF4C5AE50EA41047FF40DAF52EA83
S21408174043057FF4EBAE12E74FF0FF3C06E000BF20
S2140817504FF0010C02E000BF4FF0010C4DF804CD2D
S2140817604FEA410C7FEA6C5C4FEA430C18BF7FEAED
S2140817706C5C1BD001B050EA410C0CBF52EA430C1B
S21408178091EA030F02BF90EA020F0020704710F19B
S214081790000F91EA030F58BF994208BF90422CBF2A
S2140817A0D8176FEAE37040F0010070474FEA410C23
S2140817B07FEA6C5C02D150EA013C07D14FEA430C41
S2140817C07FEA6C5CD6D152EA033CD3D05DF8040BB2
S2140817D0704700BF8446104662468C4619466346E4
S2140817E000E000BF01B5FFF7B7FF002848BF10F1BB
S2140817F0000F01BD4DF808EDFFF7F4FF0CBF012000
S21408180000205DF808FB00BF4DF808EDFFF7EAFF7B
S21408181034BF012000205DF808FB00BF4DF808ED36
S214081820FFF7E0FF94BF012000205DF808FB00BF2B
S2140818304DF808EDFFF7CEFF94BF012000205DF8B5
S21408184008FB00BF4DF808EDFFF7C4FF34BF0120C2
S21408185000205DF808FB00BF4FEA410212F50012AF
S21408186015D211D56FF47873B3EB625212D94FEADA
S214081870C12343F0004343EA505311F0004F23FAC4
S21408188002F018BF404270474FF00000704750EA19
S214081890013005D111F0004008BF6FF000407047D6
S2140818A04FF00000704700BF4FEA4102B2F1E04334
S2140818B024BFB3F5001CDCF1FE5C0DD901F0004C2A
S2140818C04FEAC0024CEA5070B2F1004F40EB83007A
S2140818D008BF20F00100704711F0804F21D113F1A6
S2140818E03872BCBF01F00040704741F480114FEADF
S2140818F05252C2F11802C2F1200C10FA0CF320FA68
S21408190002F018BF40F001004FEAC1234FEAD32384
S21408191003FA0CFC40EA0C0023FA02F34FEA4303EE
S214081920CCE77FEA625307D150EA01331EBF4FF077
S214081930FE4040F44000704701F0004040F0FE4092
S21408194040F40000704700BF80F0004002E000BF8F
S21408195081F0004142001FBF5FEA410392EA030F8D
S2140819607FEA226C7FEA236C6AD04FEA1262D2EBD7
S2140819701363C1BFD218414048404140B8BF5B42DC
S214081980192B88BF704710F0004F40F4000020F075
S2140819907F4018BF404211F0004F41F4000121F08B
S2140819A07F4118BF494292EA030F3FD0A2F10102D5
S2140819B041FA03FC10EB0C00C3F1200301FA03F113
S2140819C000F0004302D5494260EB4000B0F5000F36
S2140819D013D3B0F1807F06D340084FEA310102F1F5
S2140819E00102FE2A51D2B1F1004F40EBC25008BFA7
S2140819F020F0010040EA03007047490040EB000071
S214081A0010F4000FA2F10102EDD1B0FA80FCACF19F
S214081A10080CB2EB0C0200FA0CF0AABF00EBC2509E
S214081A2052421843BCBFD0401843704792F0000F8C
S214081A3081F4000106BF80F400000132013BB5E7DF
S214081A404FEA41037FEA226C18BF7FEA236C21D055
S214081A5092EA030F04D092F0000F08BF08467047BA
S214081A6090EA010F1CBF0020704712F07F4F04D188
S214081A70400028BF40F00040704712F100723CBF9B
S214081A8000F50000704700F0004343F0FE4040F4C5
S214081A90000070477FEA226216BF08467FEA236383
S214081AA00146420206BF5FEA412390EA010F40F46E
S214081AB0800070474FF0000304E000BF10F00043BA
S214081AC048BF40425FEA000C08BF704743F09643A1
S214081AD001464FF000001CE050EA010208BF7047BC
S214081AE04FF000030AE000BF50EA010208BF704743
S214081AF011F0004302D5404261EB41015FEA010C58
S214081B0002BF84460146002043F0B64308BFA3F14F
S214081B108053A3F50003BCFA8CF2083AA3EBC25331
S214081B2010DB01FA02FC634400FA02FCC2F1200250
S214081B30BCF1004F20FA02F243EB020008BF20F087
S214081B400100704702F1200201FA02FCC2F12002ED
S214081B5050EA4C0021FA02F243EB020008BF20EAE2
S214081B60DC7070474FF0FF0C1CEAD0521EBF1CEA10
S214081B70D15392EA0C0F93EA0C0F6FD01A4480EAFE
S214081B80010C400218BF5FEA41211ED04FF00063E7
S214081B9043EA501043EA5111A0FB01310CF0004013
S214081BA0B1F5000F3EBF490041EAD3715B0040EA39
S214081BB0010062F17F02FD2A1DD8B3F1004F40EB09
S214081BC0C25008BF20F00100704790F0000F0CF0DC
S214081BD0004C08BF49024CEA502040EA51207F3AA0
S214081BE0C2BFD2F1FF0340EAC250704740F400007B
S214081BF04FF00003013A5DDC12F1190FDCBF00F06C
S214081C0000407047C2F10002410021FA02F1C2F119
S214081C10200200FA02FC5FEA310040F1000053EAB5
S214081C204C0308BF20EADC70704792F0000F00F003
S214081C30004C02BF400010F4000F013AF9D040EA09
S214081C400C0093F0000F01F0004C02BF490011F49D
S214081C50000F013BF9D041EA0C018FE70CEAD1539B
S214081C6092EA0C0F18BF93EA0C0F0AD030F0004C1B
S214081C7018BF31F0004CD8D180EA010000F00040CF
S214081C80704790F0000F17BF90F0004F084691F08D
S214081C90000F91F0004F14D092EA0C0F01D14202C7
S214081CA00FD193EA0C0F03D14B0218BF084608D190
S214081CB080EA010000F0004040F0FE4040F40000DA
S214081CC0704740F0FE4040F4400070474FF0FF0C6D
S214081CD01CEAD0521EBF1CEAD15392EA0C0F93EAB4
S214081CE00C0F69D0A2EB030280EA010C49024FEA06
S214081CF0402037D04FF0805343EA111143EA1013BF
S214081D000CF000408B4238BF5B0042F17D024FF476
S214081D10000C8B4224BF5B1A40EA0C00B3EB510F51
S214081D2024BFA3EB510340EA5C00B3EB910F24BF3A
S214081D30A3EB910340EA9C00B3EBD10F24BFA3EBBF
S214081D40D10340EADC001B0118BF5FEA1C1CE0D187
S214081D50FD2A3FF650AF8B4240EBC25008BF20F03A
S214081D60010070470CF0004C4CEA50207F32C2BF8E
S214081D70D2F1FF0340EAC250704740F400004FF02B
S214081D800003013A37E792F0000F00F0004C02BF5C
S214081D90400010F4000F013AF9D040EA0C0093F026
S214081DA0000F01F0004C02BF490011F4000F013B80
S214081DB0F9D041EA0C0195E70CEAD15392EA0C0FE8
S214081DC008D142027FF47DAF93EA0C0F7FF470AF20
S214081DD0084676E793EA0C0F04D14B023FF44CAF63
S214081DE008466EE730F0004C18BF31F0004CCAD1F8
S214081DF030F000427FF45CAF31F000437FF43CAF34
S214081E005FE700BF4FF0FF3C06E000BF4FF0010C55
S214081E1002E000BF4FF0010C4DF804CD4FEA400237
S214081E204FEA41037FEA226C18BF7FEA236C11D081
S214081E3001B052EA530C18BF90EA010F58BFB2EB34
S214081E40030088BFC81738BF6FEAE17018BF40F0B4
S214081E50010070477FEA226C02D15FEA402C05D168
S214081E607FEA236CE4D15FEA412CE1D05DF8040BED
S214081E70704700BF844608466146FFE70FB5FFF780
S214081E80C9FF002848BF10F1000F0FBD4DF808ED38
S214081E90FFF7F4FF0CBF012000205DF808FB00BF29
S214081EA04DF808EDFFF7EAFF34BF012000205DF883
S214081EB008FB00BF4DF808EDFFF7E0FF94BF0120D0
S214081EC000205DF808FB00BF4DF808EDFFF7D2FFCD
S214081ED094BF012000205DF808FB00BF4DF808ED10
S214081EE0FFF7C8FF34BF012000205DF808FB00BFDD
S214081EF04FEA4002B2F1FE4F0FD34FF09E03B3EB0A
S214081F0012620DD94FEA002343F0004310F0004F49
S214081F1023FA02F018BF404270474FF0000070479F
S214081F2012F1610F01D1420205D110F0004008BF3E
S214081F306FF0004070474FF00000704742000ED226
S214081F40B2F1FE4F0BD34FF09E03B3EB126209D4E7
S214081F504FEA002343F0004323FA02F070474FF09D
S214081F600000704712F1610F01D1420202D14FF012
S214081F70FF3070474FF00000704700BF70B50F4E37
S214081F800F4D761BB61018BF002405D0013455F83F
S214081F90043B9847A642F9D10A4E0B4D00F0F8F8D4
S214081FA0761BB61018BF002406D0013455F8043B3B
S214081FB09847A642F9D170BD70BD00BF9C210800A5
S214081FC09C210800A42108009C210800024B13B19C
S214081FD0024800F005B8704700000000ED1F080032
S214081FE0002301461A46184600F01EB838B50A4CB3
S214081FF00A4D641BA4100AD004F18043013B05EB8C
S2140820008305013C55F804399847002CF9D1BDE8FA
S214082010384000F0C7B800BFB4210800B021080057
S214082020704700BF704700BF2DE9F8432C4D0646A1
S214082030286898460F469146FFF7F2FF294B1C681A
S214082040D4F84831002B3ED05A681F2A1CDC02F10F
S214082050010E76B1012103EB8204C4F88890D3F808
S214082060880191400843022EC3F88801C4F8088105
S21408207023D00232C3F804E0286843F82270FFF73A
S214082080D1FF0020BDE8F883174B0BB34FF4C87098
S214082090AFF300800346D8B10020D4F848114FF0BB
S2140820A0010E586019600246C4F84831C3F8880122
S2140820B0C3F88C01002EDCD0CCE7D3F88C010143A2
S2140820C0C3F88C11D5E704F5A673C4F84831BBE706
S2140820D02868FFF7A7FF4FF0FF30BDE8F88300BF7A
S2140820E0300400208C2108000000000043414E30D8
S2140820F0206D6573736167652061727269766564C1
S21408210020696E206E6F6E2D75736564206D61692B
S2140821106C626F780A0D000053434F5245205641B3
S2140821204C55453A2025640A0D000000286E756C4B
S2140821306C2900004552524F523A20647574792033
S2140821406379636C6520746F6F206C6F770000008E
S2140821504552524F523A2064757479206379636CFD
S2140821606520746F6F206869676800004552523AA8
S2140821702055415254205258206275666665722072
S21408218069732066756C6C0A0D0000000800002054
S214082190F8B500BFF8BC08BC9E467047CD1F0800BF
S2140821A019010800F8B500BFF8BC08BC9E46704781
S2080821B0F500080021
S2140821B400093D000000000000000000F4020020B2
S2140821C45C030020C4030020000000000000000098
S2140821D400000000000000000000000000000000EE
S2140821E400000000000000000000000000000000DE
S2140821F400000000000000000000000000000000CE
S21408220400000000000000000000000000000000BD
S21408221400000000000000000000000000000000AD
S214082224000000000000000000000000000000009D
S214082234000000000000000000000000000000008D
S214082244000000000000000000000000000000007D
S214082254000000000000000000000000000000006D
S21408226401000000000000000E33CDAB34126DE60A
S214082274ECDE05000B000000000000000000000073
S214082284000000000000000000000000000000003D
S214082294000000000000000000000000000000002D
S2140822A4000000000000000000000000000000001D
S2140822B4000000000000000000000000000000000D
S2080825E4D0040020F2
S804080000F3
