:100000000C94CB010C943C020C94E8010C94E80194
:100010000C94E8010C94E8010C94E8010C94E801BC
:100020000C94E8010C94E8010C94E8010C94E801AC
:100030000C94E8010C94E8010C94E8010C94E8019C
:100040000C94E8010C94E8010C94E8010C94E8018C
:100050000C94E8010C94E8010C94E8010C94E8017C
:100060000C94E8010C94E8010C94E8010C94E8016C
:10007000084AD73B3BCE016E84BCBFFDC12F3D6C0F
:1000800074319ABD56833DDA3D00C77F11BED9E475
:10009000BB4C3E916BAAAABE000000803F0000004E
:1000A00000000000000000065F5F0600000000077F
:1000B000070007070000147F7F147F7F1400242EA1
:1000C0006B6B3A120000466630180C666200307A9C
:1000D0004F5D377A48000407030000000000001C51
:1000E0003E63410000000041633E1C000000082AFE
:1000F0003E1C1C3E2A0808083E3E0808000000A0DE
:10010000E06000000000080808080808000000007F
:100110006060000000006030180C060301003E7FA4
:10012000594D7F3E000042427F7F40400000627395
:1001300059496F660000226349497F360000181C48
:1001400016137F7F1000276745457D3900003C7EF0
:100150004B4979300000036371190F070000367FA7
:1001600049497F360000064F49693F1E00000000E4
:100170006C6C0000000000A0EC6C00000000081C8B
:1001800036634100000014141414141400000041DC
:1001900063361C080000020351590F0600003E7F21
:1001A000415D5D1F1E007C7E13137E7C0000417F3D
:1001B0007F49497F36001C3E634141632200417FF5
:1001C0007F41637F1C00417F7F495D416300417F28
:1001D0007F491D0103001C3E6341517372007F7F04
:1001E00008087F7F000000417F7F410000003070E1
:1001F00040417F3F0100417F7F081C776300417FC2
:100200007F41406070007F7F060C067F7F007F7F0C
:10021000060C187F7F001C3E6341633E1C00417F3B
:100220007F49090F06001E3F21717F5E0000417F5C
:100230007F19396F460026674D597B320000034114
:100240007F7F410300007F7F40407F7F00001F3F92
:1002500060603F1F00007F7F3018307F7F00637732
:100260001C081C776300074F78784F0700006773FE
:10027000594D47637100007F7F4141000000010339
:10028000060C183060000041417F7F000000080C20
:100290000603060C0800808080808080808000003B
:1002A000030704000000207454543C784000413F90
:1002B0007F44447C3800387C44446C28000030780B
:1002C00048493F7F4000387C54545C180000487E09
:1002D0007F490302000098BCA4A4F87C0400417F7D
:1002E0007F08047C780000447D7D4000000040C40D
:1002F00084FD7D000000417F7F10386C4400004188
:100300007F7F400000007C7C0C180C7C78007C7C9B
:1003100004047C780000387C44447C38000084FC71
:10032000F8A4243C1800183C24A4F8FC8400447C65
:1003300078441C180000485C5454742400000004E5
:100340003E7F442400003C7C40403C7C40001C3C00
:1003500060603C1C00003C7C6030607C3C00446C75
:100360003810386C44009CBCA0A0FC7C00004C649D
:10037000745C4C64000008083E77414100000000B6
:100380000077770000004141773E08080000020333
:1003900001030203010011241FBECFEFD4E0DEBF32
:1003A000CDBF12E0A0E0B1E0E6E3F4E202C00590C8
:1003B0000D92A635B107D9F722E0A6E5B2E001C05B
:1003C0001D92A23FB207E1F70E94BD090C941912D9
:1003D0000C9400008068E1E0F4E1808386EF8A9568
:1003E000F1F780810895E1E0F4E120E8208326EF31
:1003F0002A95F1F7208130E0DC012D933C9321E830
:100400002083B6EFBA95F1F7208130E0FC01338309
:1004100022830895B89A83B7886083BF83B78061C9
:1004200083BF83B7816083BF81E081BF0895CF938D
:10043000C82FF89485B7826085BF85B78E7F85BF4A
:100440008BB780648BBF789480E80E94770361E06B
:100450008BE20E943E0361E88AE20E943E036DEA5D
:1004600089E20E943E0365E088E20E943E038C2FF1
:100470000E945403CF9108951F920F920FB60F92CE
:1004800011248F939F9381E090E090935702809383
:1004900056029F918F910F900FBE0F901F9018954D
:1004A0000F931F93CF93DF938C01FC01C081D18107
:1004B0006C2F6295660F607E82E30E943E03BE0150
:1004C00076956795769567957695679581E30E9411
:1004D0003E03F801628185E30E943E03F8018281B8
:1004E000882371F0C0E0F801EC0FF11D638186E311
:1004F0008C0F0E943E03CF5FF8018281C81798F3EA
:1005000080E00E94C003DF91CF911F910F91089569
:100510009F92AF92BF92CF92DF92EF92FF920F9392
:100520001F93CF93DF93CDB7DEB72B970FB6F89419
:10053000DEBF0FBECDBF5C0181E60E945903C82E0D
:10054000D12C82E60E945903DC2CCC24807EC80E7C
:10055000D11C85E60E9459038F70982E81F07E0190
:1005600084E0E80EF11C06E6090D16E6812F0E94D4
:100570005903F70181937F011F5F1013F7CFDA82D0
:10058000C9829B828BE0FE013196D50101900D92CC
:100590008A95E1F7C5012B960FB6F894DEBF0FBE22
:1005A000CDBFDF91CF911F910F91FF90EF90DF9022
:1005B000CF90BF90AF909F900895CF93DF93EC01C1
:1005C0008091560290915702892B61F0CE010E94D2
:1005D0008802109257021092560240E061E08CE2CD
:1005E0000E94A403CE01DF91CF910895EF92FF9274
:1005F0000F931F93CF93DF93CDB7DEB72B970FB633
:10060000F894DEBF0FBECDBF8EED92E00E94F107E1
:1006100082E00E94EA01E82EEEEDF2E0808168942B
:10062000FF24F7F8F80E0281005882E00E94A90921
:10063000182F0E94E3082FEF30E03A832983FC82D1
:100640000D83880F180F1E83EF8284E08B83CE0109
:1006500001960E9450022B960FB6F894DEBF0FBE93
:10066000CDBFDF91CF911F910F91FF90EF90089533
:10067000811102C0C4980895C49A0895CF93DF935E
:10068000D82FC62F80E00E94380382E00E940E0A15
:100690008D2F0E940E0A8C2F0E940E0A81E00E946C
:1006A0003803DF91CF910895682F8FE00E943E03B9
:1006B0000895CF93C82F80E00E94380383E00E9402
:1006C0000E0A8C2F0E940E0A0E94120AC82F81E087
:1006D0000E9438038C2FCF91089580E00E94380348
:1006E00080EC0E940E0A81E00E9438030895CF93A7
:1006F000C82F0E94170A0E946D0380E80E945403CD
:100700008FEF9FE80197F1F700C000008EE00E9494
:100710005903807E803831F08AE291E00E94CD0D4D
:1007200081E010C08C2F0E9454038EE00E94590378
:10073000807E8C1731F08CE591E00E94CD0D81E038
:1007400001C080E0CF9108951F93CF93DF93182FBE
:10075000D62FC42F80E00E94380385E00E940E0A45
:10076000812F0E940E0A8D2F0E940E0A8C2F0E944C
:100770000E0A81E00E943803DF91CF911F91089506
:10078000CF93C82F80E00E943803C13041F018F0A9
:10079000C23049F00CC081E80E940E0A0BC082E80A
:1007A0000E940E0A07C084E80E940E0A03C087E870
:1007B0000E940E0A81E00E943803CF910895329A78
:1007C00080E28FBD82E18EBD0895CF92DF92EF92DD
:1007D000FF920F931F93CF93DF93EC0180E197E299
:1007E000689F9001699F300D1124042F10E00F2E97
:1007F000F4E6CF2ED12CF02D6894EE24E5F8F12C00
:100800002DC0049FC001059F900D149F900D1124D1
:10081000998388836A817B8124968130910519F4BC
:1008200019BC18BC04C0D9BCC8BC95BD84BDC701E7
:100830000E94180D161617066CF010C0F9013197BA
:10084000F1F70197D9F74F5F842F90E0861797074C
:1008500014F004C040E085E090E0F0CF4881598179
:100860004115510571F619BC18BCDF91CF911F914C
:100870000F91FF90EF90DF90CF9008958093E20268
:1008800087708055E0910801F091090180830895F7
:100890008093E302982F9F70E0910801F091090185
:1008A000908382958F70805FE0910801F09109013B
:1008B000808308958055E0910801F09109018083BB
:1008C0000895CF93C62F0E943E048C2F0E944804A7
:1008D000CF91089560E080E00E94610408951F9325
:1008E000CF93DF9310E0C6EAD0E0812F0E945A0434
:1008F00090E00DC08491A0910601B09107018C9306
:100900003196EC17FD07B1F79F5F903819F0EEE9CB
:10091000F0E0F0CF1F5F183041F70E946A04DF91CA
:10092000CF911F910895E0910801F09109018EEA9D
:100930008083E0910801F091090181EA8083E091D0
:100940000801F09109018AED8083E0910801F0919E
:10095000090182E18083E0910801F091090188ECAE
:100960008083E0910801F091090188EA8083E09199
:100970000801F09109018FE38083E0910801F09173
:10098000090185ED8083E0910801F091090180E87B
:100990008083E0910801F091090181E88083E09172
:1009A0000801F091090180E58083E0910801F09150
:1009B000090189ED8083E0910801F091090181E24C
:1009C0008083E0910801F091090180E28083E09149
:1009D0000801F091090182E08083E0910801F09123
:1009E00009018BED8083E0910801F091090180E31A
:1009F0008083E0910801F09109018DEA8083E09104
:100A00000801F09109011082E0910801F0910901BB
:100A100084EA8083E0910801F091090186EA8083ED
:100A2000E0910801F09109018FEA80830E946F0430
:100A30000E946A040895282F30E0F901EE0FFF1F8D
:100A4000EE0FFF1FEE0FFF1FE256F040220F331F85
:100A5000220F331F220F331F2A5530409491A0914B
:100A60000601B09107019C933196E217F307B1F7A5
:100A700008950F931F93CF93DF93FC010190002003
:100A8000E9F73197E81BF90B1E161F0654F4EC0129
:100A90008C010E0F1F1F89910E941B05C017D107E3
:100AA000D1F7DF91CF911F910F9108950E946104BA
:100AB000E0910601F091070188E18083E091060151
:100AC000F09107018083E0910601F09107019EE714
:100AD0009083E0910601F09107019CE39083E091FF
:100AE0000601F091070180830895CF92DF92EF9283
:100AF000FF920F931F93CF93DF93EC0169017983EA
:100B00006883BA0146960E94400DDD8ACC8AFB8A32
:100B1000EA8AA02FB12FFE013296CE0142962D9186
:100B20003D9121933193E817F907C9F7DF91CF91F0
:100B30001F910F91FF90EF90DF90CF900895DC010F
:100B4000ED91FC911197208131812115310511F032
:100B50002D933C930895FC01A081B181FB01EE0F20
:100B6000FF1FEA0FFB1F208131812115310521F084
:100B7000FC013183208308955496ED91FC915597A3
:100B8000309709F0099508950E94E308843029F40C
:100B900082E00E94A9098823B9F30E94E308823009
:100BA00099F00E94E308833079F00E94E3088130D5
:100BB00059F00E94E308882339F082E00E94A909D5
:100BC000811101C0089585E008950E94E3088430F2
:100BD000E1F708956F5F7F4FFC0182899389019649
:100BE0006817790711F461E070E0CB010895209156
:100BF000E6023091E702821793078CF04091E402FD
:100C00005091E5025093D9024093D8023093E50207
:100C10002093E4029093E7028093E60208952091E6
:100C2000E4023091E502281739074CF43093D902D9
:100C30002093D8029093E5028093E40208958217EE
:100C400093075CF42091D8023091D9022817390714
:100C500024F49093D9028093D8020895CF93DF9320
:100C6000CDB7DEB766970FB6F894DEBF0FBECDBF27
:100C7000CE010C960E94DD02CE010C960E94DD0290
:100C80000E94F602CE0101960E94DD028C818B3A11
:100C9000B9F71F928F9387E991E09F938F930E94FA
:100CA000B70D8D8190E00E94F7050F900F900F9087
:100CB0000F9066960FB6F894DEBF0FBECDBFDF91E2
:100CC000CF91089565E081500E94560508950F93D5
:100CD0001F93CF93DF93CDB7DEB72B970FB6F89462
:100CE000DEBF0FBECDBF8C0185E0EAEAF1E0DE0198
:100CF000119601900D928A95E1F786E0EFEAF1E016
:100D0000DE01169601900D928A95E1F76CE080E085
:100D10000E946104CE0101960E9439056CE081E0D9
:100D20000E946104CE0106960E943905C8010E9406
:100D300062062B960FB6F894DEBF0FBECDBFDF91D3
:100D4000CF911F910F9108950F931F93CF93DF932E
:100D5000CDB7DEB72B970FB6F894DEBF0FBECDBF71
:100D60008C018BE0E5EBF1E0DE01119601900D9234
:100D70008A95E1F76CE080E00E946104CE01019663
:100D80000E943905C8010E9462062B960FB6F8949E
:100D9000DEBF0FBECDBFDF91CF911F910F910895A0
:100DA0000F931F93CF93DF93CDB7DEB7E7970FB6BF
:100DB000F894DEBF0FBECDBF8C018AE0E2EDF1E01A
:100DC000DE01119601900D928A95E1F74AE0BE018D
:100DD000655F7F4F8091E6029091E7020E94470D88
:100DE0004AE0BE01665E7F4F8091E4029091E50289
:100DF0000E94470D4AE0BE01675D7F4F8091D80297
:100E00009091D9020E94470D6CE080E00E9461043D
:100E1000CE0101960E9439056CE082E00E946104D7
:100E200080EC91E00E943905CE010B960E943905B5
:100E30006CE084E00E94610486EC91E00E94390538
:100E4000CE014A960E9439056CE086E00E9461045A
:100E50008CEC91E00E943905CE0189960E943905FB
:100E6000C8010E946206E7960FB6F894DEBF0FBE77
:100E7000CDBFDF91CF911F910F910895FC0187891C
:100E8000813621F4CB010E94670608958C3621F447
:100E9000CB010E94A4060895883619F4CB010E9464
:100EA000D0060895CF93DF93CDB7DEB7E0970FB6A6
:100EB000F894DEBF0FBECDBF8CEA92E09093D702CC
:100EC0008093D60280E1EAE1F1E0DE011196019023
:100ED0000D928A95E1F780E15E0191E1A90EB11CC6
:100EE000F501982F11929A95E9F76E01E1E2CE0E85
:100EF000D11CF60111928A95E9F76894EE24E1F885
:100F0000F12C8E010F5F1F4F20E030E04CED51E0DF
:100F100060E070E08CEA92E00E947505EE24E394B4
:100F2000F12C85012EE236E046EE51E06CEA72E0EB
:100F300082E892E00E9475056894EE24E3F8F12CB3
:100F4000860120E030E040EF51E06CEA72E088E595
:100F500092E00E94750561E070E08091D602909168
:100F6000D7020E943E07EE24E394F12C0E94C405B0
:100F7000182F0E946F04113011F1C8F0123019F0CF
:100F8000133061F024C0F1E0EF1AF10801F5E091AF
:100F9000D602F091D702E288F38819C0B701809198
:100FA000D6029091D7020E94EA057C0110C086ED1E
:100FB00092E00E949F05EE24E394F12C08C0B70153
:100FC00086ED92E00E94AB05EE24E394F12CB7018C
:100FD0008091D6029091D7020E943E070E94E505BB
:100FE000C5CF8F929F92AF92BF92CF92DF92EF9236
:100FF000FF920F931F93CF93DF937C0180E00E94B9
:10100000EA01C82FD0E081E00E94EA01682F70E079
:101010000091DA021091DB02C80144976817790742
:101020000CF4B6C08896861797070CF04CC0601B6E
:10103000710B072E000C880B990B0E94C30B20E04C
:1010400030E048EC52E40E94A70C4B015C01B8016F
:10105000110F880B990B0E94C30B9B01AC0160E040
:1010600070E08FE793E40E94350A9B01AC01C50153
:10107000B4010E94190B0E948B0B6B0126C0072E36
:10108000000C880B990B0E94C30B4B015C01B8014B
:10109000110F880B990B0E94C30B9B01AC01C5017A
:1010A000B4010E94190B20E030E048EC52E40E94A9
:1010B000A70C20E030E048EC52E40E94350A0E9480
:1010C0008B0B6B0102C0C12CD12C0091DC02109162
:1010D000DD02C80180559109C817D9070CF45FC01B
:1010E00080569F4F8C179D070CF04AC0C01BD10B38
:1010F000BE01DD0F880B990B0E94C30B20E030E08E
:1011000048EC52E40E94A70C4B015C01B801110F9E
:10111000880B990B0E94C30B9B01AC0160E070E04F
:101120008FE793E40E94350A9B01AC01C501B4012D
:101130000E94190B0E948B0B25C0BE01DD0F880B8E
:10114000990B0E94C30B4B015C01B801110F880B76
:10115000990B0E94C30B9B01AC01C501B4010E9415
:10116000190B20E030E048EC52E40E94A70C20E08C
:1011700030E048EC52E40E94350A0E948B0B02C01A
:1011800060E070E0F701D182C082738362830EC099
:10119000C8014496861797070CF449CF70CFC80151
:1011A000805B9F4F8C179D0744F6A0CFDF91CF91B6
:1011B0001F910F91FF90EF90DF90CF90BF90AF9075
:1011C0009F908F9008958F929F92AF92BF92CF92EF
:1011D000DF92EF92FF92CF93DF938EED92E00E9429
:1011E000F107EEEDF2E0E080F180C281D381B7013A
:1011F0000F2C000C880B990B0E94C30B4B015C0158
:10120000BE010D2E000C880B990B0E94C30BA5018B
:1012100094010E94B50A21E0CD2B09F020E02223A1
:1012200031F021E0EF2809F020E0211179C00E947F
:101230008B0B072E000C880B990B0E94C30B6B01C4
:101240007C01C1E02BED3FE049E45FEB0E949A0C8A
:1012500088230CF4C0E0CC2371F0C1E02BED3FE01B
:1012600049E45FE3C701B6010E94140B18160CF4A1
:10127000C0E0C11157C0C1E024EE3BEC46E150ECA8
:10128000C701B6010E949A0C88230CF4C0E0CC235D
:1012900071F0C1E02BED3FE049E45FEBC701B6011F
:1012A0000E94140B18160CF4C0E0C1113DC0C1E03F
:1012B00024EE3BEC46E150E4C701B6010E949A0CD3
:1012C00088230CF4C0E0C11131C0C1E024EE3BEC36
:1012D00046E150ECC701B6010E94140B18160CF43D
:1012E000C0E0C11123C0C1E02BED3FE049E45FE362
:1012F000C701B6010E949A0C88230CF4C0E0CC23ED
:1013000071F0C1E024EE3BEC46E150E4C701B601C8
:101310000E94140B18160CF4C0E0C11109C009C0DA
:1013200084E007C081E005C083E003C080E001C025
:1013300082E0DF91CF91FF90EF90DF90CF90BF9050
:10134000AF909F908F900895B9988C988D98C19A7E
:101350000895813019F480B380710895811103C01C
:1013600080B380720895823031F486B3869581709F
:1013700091E08927089580E008950E94DF0342E00C
:1013800061E08AE091E00E94E5030E941E0A0E944B
:101390000A020E94250A6DE27AE081E39AE00E9447
:1013A0006C0D8AED92E00E94F3010E9493040E946A
:1013B000A4090E946F0480E00E9417020E94520755
:1013C0008BEF91E09F938F930E94B70D0F900F903A
:1013D000CEEDD2E000E112E00E94F60283E00E942E
:1013E000EA01F82E82E00E94EA011F928F931F9279
:1013F000FF928B818F938A818F9389818F938881CC
:101400008F931F930F930E94B70D8DB79EB70A96C7
:101410000FB6F8949EBF0FBE8DBFDECF8FB9779BFE
:10142000FECF089586E50E940E0A8FB1089587B316
:10143000806B87BB8DB181658DB9089585B7806854
:1014400085BF80B7806280BF08958FE189B910BCE5
:1014500088E18AB98EE880BD08955F9BFECF8CB18C
:1014600008955D9BFECF8CB908955058BB27AA27DD
:101470000E944D0A0C94600C0E94520C38F00E949D
:10148000590C20F039F49F3F19F426F40C94280CE1
:101490000EF4E095E7FB0C94220CE92F0E94710CEE
:1014A00058F3BA17620773078407950720F079F499
:1014B000A6F50C94930C0EF4E0950B2EBA2FA02DEC
:1014C0000B01B90190010C01CA01A0011124FF27F1
:1014D000591B99F0593F50F4503E68F11A16F040EC
:1014E000A22F232F342F4427585FF3CF46953795EB
:1014F0002795A795F0405395C9F77EF41F16BA0BB0
:10150000620B730B840BBAF09150A1F0FF0FBB1F5D
:10151000661F771F881FC2F70EC0BA0F621F731FA6
:10152000841F48F4879577956795B795F7959E3F03
:1015300008F0B0CF9395880F08F09927EE0F979594
:10154000879508950E94520C60F080E891E009F4BC
:101550009EEF0E94590C28F040E851E071F45EEFD4
:101560000CC00C94280C0C94930CE92FE0780E948A
:10157000710C40F3092E052AB1F3261737074807E7
:10158000590738F00E2E07F8E02569F0E025E064F1
:101590000AC0EF6307F8009407FADB01B9019D0167
:1015A000DC01CA01AD01EF930E94300B0E94600C78
:1015B0000E94E50A5F91552339F02BED3FE049E4A5
:1015C00050FD49EC0C94360A0895DF93DD27B92FBE
:1015D000BF7740E85FE31616170648075B0718F465
:1015E000D92F0E949F0C9F938F937F936F930E949C
:1015F000140DE0E7F0E00E942B0C0E94600C2F918C
:101600003F914F915F910E94BA0CDD2351F09058A9
:10161000A2EA2AED3FE049EC5FE3D0785D270E9423
:101620004D0ADF910C94600C0E94FE0B08F481E0DF
:1016300008950E942D0B0C94600C0E94590C58F0D8
:101640000E94520C40F029F45F3F29F00C94220CC8
:1016500051110C94940C0C94280C0E94710C68F39A
:101660009923B1F3552391F3951B550BBB27AA275B
:1016700062177307840738F09F5F5F4F220F331F95
:10168000441FAA1FA9F335D00E2E3AF0E0E832D05D
:1016900091505040E695001CCAF72BD0FE2F29D060
:1016A000660F771F881FBB1F261737074807AB0732
:1016B000B0E809F0BB0B802DBF01FF2793585F4FA7
:1016C0003AF09E3F510578F00C94220C0C94940C47
:1016D0005F3FE4F3983ED4F3869577956795B79589
:1016E000F7959F5FC9F7880F911D9695879597F994
:1016F0000895E1E0660F771F881FBB1F621773070D
:101700008407BA0720F0621B730B840BBA0BEE1F21
:1017100088F7E09508950E94920B6894B1110C949B
:10172000940C08950E94790C88F09F5798F0B92F77
:101730009927B751B0F0E1F0660F771F881F991F06
:101740001AF0BA95C9F714C0B13091F00E94930C09
:10175000B1E008950C94930C672F782F8827B85F19
:1017600039F0B93FCCF3869577956795B395D9F75E
:101770003EF490958095709561957F4F8F4F9F4F68
:101780000895E89409C097FB3EF490958095709574
:1017900061957F4F8F4F9F4F9923A9F0F92F96E9BD
:1017A000BB279395F695879577956795B795F11132
:1017B000F8CFFAF4BB0F11F460FF1BC06F5F7F4FCF
:1017C0008F4F9F4F16C0882311F096E911C07723E1
:1017D00021F09EE8872F762F05C0662371F096E8EA
:1017E000862F70E060E02AF09A95660F771F881FB9
:1017F000DAF7880F9695879597F90895990F00085D
:10180000550FAA0BE0E8FEEF16161706E807F907D2
:10181000C0F012161306E407F50798F0621B730B6D
:10182000840B950B39F40A2661F0232B242B252BEE
:1018300021F408950A2609F4A140A6958FEF811D91
:10184000811D089597F99F6780E870E060E0089532
:101850009FEF80EC0895DF93CF931F930F93FF9238
:10186000EF92DF927B018C01689406C0DA2EEF01C3
:101870000E94BA0CFE01E894A591259135914591FD
:101880005591A6F3EF010E944D0AFE019701A801B0
:10189000DA9469F7DF90EF90FF900F911F91CF914D
:1018A000DF91089500240A941616170618060906F3
:1018B000089500240A9412161306140605060895C6
:1018C000092E0394000C11F4882352F0BB0F40F44E
:1018D000BF2B11F460FF04C06F5F7F4F8F4F9F4F8E
:1018E000089557FD9058440F551F59F05F3F71F010
:1018F0004795880F97FB991F61F09F3F79F0879577
:101900000895121613061406551FF2CF4695F1DFFF
:1019100008C0161617061806991FF1CF869571058F
:10192000610508940895E894BB2766277727CB01C3
:1019300097F908950E94FE0B08F48FEF08959B011C
:10194000AC0160E070E080E89FE30C94190B0E940A
:10195000BA0C0C94600C0E94520C38F00E94590C86
:1019600020F0952311F00C94220C0C94280C1124D7
:101970000C94940C0E94710C70F3959FC1F3950F19
:1019800050E0551F629FF001729FBB27F00DB11D03
:10199000639FAA27F00DB11DAA1F649F6627B00D93
:1019A000A11D661F829F2227B00DA11D621F739F7C
:1019B000B00DA11D621F839FA00D611D221F749F8A
:1019C0003327A00D611D231F849F600D211D822FD1
:1019D000762F6A2F11249F5750409AF0F1F08823F8
:1019E0004AF0EE0FFF1FBB1F661F771F881F915025
:1019F0005040A9F79E3F510580F00C94220C0C94A6
:101A0000940C5F3FE4F3983ED4F386957795679501
:101A1000B795F795E7959F5FC1F7FE2B880F911D4E
:101A20009695879597F908959B01AC010C94A70CA6
:101A300097FB072E16F4009407D077FD09D00E947B
:101A40002C0D07FC05D03EF4909581959F4F08958D
:101A5000709561957F4F0895AA1BBB1B51E107C08C
:101A6000AA1FBB1FA617B70710F0A61BB70B881F2E
:101A7000991F5A95A9F780959095BC01CD010895BD
:101A8000FB01DC0101900D920020E1F70895BB27D6
:101A90004A3031F4992322F4BDE2909581959F4F0D
:101AA0000C94530DBB27FB015527AA27880F991FBC
:101AB000AA1FA41710F0A41B83955051B9F7A05D7D
:101AC000AA3308F0A95DA193009779F7B111B193FA
:101AD0001192CB010C9438110F931F93CF93DF9386
:101AE000009731F46115710519F480E090E03AC077
:101AF0008B01EC016EE070E081E090E00E94DE0F6F
:101B0000FC01892B91F380E883830115110571F0A5
:101B10001387028781E883838091E8029091E9022C
:101B2000892B21F4F093E902E093E8022097C9F0B1
:101B3000D187C0878381826083838091EA029091FC
:101B4000EB02892B71F4F093EB02E093EA028091AF
:101B5000EC029091ED02892B21F4F093ED02E093D9
:101B6000EC02CF01DF91CF911F910F910895A0E07A
:101B7000B0E0EDEBFDE00C94F211AE014B5F5F4F76
:101B8000FA0161917191AF018091EA029091EB02AB
:101B90000E94FD0DE2E00C940E120F931F93CF9361
:101BA000DF93E091EA02F091EB02238121FF1BC059
:101BB0008C01D0E0C0E0F80181918F016091EA02D0
:101BC0007091EB02DB011896ED91FC911997882337
:101BD00031F00995892B79F3DFEFCFEFECCF8AE075
:101BE0000995892B19F08FEF9FEF02C08D2F9C2F45
:101BF000DF91CF911F910F910895ABE0B0E0E3E04A
:101C0000FEE00C94E2116C017B018A01FC01178259
:101C10001682838181FFCCC1CE0101963C01F60181
:101C20009381F70193FD859193FF81917F01882333
:101C300009F4BAC1853239F493FD859193FF8191FE
:101C40007F01853229F4B60190E00E944811E7CF68
:101C5000912C212C312CFFE1F315D8F08B3279F047
:101C600038F4803279F08332A1F4232D20611DC035
:101C70008D3261F0803369F4232D216016C0832DED
:101C80008260382EE32DE4603E2E2AC0F32DF860EA
:101C90001DC037FC2DC020ED280F2A3040F08E32B9
:101CA000B9F436FC81C1232D2064322E19C036FED2
:101CB00006C08AE0989E200D1124922E11C0EAE001
:101CC0002E9E200D1124222EF32DF0623F2E08C0EF
:101CD0008C3621F4832D8068382E02C0883641F47A
:101CE000F70193FD859193FF81917F018111B3CF1E
:101CF000982F9F7D9554933028F40C5F1F4F9FE3DE
:101D000099830DC0833631F0833771F0833509F044
:101D100059C021C0F801808189830E5F1F4F88243C
:101D20008394912C530113C02801F2E04F0E511CF3
:101D3000F801A080B18036FE03C0692D70E002C0BA
:101D40006FEF7FEFC5010E942D114C018201F32D31
:101D5000FF773F2E16C0280122E0420E511CF801E9
:101D6000A080B18036FE03C0692D70E002C06FEF25
:101D70007FEFC5010E941B114C01F32DF0683F2E2F
:101D8000820133FC1BC0822D90E088169906B0F4C6
:101D9000B60180E290E00E9448112A94F4CFF50148
:101DA00037FC859137FE81915F01B60190E00E947A
:101DB000481121102A9421E0821A9108811491047B
:101DC00071F7E8C0843611F0893641F5F80137FE25
:101DD00007C060817181828193810C5F1F4F08C0B1
:101DE00060817181072E000C880B990B0E5F1F4FCD
:101DF000F32DFF763F2E97FF09C090958095709543
:101E000061957F4F8F4F9F4FF0683F2E2AE030E063
:101E1000A3010E948411882E861845C0853731F4AD
:101E2000232D2F7EB22E2AE030E025C0932D997FFE
:101E3000B92E8F36C1F018F4883579F0B5C08037E7
:101E400019F0883721F0B0C0E92FE061BE2EB4FE52
:101E50000DC0FB2DF460BF2E09C034FE0AC0292F2F
:101E60002660B22E06C028E030E005C020E130E058
:101E700002C020E132E0F801B7FE07C06081718145
:101E8000828193810C5F1F4F06C06081718180E069
:101E900090E00E5F1F4FA3010E948411882E8618C8
:101EA000FB2DFF773F2E36FE0DC0232D2E7FA22E59
:101EB000891458F434FE0BC032FC09C0832D8E7E89
:101EC000A82E05C0B82CA32C03C0B82C01C0B92C77
:101ED000A4FE0FC0FE01E80DF11D8081803321F4C6
:101EE0009A2D997EA92E09C0A2FE06C0B394B39480
:101EF00004C08A2D867809F0B394A3FC11C0A0FE1B
:101F000006C0B21488F4280C922C9B180EC0B21490
:101F100060F4B60180E290E00E944811B394F7CFDC
:101F2000B21418F42B1802C0982C212CA4FE10C057
:101F3000B60180E390E00E944811A2FE17C0A1FC08
:101F400003C088E790E002C088E590E0B6010CC0CD
:101F50008A2D867859F0A1FE02C08BE201C080E292
:101F6000A7FC8DE2B60190E00E944811891438F474
:101F7000B60180E390E00E9448119A94F7CF8A94CA
:101F8000F301E80DF11D8081B60190E00E94481137
:101F90008110F5CF222009F442CEB60180E290E014
:101FA0000E9448112A94F6CFF6018681978102C0DB
:101FB0008FEF9FEF2B96E2E10C94FE110F931F938E
:101FC000CF93DF93869F8001879F100D969F100D02
:101FD0001124C8010E94FA0FEC01009729F0A80112
:101FE00060E070E00E942611CE01DF91CF911F9139
:101FF0000F9108950F931F93CF93DF938230910534
:1020000010F482E090E0E091F002F091F10220E023
:1020100030E0A0E0B0E0309719F1408151810281B9
:10202000138148175907C8F08417950769F410976A
:1020300031F012960C93129713961C9327C00093BD
:10204000F0021093F10222C02115310519F0421758
:10205000530718F49A01BD01EF01DF01F801DBCF4E
:1020600021153105F9F0281B390B2430310580F496
:102070008A819B816115710521F0FB019383828325
:1020800004C09093F1028093F002FE01329644C0A6
:10209000FE01E20FF31F819391932250310939839E
:1020A00028833AC02091EE023091EF02232B41F4B5
:1020B00020910201309103013093EF022093EE0250
:1020C00020910001309101012115310541F42DB716
:1020D0003EB74091040150910501241B350BE0915E
:1020E000EE02F091EF02E217F307A0F42E1B3F0B74
:1020F0002817390778F0AC014E5F5F4F241735077A
:1021000048F04E0F5F1F5093EF024093EE02819311
:10211000919302C0E0E0F0E0CF01DF91CF911F91F9
:102120000F910895CF93DF93009709F481C0FC01CC
:10213000329713821282A091F002B091F1021097AF
:1021400081F420813181820F931F2091EE02309122
:10215000EF022817390751F5F093EF02E093EE02F2
:1021600067C0ED0120E030E0CE17DF0740F44A8180
:102170005B819E0141155105F1F0EA01F5CFD38352
:10218000C28340815181840F951FC817D90759F424
:1021900088819981840F951F0296918380838A811B
:1021A0009B81938382832115310529F4F093F102F9
:1021B000E093F0023DC0E901FB83EA834991599124
:1021C000C40FD51FEC17FD0761F480819181840F46
:1021D000951F0296E90199838883828193819B836D
:1021E0008A83E0E0F0E012968D919C91139700971E
:1021F00019F0FD01DC01F7CF8D919C9111979D01A4
:102200002E5F3F4F820F931F2091EE023091EF021D
:102210002817390769F4309729F41092F1021092C7
:10222000F00202C013821282B093EF02A093EE027A
:10223000DF91CF910895FC0105906150704001102D
:10224000D8F7809590958E0F9F1F0895DC0101C0EF
:102250006D9341505040E0F70895FC01615070408B
:1022600001900110D8F7809590958E0F9F1F0895CB
:10227000DC01FC01672F71917723E1F7329704C0ED
:102280007C916D9370836291AE17BF07C8F3089578
:102290000F931F93CF93DF93FB01238121FD03C095
:1022A0008FEF9FEF2CC022FF16C0468157812481FB
:1022B00035814217530744F4A081B1819D012F5FFE
:1022C0003F4F318320838C93268137812F5F3F4F8F
:1022D0003783268314C08B01EC01FB010084F18558
:1022E000E02D0995892BE1F6D80116968D919C91E8
:1022F0001797019617969C938E931697CE01DF91B0
:10230000CF911F910F910895FA01AA27283051F11A
:10231000203181F1E8946F936E7F6E5F7F4F8F4F16
:102320009F4FAF4FB1E03ED0B4E03CD0670F781F75
:10233000891F9A1FA11D680F791F8A1F911DA11D5A
:102340006A0F711D811D911DA11D20D009F4689493
:102350003F912AE0269F11243019305D3193DEF63B
:10236000CF010895462F4770405D4193B3E00FD0F1
:10237000C9F7F6CF462F4F70405D4A3318F0495DDC
:1023800031FD4052419302D0A9F7EACFB4E0A695BF
:102390009795879577956795BA95C9F700976105E1
:1023A000710508959B01AC010A2E06945795479537
:1023B00037952795BA95C9F7620F731F841F951F2C
:1023C000A01D08952F923F924F925F926F927F923D
:1023D0008F929F92AF92BF92CF92DF92EF92FF9235
:1023E0000F931F93CF93DF93CDB7DEB7CA1BDB0BE1
:1023F0000FB6F894DEBF0FBECDBF09942A88398886
:1024000048885F846E847D848C849B84AA84B9848C
:10241000C884DF80EE80FD800C811B81AA81B98198
:10242000CE0FD11D0FB6F894DEBF0FBECDBFED01AC
:062430000895F894FFCFAF
:102436000000F202200000120010060108009600BB
:1024460008002C01020090010400820258020000DC
:10245600000000000000000000004D4350323531FE
:1024660035206973204E4F5420696E20636F6E6667
:10247600696775726174696F6E206D6F646520613E
:102486006674657220726573657421004D4350321F
:10249600353135206973204E4F5420696E2074689B
:1024A6006520737065636966696564206D6F646530
:1024B60020616674657220696E697469616C697AF7
:1024C6006174696F6E210047616D6553746174753F
:1024D60073446174613A20256400706C617900531D
:1024E600636F72650053746172742067616D650075
:1024F600315354202000324E4420200033524420D1
:102506002000546F702073636F7265004D61696EB1
:10251600206D656E7500506C61792067616D650090
:1025260053686F772073636F726500496E697469CB
:102536006174696E67206E6F64652031200A0D0034
:10254600506F7320582076616C206973202534649F
:10255600202C20506F732059206973202534642C59
:1025660020736C6964657258206973202534642C65
:102576002020736C69646572592069732025346460
:0625860020200A200D00D8
:00000001FF
