S010000054657374596F6C6F2E73726563D1
S11300000C94CB010C9439020C94E8010C94E80193
S11300100C94E8010C94E8010C94E8010C94E801B8
S11300200C94E8010C94E8010C94E8010C94E801A8
S11300300C94E8010C94E8010C94E8010C94E80198
S11300400C94E8010C94E8010C94E8010C94E80188
S11300500C94E8010C94E8010C94E8010C94E80178
S11300600C94E8010C94E8010C94E8010C94E80168
S1130070084AD73B3BCE016E84BCBFFDC12F3D6C0B
S113008074319ABD56833DDA3D00C77F11BED9E471
S1130090BB4C3E916BAAAABE000000803F0000004A
S11300A000000000000000065F5F0600000000077B
S11300B0070007070000147F7F147F7F1400242E9D
S11300C06B6B3A120000466630180C666200307A98
S11300D04F5D377A48000407030000000000001C4D
S11300E03E63410000000041633E1C000000082AFA
S11300F03E1C1C3E2A0808083E3E0808000000A0DA
S1130100E06000000000080808080808000000007B
S11301106060000000006030180C060301003E7FA0
S1130120594D7F3E000042427F7F40400000627391
S113013059496F660000226349497F360000181C44
S113014016137F7F1000276745457D3900003C7EEC
S11301504B4979300000036371190F070000367FA3
S113016049497F360000064F49693F1E00000000E0
S11301706C6C0000000000A0EC6C00000000081C87
S113018036634100000014141414141400000041D8
S113019063361C080000020351590F0600003E7F1D
S11301A0415D5D1F1E007C7E13137E7C0000417F39
S11301B07F49497F36001C3E634141632200417FF1
S11301C07F41637F1C00417F7F495D416300417F24
S11301D07F491D0103001C3E6341517372007F7F00
S11301E008087F7F000000417F7F410000003070DD
S11301F040417F3F0100417F7F081C776300417FBE
S11302007F41406070007F7F060C067F7F007F7F08
S1130210060C187F7F001C3E6341633E1C00417F37
S11302207F49090F06001E3F21717F5E0000417F58
S11302307F19396F460026674D597B320000034110
S11302407F7F410300007F7F40407F7F00001F3F8E
S113025060603F1F00007F7F3018307F7F0063772E
S11302601C081C776300074F78784F0700006773FA
S1130270594D47637100007F7F4141000000010335
S1130280060C183060000041417F7F000000080C1C
S11302900603060C08008080808080808080000037
S11302A0030704000000207454543C784000413F8C
S11302B07F44447C3800387C44446C280000307807
S11302C048493F7F4000387C54545C180000487E05
S11302D07F490302000098BCA4A4F87C0400417F79
S11302E07F08047C780000447D7D4000000040C409
S11302F084FD7D000000417F7F10386C4400004184
S11303007F7F400000007C7C0C180C7C78007C7C97
S113031004047C780000387C44447C38000084FC6D
S1130320F8A4243C1800183C24A4F8FC8400447C61
S113033078441C180000485C5454742400000004E1
S11303403E7F442400003C7C40403C7C40001C3CFC
S113035060603C1C00003C7C6030607C3C00446C71
S11303603810386C44009CBCA0A0FC7C00004C6499
S1130370745C4C64000008083E77414100000000B2
S11303800077770000004141773E0808000002032F
S113039001030203010011241FBECFEFD4E0DEBF2E
S11303A0CDBF11E0A0E0B1E0E8EAFBE102C00590B6
S11303B00D92A839B107D9F721E0A8E9B1E001C04D
S11303C01D92AE3AB207E1F70E94FE050C94D20DDD
S11303D00C9400008068E1E0F4E1808386EF8A9564
S11303E0F1F780810895E1E0F4E120E8208326EF2D
S11303F02A95F1F7208130E0DC012D933C9321E82C
S11304002083B6EFBA95F1F7208130E0FC01338305
S113041022830895B89A83B7886083BF83B78061C5
S113042083BF83B7816083BF81E081BF0895F8945F
S113043085B7826085BF85B78E7F85BF8BB78064A3
S11304408BBF789480E80E94FD0263E08BE20E94F7
S1130450C40261E88AE20E94C4026DEA89E20E9451
S1130460C40265E088E20E94C40280E00E94DA02CD
S113047008951F920F920FB60F9211248F939F939A
S113048081E090E090939901809398019F918F91DE
S11304900F900FBE0F901F9018950F931F93CF933B
S11304A0DF938C01FC01C081D1816C2F6295660FB2
S11304B0607E82E30E94C402BE01769567957695BC
S11304C067957695679581E30E94C402F80162817D
S11304D085E30E94C402F8018281882371F0C0E0A0
S11304E0F801EC0FF11D638186E38C0F0E94C402B6
S11304F0CF5FF8018281C81798F380E00E94390326
S1130500DF91CF911F910F910895FF920F931F9345
S1130510CF93DF93CDB7DEB72B970FB6F894DEBF3A
S11305200FBECDBF8EE991E00E943504EEE9F1E003
S113053080816894FF24F7F8F80E0281005882E065
S11305400E94EA05182F0E9424051A821982FC824F
S11305500D83880F180F1E8383E08B83CE010196D1
S11305600E944D022B960FB6F894DEBF0FBECDBF8E
S1130570DF91CF911F910F91FF900895811102C0D7
S1130580C4980895C49A0895CF93DF93D82FC62FA3
S113059080E00E94BE0282E00E942B068D2F0E9402
S11305A02B068C2F0E942B0681E00E94BE02DF9155
S11305B0CF910895682F8FE00E94C4020895CF93CD
S11305C0C82F80E00E94BE0283E00E942B068C2F7D
S11305D00E942B060E942F06C82F81E00E94BE02B3
S11305E08C2FCF91089580E00E94BE0280EC0E947F
S11305F02B0681E00E94BE020895CF93DF93D82F8B
S11306000E9434060E94F30280E80E94DA028FEF0F
S11306109FE80197F1F700C000008EE00E94DF021E
S1130620C82F1F928F938AE091E09F938F930E942B
S11306308009C07E0F900F900F900F90C03831F05A
S113064086E191E00E94960981E010C08D2F0E94FE
S1130650DA028EE00E94DF02807E8D1731F088E49A
S113066091E00E94960981E001C080E0DF91CF9182
S11306700895CF93C82F80E00E94BE02C13041F09C
S113068018F0C23049F00CC081E80E942B060BC060
S113069082E80E942B0607C084E80E942B0603C050
S11306A087E80E942B0681E00E94BE02CF91089544
S11306B08093A20187708055E0910801F0910901AF
S11306C0808308958093A301982F9F70E09108017F
S11306D0F0910901908382958F70805FE091080109
S11306E0F0910901808308958055E0910801F0910B
S11306F0090180830895CF93C62F0E9458038C2F3D
S11307000E946203CF91089560E080E00E947B0321
S113071008951F93CF93DF9310E0C6EAD0E0812FB2
S11307200E94740390E00DC08491A0910601B091E1
S113073007018C933196EC17FD07B1F79F5F903852
S113074019F0EEE9F0E0F0CF1F5F183041F70E9496
S11307508403DF91CF911F910895E0910801F091F6
S113076009018EEA8083E0910801F091090181EA90
S11307708083E0910801F09109018AED8083E09182
S11307800801F091090182E18083E0910801F09170
S1130790090188EC8083E0910801F091090188EA5D
S11307A08083E0910801F09109018FE38083E09157
S11307B00801F091090185ED8083E0910801F09131
S11307C0090180E88083E0910801F091090181E842
S11307D08083E0910801F091090180E58083E09134
S11307E00801F091090189ED8083E0910801F091FD
S11307F0090181E28083E0910801F091090180E21E
S11308008083E0910801F091090182E08083E09106
S11308100801F09109018BED8083E0910801F091CA
S1130820090180E38083E0910801F09109018DEAD8
S11308308083E0910801F09109011082E0910801A0
S1130840F091090184EA8083E0910801F0910901A3
S113085086EA8083E0910801F09109018FEA8083A0
S11308600E9489030E94840308958F929F92AF92FD
S1130870BF92CF92DF92EF92FF920F931F93CF9389
S1130880DF937C0180E00E94EA01C82FD0E081E080
S11308900E94EA01682F70E000919A0110919B0177
S11308A0C8010A97681779070CF4B4C044968617F0
S11308B097070CF04CC0601B710B072E000C880BC3
S11308C0990B0E94E00720E030E048EC52E40E94DB
S11308D0C4084B015C01B801110F880B990B0E94ED
S11308E0E0079B01AC0160E070E08FE793E40E94B5
S11308F052069B01AC01C501B4010E9436070E9457
S1130900A8076B0126C0072E000C880B990B0E94C8
S1130910E0074B015C01B801110F880B990B0E9491
S1130920E0079B01AC01C501B4010E94360720E039
S113093030E048EC52E40E94C40820E030E048EC87
S113094052E40E9452060E94A8076B0102C0C12C07
S1130950D12C00919C0110919D01C8010A97C817E0
S1130960D9070CF45EC044968C179D070CF04AC05E
S1130970C01BD10BBE01DD0F880B990B0E94E00751
S113098020E030E048EC52E40E94C4084B015C01D2
S1130990B801110F880B990B0E94E0079B01AC0171
S11309A060E070E08FE793E40E9452069B01AC0183
S11309B0C501B4010E9436070E94A80725C0BE01E4
S11309C0DD0F880B990B0E94E0074B015C01B80115
S11309D0110F880B990B0E94E0079B01AC01C50124
S11309E0B4010E94360720E030E048EC52E40E9453
S11309F0C40820E030E048EC52E40E9452060E9411
S1130A00A80702C060E070E0F701D182C08273835E
S1130A1062830DC0C8010A96861797070CF44BCF62
S1130A2072CFC8010A968C179D074CF6A1CFDF91AF
S1130A30CF911F910F91FF90EF90DF90CF90BF90D7
S1130A40AF909F908F9008958F929F92AF92BF9294
S1130A50CF92DF92EF92FF92CF93DF938EE991E0F2
S1130A600E943504EEE9F1E0E080F180C281D38197
S1130A70B7010F2C000C880B990B0E94E0074B0167
S1130A805C01BE010D2E000C880B990B0E94E0073F
S1130A90A50194010E94D20621E0CD2B09F020E0AB
S1130AA0222331F021E0EF2809F020E0211179C060
S1130AB00E94A807072E000C880B990B0E94E007E0
S1130AC06B017C01C1E02BED3FE049E45FEB0E9448
S1130AD0B70888230CF4C0E0CC2371F0C1E02BEDFF
S1130AE03FE049E45FE3C701B6010E9431071816ED
S1130AF00CF4C0E0C11157C0C1E024EE3BEC46E168
S1130B0050ECC701B6010E94B70888230CF4C0E07A
S1130B10CC2371F0C1E02BED3FE049E45FEBC7016A
S1130B20B6010E94310718160CF4C0E0C1113DC093
S1130B30C1E024EE3BEC46E150E4C701B6010E945B
S1130B40B70888230CF4C0E0C11131C0C1E024EE21
S1130B503BEC46E150ECC701B6010E943107181680
S1130B600CF4C0E0C11123C0C1E02BED3FE049E427
S1130B705FE3C701B6010E94B70888230CF4C0E004
S1130B80CC2371F0C1E024EE3BEC46E150E4C70114
S1130B90B6010E94310718160CF4C0E0C11109C057
S1130BA009C084E007C081E005C083E003C080E0A1
S1130BB001C082E0DF91CF91FF90EF90DF90CF9062
S1130BC0BF90AF909F908F900895B9988C988D980E
S1130BD0C19A0895813019F480B380710895811108
S1130BE003C080B380720895823031F486B3869551
S1130BF0817091E08927089580E008950E943B0662
S1130C000E940A020E9442066AE476E08EE496E0BC
S1130C100E9435098AE991E00E94F3010E94AD0324
S1130C200E94E5050E94890380E00E94170283E880
S1130C3091E09F938F930E9480090F900F9082E020
S1130C400E94EA050E9424058EE991E00E94350481
S1130C500E948502F4CF8FB9779BFECF089586E575
S1130C600E942B068FB1089587B3806B87BB8DB12B
S1130C7081658DB9089585B7806885BF80B7806226
S1130C8080BF08958FE189B910BC88E18AB98EE8E4
S1130C9080BD08955F9BFECF8CB108955D9BFECF10
S1130CA08CB908955058BB27AA270E946A060C9451
S1130CB07D080E946F0838F00E94760820F039F40D
S1130CC09F3F19F426F40C9445080EF4E095E7FBD5
S1130CD00C943F08E92F0E948E0858F3BA17620754
S1130CE073078407950720F079F4A6F50C94B008EF
S1130CF00EF4E0950B2EBA2FA02D0B01B901900133
S1130D000C01CA01A0011124FF27591B99F0593F76
S1130D1050F4503E68F11A16F040A22F232F342FBE
S1130D204427585FF3CF469537952795A795F0400C
S1130D305395C9F77EF41F16BA0B620B730B840B21
S1130D40BAF09150A1F0FF0FBB1F661F771F881FD9
S1130D50C2F70EC0BA0F621F731F841F48F4879531
S1130D6077956795B795F7959E3F08F0B0CF939523
S1130D70880F08F09927EE0F9795879508950E949C
S1130D806F0860F080E891E009F49EEF0E94760815
S1130D9028F040E851E071F45EEF0CC00C94450873
S1130DA00C94B008E92FE0780E948E0840F3092ED5
S1130DB0052AB1F3261737074807590738F00E2ECE
S1130DC007F8E02569F0E025E0640AC0EF6307F85E
S1130DD0009407FADB01B9019D01DC01CA01AD01F0
S1130DE0EF930E944D070E947D080E9402075F91C5
S1130DF0552339F02BED3FE049E450FD49EC0C94C8
S1130E0053060895DF93DD27B92FBF7740E85FE3EA
S1130E101616170648075B0718F4D92F0E94BC085A
S1130E209F938F937F936F930E943109E0E7F0E0E3
S1130E300E9448080E947D082F913F914F915F9135
S1130E400E94D708DD2351F09058A2EA2AED3FE032
S1130E5049EC5FE3D0785D270E946A06DF910C9429
S1130E607D080E941B0808F481E008950E944A0747
S1130E700C947D080E94760858F00E946F0840F098
S1130E8029F45F3F29F00C943F0851110C94B108E8
S1130E900C9445080E948E0868F39923B1F35523F6
S1130EA091F3951B550BBB27AA2762177307840779
S1130EB038F09F5F5F4F220F331F441FAA1FA9F30F
S1130EC035D00E2E3AF0E0E832D091505040E695FD
S1130ED0001CCAF72BD0FE2F29D0660F771F881F5E
S1130EE0BB1F261737074807AB07B0E809F0BB0B51
S1130EF0802DBF01FF2793585F4F3AF09E3F510565
S1130F0078F00C943F080C94B1085F3FE4F3983EEA
S1130F10D4F3869577956795B795F7959F5FC9F74D
S1130F20880F911D9695879597F90895E1E0660FCE
S1130F30771F881FBB1F621773078407BA0720F047
S1130F40621B730B840BBA0BEE1F88F7E0950895B0
S1130F500E94AF076894B1110C94B10808950E94DF
S1130F60960888F09F5798F0B92F9927B751B0F099
S1130F70E1F0660F771F881F991F1AF0BA95C9F719
S1130F8014C0B13091F00E94B008B1E008950C94FF
S1130F90B008672F782F8827B85F39F0B93FCCF3B2
S1130FA0869577956795B395D9F73EF49095809596
S1130FB0709561957F4F8F4F9F4F0895E89409C0B6
S1130FC097FB3EF490958095709561957F4F8F4F78
S1130FD09F4F9923A9F0F92F96E9BB279395F6958E
S1130FE0879577956795B795F111F8CFFAF4BB0F0C
S1130FF011F460FF1BC06F5F7F4F8F4F9F4F16C070
S1131000882311F096E911C0772321F09EE8872FF9
S1131010762F05C0662371F096E8862F70E060E0B5
S11310202AF09A95660F771F881FDAF7880F96952E
S1131030879597F90895990F0008550FAA0BE0E8D2
S1131040FEEF16161706E807F907C0F01216130686
S1131050E407F50798F0621B730B840B950B39F4C6
S11310600A2661F0232B242B252B21F408950A262C
S113107009F4A140A6958FEF811D811D089597F96C
S11310809F6780E870E060E008959FEF80EC08952A
S1131090DF93CF931F930F93FF92EF92DF927B0125
S11310A08C01689406C0DA2EEF010E94D708FE0175
S11310B0E894A5912591359145915591A6F3EF01B9
S11310C00E946A06FE019701A801DA9469F7DF908D
S11310D0EF90FF900F911F91CF91DF91089500241D
S11310E00A941616170618060906089500240A9489
S11310F012161306140605060895092E0394000C0F
S113110011F4882352F0BB0F40F4BF2B11F460FF9D
S113111004C06F5F7F4F8F4F9F4F089557FD9058C6
S1131120440F551F59F05F3F71F04795880F97FBA7
S1131130991F61F09F3F79F0879508951216130661
S11311401406551FF2CF4695F1DF08C01616170690
S11311501806991FF1CF86957105610508940895C5
S1131160E894BB2766277727CB0197F908950E9457
S11311701B0808F48FEF08959B01AC0160E070E058
S113118080E89FE30C9436070E94D7080C947D08EE
S11311900E946F0838F00E94760820F0952311F021
S11311A00C943F080C94450811240C94B1080E9437
S11311B08E0870F3959FC1F3950F50E0551F629F01
S11311C0F001729FBB27F00DB11D639FAA27F00D9C
S11311D0B11DAA1F649F6627B00DA11D661F829FC3
S11311E02227B00DA11D621F739FB00DA11D621FA8
S11311F0839FA00D611D221F749F3327A00D611DC5
S1131200231F849F600D211D822F762F6A2F1124A6
S11312109F5750409AF0F1F088234AF0EE0FFF1FD9
S1131220BB1F661F771F881F91505040A9F79E3F30
S1131230510580F00C943F080C94B1085F3FE4F32F
S1131240983ED4F3869577956795B795F795E79586
S11312509F5FC1F7FE2B880F911D9695879597F98F
S113126008959B01AC010C94C4080F931F93CF9372
S1131270DF93009731F46115710519F480E090E073
S11312803AC08B01EC016EE070E081E090E00E94D6
S1131290A70BFC01892B91F380E8838301151105C9
S11312A071F01387028781E883838091A401909170
S11312B0A501892B21F4F093A501E093A4012097C3
S11312C0C9F0D187C0878381826083838091A6011E
S11312D09091A701892B71F4F093A701E093A601E3
S11312E08091A8019091A901892B21F4F093A9017F
S11312F0E093A801CF01DF91CF911F910F91089541
S1131300A0E0B0E0E6E8F9E00C94AB0DAE014B5F71
S11313105F4FFA0161917191AF018091A6019091A3
S1131320A7010E94C609E2E00C94C70D0F931F9316
S1131330CF93DF93E091A601F091A701238121FFD0
S11313401BC08C01D0E0C0E0F80181918F01609155
S1131350A6017091A701DB011896ED91FC911997F4
S1131360882331F00995892B79F3DFEFCFEFECCFA8
S11313708AE00995892B19F08FEF9FEF02C08D2F1A
S11313809C2FDF91CF911F910F910895ABE0B0E0B6
S1131390ECECF9E00C949B0D6C017B018A01FC01DF
S11313A017821682838181FFCCC1CE0101963C0154
S11313B0F6019381F70193FD859193FF81917F015C
S11313C0882309F4BAC1853239F493FD859193FFDA
S11313D081917F01853229F4B60190E00E94010DCC
S11313E0E7CF912C212C312CFFE1F315D8F08B326F
S11313F079F038F4803279F08332A1F4232D20611E
S11314001DC08D3261F0803369F4232D216016C034
S1131410832D8260382EE32DE4603E2E2AC0F32D06
S1131420F8601DC037FC2DC020ED280F2A3040F095
S11314308E32B9F436FC81C1232D2064322E19C0BA
S113144036FE06C08AE0989E200D1124922E11C00B
S1131450EAE02E9E200D1124222EF32DF0623F2E61
S113146008C08C3621F4832D8068382E02C088365B
S113147041F4F70193FD859193FF81917F018111DF
S1131480B3CF982F9F7D9554933028F40C5F1F4F52
S11314909FE399830DC0833631F0833771F0833530
S11314A009F059C021C0F801808189830E5F1F4F64
S11314B088248394912C530113C02801F2E04F0E29
S11314C0511CF801A080B18036FE03C0692D70E084
S11314D002C06FEF7FEFC5010E94F60C4C01820140
S11314E0F32DFF773F2E16C0280122E0420E511C37
S11314F0F801A080B18036FE03C0692D70E002C0FF
S11315006FEF7FEFC5010E94E40C4C01F32DF068EE
S11315103F2E820133FC1BC0822D90E08816990671
S1131520B0F4B60180E290E00E94010D2A94F4CF59
S1131530F50137FC859137FE81915F01B60190E09A
S11315400E94010D21102A9421E0821A910881142D
S1131550910471F7E8C0843611F0893641F5F80139
S113156037FE07C060817181828193810C5F1F4FB8
S113157008C060817181072E000C880B990B0E5FE7
S11315801F4FF32DFF763F2E97FF09C0909580954E
S1131590709561957F4F8F4F9F4FF0683F2E2AE0E3
S11315A030E0A3010E943D0D882E861845C0853782
S11315B031F4232D2F7EB22E2AE030E025C0932D66
S11315C0997FB92E8F36C1F018F4883579F0B5C0FB
S11315D0803719F0883721F0B0C0E92FE061BE2EC2
S11315E0B4FE0DC0FB2DF460BF2E09C034FE0AC04A
S11315F0292F2660B22E06C028E030E005C020E185
S113160030E002C020E132E0F801B7FE07C060819B
S11316107181828193810C5F1F4F06C0608171814B
S113162080E090E00E5F1F4FA3010E943D0D882EC5
S11316308618FB2DFF773F2E36FE0DC0232D2E7FFF
S1131640A22E891458F434FE0BC032FC09C0832D39
S11316508E7EA82E05C0B82CA32C03C0B82C01C0C4
S1131660B92CA4FE0FC0FE01E80DF11D808180336A
S113167021F49A2D997EA92E09C0A2FE06C0B39426
S1131680B39404C08A2D867809F0B394A3FC11C0E6
S1131690A0FE06C0B21488F4280C922C9B180EC02D
S11316A0B21460F4B60180E290E00E94010DB3949C
S11316B0F7CFB21418F42B1802C0982C212CA4FED6
S11316C010C0B60180E390E00E94010DA2FE17C095
S11316D0A1FC03C088E790E002C088E590E0B60171
S11316E00CC08A2D867859F0A1FE02C08BE201C09D
S11316F080E2A7FC8DE2B60190E00E94010D8914FE
S113170038F4B60180E390E00E94010D9A94F7CF7B
S11317108A94F301E80DF11D8081B60190E00E94E6
S1131720010D8110F5CF222009F442CEB60180E2EA
S113173090E00E94010D2A94F6CFF60186819781EC
S113174002C08FEF9FEF2B96E2E10C94B70D0F933D
S11317501F93CF93DF93869F8001879F100D969FE1
S1131760100D1124C8010E94C30BEC01009729F04D
S1131770A80160E070E00E94EF0CCE01DF91CF91F0
S11317801F910F9108950F931F93CF93DF9382308E
S1131790910510F482E090E0E091AC01F091AD018C
S11317A020E030E0A0E0B0E0309719F140815181B1
S11317B00281138148175907C8F08417950769F403
S11317C0109731F012960C93129713961C9327C01E
S11317D00093AC011093AD0122C02115310519F01D
S11317E04217530718F49A01BD01EF01DF01F80114
S11317F0DBCF21153105F9F0281B390B24303105D5
S113180080F48A819B816115710521F0FB0193832A
S1131810828304C09093AD018093AC01FE013296A3
S113182044C0FE01E20FF31F8193919322503109CA
S1131830398328833AC02091AA013091AB01232B2C
S113184041F420910201309103013093AB012093C4
S1131850AA0120910001309101012115310541F4C3
S11318602DB73EB74091040150910501241B350B5F
S1131870E091AA01F091AB01E217F307A0F42E1B4B
S11318803F0B2817390778F0AC014E5F5F4F2417E0
S1131890350748F04E0F5F1F5093AB014093AA01E8
S11318A08193919302C0E0E0F0E0CF01DF91CF910A
S11318B01F910F910895CF93DF93009709F481C08E
S11318C0FC01329713821282A091AC01B091AD0158
S11318D0109781F420813181820F931F2091AA01F6
S11318E03091AB012817390751F5F093AB01E09320
S11318F0AA0167C0ED0120E030E0CE17DF0740F415
S11319004A815B819E0141155105F1F0EA01F5CF51
S1131910D383C28340815181840F951FC817D9078F
S113192059F488819981840F951F0296918380834D
S11319308A819B81938382832115310529F4F09355
S1131940AD01E093AC013DC0E901FB83EA83499119
S11319505991C40FD51FEC17FD0761F48081918163
S1131960840F951F0296E90199838883828193816C
S11319709B838A83E0E0F0E012968D919C9113970B
S1131980009719F0FD01DC01F7CF8D919C9111971F
S11319909D012E5F3F4F820F931F2091AA0130912A
S11319A0AB012817390769F4309729F41092AD0177
S11319B01092AC0102C013821282B093AB01A093C7
S11319C0AA01DF91CF910895FC0105906150704008
S11319D00110D8F7809590958E0F9F1F0895DC0114
S11319E001C06D9341505040E0F70895FC016150EF
S11319F0704001900110D8F7809590958E0F9F1F2D
S1131A0008950F931F93CF93DF93FB01238121FD4F
S1131A1003C08FEF9FEF2CC022FF16C04681578171
S1131A20248135814217530744F4A081B1819D017B
S1131A302F5F3F4F318320838C93268137812F5F23
S1131A403F4F3783268314C08B01EC01FB010084D4
S1131A50F185E02D0995892BE1F6D80116968D9133
S1131A609C911797019617969C938E931697CE0187
S1131A70DF91CF911F910F910895FA01AA27283081
S1131A8051F1203181F1E8946F936E7F6E5F7F4F47
S1131A908F4F9F4FAF4FB1E03ED0B4E03CD0670FC3
S1131AA0781F891F9A1FA11D680F791F8A1F911D16
S1131AB0A11D6A0F711D811D911DA11D20D009F466
S1131AC068943F912AE0269F11243019305D3193A8
S1131AD0DEF6CF010895462F4770405D4193B3E091
S1131AE00FD0C9F7F6CF462F4F70405D4A3318F038
S1131AF0495D31FD4052419302D0A9F7EACFB4E0E9
S1131B00A6959795879577956795BA95C9F70097A0
S1131B106105710508959B01AC010A2E0694579541
S1131B20479537952795BA95C9F7620F731F841F98
S1131B30951FA01D08952F923F924F925F926F922E
S1131B407F928F929F92AF92BF92CF92DF92EF9249
S1131B50FF920F931F93CF93DF93CDB7DEB7CA1BCA
S1131B60DB0B0FB6F894DEBF0FBECDBF09942A88F5
S1131B70398848885F846E847D848C849B84AA849D
S1131B80B984C884DF80EE80FD800C811B81AA812A
S1131B90B981CE0FD11D0FB6F894DEBF0FBECDBFF5
S10B1BA0ED010895F894FFCF54
S1131BA80000AE0120000012001076616C756520FB
S1131BB86973202564004D435032353135206973EB
S1131BC8204E4F5420696E20636F6E666967757284
S1131BD86174696F6E206D6F6465206166746572E7
S1131BE820726573657421004D43503235313520B8
S1131BF86973204E4F5420696E2074686520737091
S1131C0865636966696564206D6F646520616674DF
S1131C18657220696E697469616C697A6174696F47
S1131C286E2100496E6974696174696E67206E6F0C
S10B1C3864652031200A0D004F
S9030000FC
