:100000000C94CB010C943C020C94E8010C94E80194
:100010000C94E8010C94E8010C94E8010C94E801BC
:100020000C94E8010C94E8010C94E8010C94E801AC
:100030000C94E8010C94E8010C94E8010C94E8019C
:100040000C94E8010C94E8010C94E8010C94E8018C
:100050000C94E8010C94E8010C94E8010C94E8017C
:100060000C94E8010C94E8010C94E8010C94E8016C
:10007000084AD73B3BCE016E84BCBFFDC12F3D6C0F
:1000800074319ABD56833DDA3D00C77F11BED9E475
:10009000BB4C3E916BAAAABE000000803F0000004E
:1000A00000000000000000065F5F0600000000077F
:1000B000070007070000147F7F147F7F1400242EA1
:1000C0006B6B3A120000466630180C666200307A9C
:1000D0004F5D377A48000407030000000000001C51
:1000E0003E63410000000041633E1C000000082AFE
:1000F0003E1C1C3E2A0808083E3E0808000000A0DE
:10010000E06000000000080808080808000000007F
:100110006060000000006030180C060301003E7FA4
:10012000594D7F3E000042427F7F40400000627395
:1001300059496F660000226349497F360000181C48
:1001400016137F7F1000276745457D3900003C7EF0
:100150004B4979300000036371190F070000367FA7
:1001600049497F360000064F49693F1E00000000E4
:100170006C6C0000000000A0EC6C00000000081C8B
:1001800036634100000014141414141400000041DC
:1001900063361C080000020351590F0600003E7F21
:1001A000415D5D1F1E007C7E13137E7C0000417F3D
:1001B0007F49497F36001C3E634141632200417FF5
:1001C0007F41637F1C00417F7F495D416300417F28
:1001D0007F491D0103001C3E6341517372007F7F04
:1001E00008087F7F000000417F7F410000003070E1
:1001F00040417F3F0100417F7F081C776300417FC2
:100200007F41406070007F7F060C067F7F007F7F0C
:10021000060C187F7F001C3E6341633E1C00417F3B
:100220007F49090F06001E3F21717F5E0000417F5C
:100230007F19396F460026674D597B320000034114
:100240007F7F410300007F7F40407F7F00001F3F92
:1002500060603F1F00007F7F3018307F7F00637732
:100260001C081C776300074F78784F0700006773FE
:10027000594D47637100007F7F4141000000010339
:10028000060C183060000041417F7F000000080C20
:100290000603060C0800808080808080808000003B
:1002A000030704000000207454543C784000413F90
:1002B0007F44447C3800387C44446C28000030780B
:1002C00048493F7F4000387C54545C180000487E09
:1002D0007F490302000098BCA4A4F87C0400417F7D
:1002E0007F08047C780000447D7D4000000040C40D
:1002F00084FD7D000000417F7F10386C4400004188
:100300007F7F400000007C7C0C180C7C78007C7C9B
:1003100004047C780000387C44447C38000084FC71
:10032000F8A4243C1800183C24A4F8FC8400447C65
:1003300078441C180000485C5454742400000004E5
:100340003E7F442400003C7C40403C7C40001C3C00
:1003500060603C1C00003C7C6030607C3C00446C75
:100360003810386C44009CBCA0A0FC7C00004C649D
:10037000745C4C64000008083E77414100000000B6
:100380000077770000004141773E08080000020333
:1003900001030203010011241FBECFEFD4E0DEBF32
:1003A000CDBF12E0A0E0B1E0E2E0F6E202C00590CD
:1003B0000D92A439B107D9F723E0A4E9B2E001C056
:1003C0001D92AA35B207E1F70E94A90A0C94FF1208
:1003D0000C9400008068E1E0F4E1808386EF8A9568
:1003E000F1F780810895E1E0F4E120E8208326EF31
:1003F0002A95F1F7208130E0DC012D933C9321E830
:100400002083B6EFBA95F1F7208130E0FC01338309
:1004100022830895B89A83B7886083BF83B78061C9
:1004200083BF83B7816083BF81E081BF0895CF938D
:10043000C82FF89485B7826085BF85B78E7F85BF4A
:100440008BB780648BBF789480E80E94870361E05B
:100450008BE20E944E0361E88AE20E944E036DEA3D
:1004600089E20E944E0365E088E20E944E038C2FD1
:100470000E946403CF9108951F920F920FB60F92BE
:1004800011248F939F9381E090E090939502809345
:1004900094029F918F910F900FBE0F901F9018950F
:1004A0000F931F93CF93DF938C01FC01C081D18107
:1004B0006C2F6295660F607E82E30E944E03BE0140
:1004C00076956795769567957695679581E30E9411
:1004D0004E03F801628185E30E944E03F801828198
:1004E000882371F0C0E0F801EC0FF11D638186E311
:1004F0008C0F0E944E03CF5FF8018281C81798F3DA
:1005000080E00E94DF03DF91CF911F910F9108954A
:100510009F92AF92BF92CF92DF92EF92FF920F9392
:100520001F93CF93DF93CDB7DEB72B970FB6F89419
:10053000DEBF0FBECDBF5C0181E60E946903C82EFD
:10054000D12C82E60E946903DC2CCC24807EC80E6C
:10055000D11C85E60E9469038F70982E81F07E0180
:1005600084E0E80EF11C06E6090D16E6812F0E94D4
:100570006903F70181937F011F5F1013F7CFDA82C0
:10058000C9829B828BE0FE013196D50101900D92CC
:100590008A95E1F7C5012B960FB6F894DEBF0FBE22
:1005A000CDBFDF91CF911F910F91FF90EF90DF9022
:1005B000CF90BF90AF909F900895CF93DF93EC01C1
:1005C0008091940290919502892B61F0CE010E9456
:1005D0008802109295021092940240E061E08CE251
:1005E0000E94C30380919402909195029F938F93F0
:1005F00080E491E09F938F930E949D0E0F900F9047
:100600000F900F90CE01DF91CF910895EF92FF925E
:100610000F931F93CF93DF93CDB7DEB72B970FB612
:10062000F894DEBF0FBECDBF86E493E00E94DD08E4
:1006300082E00E94EA01E82EE6E4F3E0808168941B
:10064000FF24F7F8F80E0281005882E00E94950A14
:10065000182F0E94CF092FEF30E03A832983FC82C4
:100660000D83880F180F1E83EF8284E08B83CE01E9
:1006700001960E9450022B960FB6F894DEBF0FBE73
:10068000CDBFDF91CF911F910F91FF90EF90089513
:10069000811102C0C4980895C49A0895CF93DF933E
:1006A000D82FC62F80E00E94480382E00E94F40AFF
:1006B0008D2F0E94F40A8C2F0E94F40A81E00E9480
:1006C0004803DF91CF910895682F8FE00E944E0379
:1006D0000895CF93C82F80E00E94480383E00E94D2
:1006E000F40A8C2F0E94F40A0E94F80AC82F81E0B5
:1006F0000E9448038C2FCF91089580E00E94480308
:1007000080EC0E94F40A81E00E9448030895CF9390
:10071000DF93D82F0E94FD0A0E947D0380E80E948B
:1007200064038FEF9FE80197F1F700C000008EE0AF
:100730000E946903C82F1F928F9382E591E09F93D7
:100740008F930E949D0EC07E0F900F900F900F9080
:10075000C03831F08EE591E00E94B30E81E010C008
:100760008D2F0E9464038EE00E946903807E8D17A6
:1007700031F080E991E00E94B30E81E001C080E099
:10078000DF91CF9108951F93CF93DF93182FD62F2A
:10079000C42F80E00E94480385E00E94F40A812F64
:1007A0000E94F40A8D2F0E94F40A8C2F0E94F40AF2
:1007B00081E00E944803DF91CF911F910895CF936C
:1007C000C82F80E00E944803C13041F018F0C230C9
:1007D00049F00CC081E80E94F40A0BC082E80E9434
:1007E000F40A07C084E80E94F40A03C087E80E9464
:1007F000F40A81E00E944803CF910895329A80E282
:100800008FBD82E18EBD0895CF92DF92EF92FF926D
:100810000F931F93CF93DF93EC0180E197E2689FE2
:100820009001699F300D1124042F10E00F2EF4E683
:10083000CF2ED12CF02D6894EE24E5F8F12C2DC0AC
:10084000049FC001059F900D149F900D1124998362
:1008500088836A817B8124968130910519F419BCC3
:1008600018BC04C0D9BCC8BC95BD84BDC7010E94DA
:10087000FE0D161617066CF010C0F9013197F1F74E
:100880000197D9F74F5F842F90E08617970714F0F0
:1008900004C040E085E090E0F0CF488159814115E7
:1008A000510571F619BC18BCDF91CF911F910F91C2
:1008B000FF90EF90DF90CF90089580934A03877068
:1008C0008055E0910801F09109018083089580939B
:1008D0004B03982F9F70E0910801F09109019083DC
:1008E00082958F70805FE0910801F091090180830B
:1008F00008958055E0910801F091090180830895E1
:10090000CF93C62F0E945D048C2F0E946704CF9165
:10091000089560E080E00E94800408951F93CF93C3
:10092000DF9310E0C6EAD0E0812F0E94790490E0C6
:100930000DC08491A0910601B09107018C9331966E
:10094000EC17FD07B1F79F5F903819F0EEE9F0E082
:10095000F0CF1F5F183041F70E948904DF91CF91DB
:100960001F910895E0910801F09109018EEA8083BA
:10097000E0910801F091090181EA8083E09108018A
:10098000F09109018AED8083E0910801F09109015D
:1009900082E18083E0910801F091090188EC808375
:1009A000E0910801F091090188EA8083E091080153
:1009B000F09109018FE38083E0910801F091090132
:1009C00085ED8083E0910801F091090180E8808342
:1009D000E0910801F091090181E88083E09108012C
:1009E000F091090180E58083E0910801F09109010F
:1009F00089ED8083E0910801F091090181E2808313
:100A0000E0910801F091090180E28083E091080102
:100A1000F091090182E08083E0910801F0910901E1
:100A20008BED8083E0910801F091090180E38083E0
:100A3000E0910801F09109018DEA8083E0910801BD
:100A4000F09109011082E0910801F091090184EA16
:100A50008083E0910801F091090186EA8083E091AA
:100A60000801F09109018FEA80830E948E040E94A0
:100A700089040895282F30E0F901EE0FFF1FEE0FD3
:100A8000FF1FEE0FFF1FE256F040220F331F220F11
:100A9000331F220F331F2A5530409491A091060135
:100AA000B09107019C933196E217F307B1F70895CF
:100AB0000F931F93CF93DF93FC0101900020E9F780
:100AC0003197E81BF90B1E161F0654F4EC018C013C
:100AD0000E0F1F1F89910E943A05C017D107D1F749
:100AE000DF91CF911F910F9108950E948004E091B2
:100AF0000601F091070188E18083E0910601F09101
:100B000007018083E0910601F09107019EE7908341
:100B1000E0910601F09107019CE39083E0910601CA
:100B2000F091070180830895CF93DF93CDB7DEB7AF
:100B30002B970FB6F894DEBF0FBECDBF85E090E0D7
:100B40009A83898381E08B8380910A0190910B01C4
:100B50008130910519F481E08C830AC082309105BF
:100B600019F482E08C8304C0039711F483E08C8332
:100B7000CE0101960E9450022B960FB6F894DEBF6C
:100B80000FBECDBFDF91CF910895CF92DF92EF924C
:100B9000FF920F931F93CF93DF93EC016901798349
:100BA0006883BA0146960E94260EDD8ACC8AFB8AAB
:100BB000EA8AA02FB12FFE013296CE0142962D91E6
:100BC0003D9121933193E817F907C9F7DF91CF9150
:100BD0001F910F91FF90EF90DF90CF900895DC016F
:100BE000ED91FC911197208131812115310511F092
:100BF0002D933C930895FC01A081B181FB01EE0F80
:100C0000FF1FEA0FFB1F208131812115310521F0E3
:100C1000FC013183208308955496ED91FC91559702
:100C2000309709F0099508950E94CF09843029F47E
:100C300082E00E94950A8823B9F30E94CF0982308E
:100C400099F00E94CF09833079F00E94CF0981305A
:100C500059F00E94CF09882339F082E00E94950A5A
:100C6000811101C0089585E008950E94CF09843064
:100C7000E1F708956F5F7F4FFC01828993890196A8
:100C80006817790711F461E070E0CB0108952091B5
:100C90004E0330914F03821793078CF040914C0321
:100CA00050914D03509341034093400330934D03C3
:100CB00020934C0390934F0380934E03089520910B
:100CC0004C0330914D03281739074CF430934103FE
:100CD0002093400390934D0380934C030895821713
:100CE00093075CF4209140033091410328173907A2
:100CF00024F490934103809340030895CF93DF93AE
:100D0000CDB7DEB7A1970FB6F894DEBF0FBECDBF4B
:100D100042E050E061E070E08CE091E00E94040469
:100D2000CE0147960E94DD02CE0147960E94DD0269
:100D300089E090E09D878C8787E08F8781E08E87B0
:100D4000CE010C960E9450020E940603CE0101962D
:100D50000E94DD028C818B3AB9F78D8190E00E9470
:100D6000470642E050E061E070E08EE191E00E94D1
:100D70000404A1960FB6F894DEBF0FBECDBFDF917D
:100D8000CF91089565E081500E94750508950F93F5
:100D90001F93CF93DF93CDB7DEB766970FB6F89466
:100DA000DEBF0FBECDBF8C0185E0EBECF1E0DE01D4
:100DB000119601900D928A95E1F786E0E0EDF1E061
:100DC000DE01169601900D928A95E1F78BE0E6ED33
:100DD000F1E0DE011C9601900D928A95E1F76CE03E
:100DE00080E00E948004CE0101960E9458056CE0CC
:100DF00081E00E948004CE0106960E9458056CE0B6
:100E000082E00E948004CE010C960E945805C80121
:100E10000E94C20666960FB6F894DEBF0FBECDBF25
:100E2000DF91CF911F910F9108950F931F93CF934F
:100E3000DF93CDB7DEB72B970FB6F894DEBF0FBEAA
:100E4000CDBF8C018BE0E1EEF1E0DE011196019067
:100E50000D928A95E1F76CE080E00E948004CE015B
:100E600001960E945805C8010E94C2062B960FB633
:100E7000F894DEBF0FBECDBFDF91CF911F910F91D0
:100E800008950F931F93CF93DF93CDB7DEB7E79706
:100E90000FB6F894DEBF0FBECDBF8C018AE0EEEF37
:100EA000F1E0DE01119601900D928A95E1F74AE09A
:100EB000BE01655F7F4F80914E0390914F030E946A
:100EC0002D0E4AE0BE01665E7F4F80914C039091EB
:100ED0004D030E942D0E4AE0BE01675D7F4F809159
:100EE0004003909141030E942D0E6CE080E00E942F
:100EF0008004CE0101960E9458056CE082E00E94B9
:100F000080048CEE91E00E945805CE010B960E9461
:100F100058056CE084E00E94800482EF91E00E941A
:100F20005805CE014A960E9458056CE086E00E9462
:100F3000800488EF91E00E945805CE0189960E94B6
:100F40005805C8010E94C206E7960FB6F894DEBFA6
:100F50000FBECDBFDF91CF911F910F9108950F93D9
:100F60001F93CF93DF93CDB7DEB761970FB6F89499
:100F7000DEBF0FBECDBF8C0185E0E8E0F2E0DE0110
:100F8000119601900D928A95E1F787E0EDE0F2E08D
:100F9000DE01169601900D928A95E1F785E0E4E175
:100FA000F2E0DE011D9601900D928A95E1F76CE06A
:100FB00080E00E948004CE0101960E9458056CE0FA
:100FC00081E00E948004CE0106960E9458056CE0E4
:100FD00082E00E948004CE010D960E945805C8014F
:100FE0000E94C20661960FB6F894DEBF0FBECDBF59
:100FF000DF91CF911F910F910895FC018789813670
:1010000021F4CB010E94C70608958C3621F4CB0150
:101010000E9415070895883621F4CB010E944107EC
:101020000895893619F4CB010E94AF070895CF9334
:10103000DF93CDB7DEB7E0970FB6F894DEBF0FBEF3
:10104000CDBF84E193E090933F0380933E0380E122
:10105000E0E3F1E0DE01119601900D928A95E1F74F
:1010600080E16E0191E1C90ED11CF601982F119219
:101070009A95E9F75E01E1E2AE0EB11CF50111921D
:101080008A95E9F70F2EF3E0EF2EF12CF02D8E016B
:101090000F5F1F4F20E030E049E152E060E070E078
:1010A00084E193E00E94C505EE24E394F12C8601CF
:1010B0002EE736E043E252E064E173E08AEE92E02C
:1010C0000E94C5056894EE24E3F8F12C850120E028
:1010D00030E04DE252E064E173E080EC92E00E9487
:1010E000C5050F2EF3E0EF2EF12CF02D860124E93B
:1010F00035E046ED51E064E173E086E992E00E945C
:10110000C50560910A0170910B0180913E03909199
:101110003F030E94FD07EE24E394F12C0E94140685
:10112000182F0E948E04113079F128F1123019F035
:10113000133091F035C080910A0190910B01019715
:1011400031F4E0913E03F0913F03828993899093BB
:101150000B0180930A0124C060910A0170910B0178
:1011600080913E0390913F030E943A0690930B01B9
:1011700080930A0115C08EE393E00E94EF05F09280
:101180000B01E0920A010CC060910A0170910B0101
:101190008EE393E00E94FB05F0920B01E0920A01BE
:1011A00060910A0170910B0180913E0390913F0381
:1011B0000E94FD070E943506B1CF8F929F92AF9299
:1011C000BF92CF92DF92EF92FF920F931F93CF9334
:1011D000DF937C0180E00E94EA01C82FD0E081E02B
:1011E0000E94EA01682F70E00091420310914303CE
:1011F000C8014497681779070CF4B6C0889686171B
:1012000097070CF04CC0601B710B072E000C880B6D
:10121000990B0E94A90C20E030E048EC52E40E94B7
:101220008D0D4B015C01B801110F880B990B0E94C9
:10123000A90C9B01AC0160E070E08FE793E40E9491
:101240001B0B9B01AC01C501B4010E94FF0B0E9466
:10125000710C6B0126C0072E000C880B990B0E94A5
:10126000A90C4B015C01B801110F880B990B0E946E
:10127000A90C9B01AC01C501B4010E94FF0B20E049
:1012800030E048EC52E40E948D0D20E030E048EC64
:1012900052E40E941B0B0E94710C6B0102C0C12C16
:1012A000D12C0091440310914503C8018055910948
:1012B000C817D9070CF45FC080569F4F8C179D0745
:1012C0000CF04AC0C01BD10BBE01DD0F880B990B7F
:1012D0000E94A90C20E030E048EC52E40E948D0D01
:1012E0004B015C01B801110F880B990B0E94A90CEE
:1012F0009B01AC0160E070E08FE793E40E941B0B60
:101300009B01AC01C501B4010E94FF0B0E94710C4E
:1013100025C0BE01DD0F880B990B0E94A90C4B0163
:101320005C01B801110F880B990B0E94A90C9B015D
:10133000AC01C501B4010E94FF0B20E030E048EC95
:1013400052E40E948D0D20E030E048EC52E40E940F
:101350001B0B0E94710C02C060E070E0F701D182AB
:10136000C082738362830EC0C801449686179707B4
:101370000CF449CF70CFC801805B9F4F8C179D073D
:1013800044F6A0CFDF91CF911F910F91FF90EF9086
:10139000DF90CF90BF90AF909F908F9008958F92E5
:1013A0009F92AF92BF92CF92DF92EF92FF92CF9334
:1013B000DF9386E493E00E94DD08E6E4F3E0E0805A
:1013C000F180C281D381B7010F2C000C880B990BDF
:1013D0000E94A90C4B015C01BE010D2E000C880B74
:1013E000990B0E94A90CA50194010E949B0B21E07E
:1013F000CD2B09F020E0222331F021E0EF2809F085
:1014000020E0211179C00E94710C072E000C880B7E
:10141000990B0E94A90C6B017C01C1E02BED3FE010
:1014200049E45FEB0E94800D88230CF4C0E0CC23DC
:1014300071F0C1E02BED3FE049E45FE3C701B60185
:101440000E94FA0B18160CF4C0E0C11157C0C1E09D
:1014500024EE3BEC46E150ECC701B6010E94800D42
:1014600088230CF4C0E0CC2371F0C1E02BED3FE009
:1014700049E45FEBC701B6010E94FA0B18160CF4A1
:10148000C0E0C1113DC0C1E024EE3BEC46E150E4B8
:10149000C701B6010E94800D88230CF4C0E0C11181
:1014A00031C0C1E024EE3BEC46E150ECC701B6018F
:1014B0000E94FA0B18160CF4C0E0C11123C0C1E061
:1014C0002BED3FE049E45FE3C701B6010E94800DC8
:1014D00088230CF4C0E0CC2371F0C1E024EE3BEC97
:1014E00046E150E4C701B6010E94FA0B18160CF44D
:1014F000C0E0C11109C009C084E007C081E005C097
:1015000083E003C080E001C082E0DF91CF91FF90D3
:10151000EF90DF90CF90BF90AF909F908F90089505
:10152000B9988C988D98C19A0895813019F480B338
:1015300080710895811103C080B380720895823054
:1015400031F486B38695817091E08927089580E013
:1015500008950E94FE030E94040B0E940A020E944A
:101560000B0B63E17BE087E19BE00E94520E82E47B
:1015700093E00E94F3010E94B2040E94900A0E942C
:101580008E0480E00E9417020E94170888E392E010
:101590009F938F930E949D0E0F900F90C6E4D3E00F
:1015A0000DE412E00E94060383E00E94EA01F82E97
:1015B00082E00E94EA011F928F931F92FF928B811B
:1015C0008F938A818F9389818F9388818F931F93C3
:1015D0000F930E949D0E8DB79EB70A960FB6F89492
:1015E0009EBF0FBE8DBFDECF8FB9779BFECF089514
:1015F00086E50E94F40A8FB1089587B3806B87BB9C
:101600008DB181658DB9089585B7806885BF80B734
:10161000806280BF08958FE189B910BC88E18AB9E2
:101620008EE880BD08955F9BFECF8CB108955D9BD1
:10163000FECF8CB908955058BB27AA270E94330BC0
:101640000C94460D0E94380D38F00E943F0D20F09A
:1016500039F49F3F19F426F40C940E0D0EF4E09526
:10166000E7FB0C94080DE92F0E94570D58F3BA17A9
:10167000620773078407950720F079F4A6F50C94A8
:10168000790D0EF4E0950B2EBA2FA02D0B01B901A8
:1016900090010C01CA01A0011124FF27591B99F0E8
:1016A000593F50F4503E68F11A16F040A22F232FF4
:1016B000342F4427585FF3CF469537952795A79544
:1016C000F0405395C9F77EF41F16BA0B620B730BEB
:1016D000840BBAF09150A1F0FF0FBB1F661F771F5C
:1016E000881FC2F70EC0BA0F621F731F841F48F411
:1016F000879577956795B795F7959E3F08F0B0CF9A
:101700009395880F08F09927EE0F97958795089580
:101710000E94380D60F080E891E009F49EEF0E948D
:101720003F0D28F040E851E071F45EEF0CC00C94DE
:101730000E0D0C94790DE92FE0780E94570D40F3BF
:10174000092E052AB1F3261737074807590738F03D
:101750000E2E07F8E02569F0E025E0640AC0EF638B
:1017600007F8009407FADB01B9019D01DC01CA0109
:10177000AD01EF930E94160C0E94460D0E94CB0B08
:101780005F91552339F02BED3FE049E450FD49ECE2
:101790000C941C0B0895DF93DD27B92FBF7740E829
:1017A0005FE31616170648075B0718F4D92F0E9447
:1017B000850D9F938F937F936F930E94FA0DE0E7BF
:1017C000F0E00E94110D0E94460D2F913F914F9124
:1017D0005F910E94A00DDD2351F09058A2EA2AEDFE
:1017E0003FE049EC5FE3D0785D270E94330BDF9147
:1017F0000C94460D0E94E40C08F481E008950E94C8
:10180000130C0C94460D0E943F0D58F00E94380DA9
:1018100040F029F45F3F29F00C94080D51110C940D
:101820007A0D0C940E0D0E94570D68F39923B1F3B5
:10183000552391F3951B550BBB27AA2762177307F6
:10184000840738F09F5F5F4F220F331F441FAA1F8A
:10185000A9F335D00E2E3AF0E0E832D09150504046
:10186000E695001CCAF72BD0FE2F29D0660F771FF4
:10187000881FBB1F261737074807AB07B0E809F0DA
:10188000BB0B802DBF01FF2793585F4F3AF09E3F5F
:10189000510578F00C94080D0C947A0D5F3FE4F339
:1018A000983ED4F3869577956795B795F7959F5FA2
:1018B000C9F7880F911D9695879597F90895E1E0EE
:1018C000660F771F881FBB1F621773078407BA074D
:1018D00020F0621B730B840BBA0BEE1F88F7E095A8
:1018E00008950E94780C6894B1110C947A0D0895B3
:1018F0000E945F0D88F09F5798F0B92F9927B75134
:10190000B0F0E1F0660F771F881F991F1AF0BA95A3
:10191000C9F714C0B13091F00E94790DB1E008957B
:101920000C94790D672F782F8827B85F39F0B93F6D
:10193000CCF3869577956795B395D9F73EF4909556
:101940008095709561957F4F8F4F9F4F0895E894D4
:1019500009C097FB3EF490958095709561957F4FF7
:101960008F4F9F4F9923A9F0F92F96E9BB279395A5
:10197000F695879577956795B795F111F8CFFAF4B5
:10198000BB0F11F460FF1BC06F5F7F4F8F4F9F4FE6
:1019900016C0882311F096E911C0772321F09EE844
:1019A000872F762F05C0662371F096E8862F70E0AA
:1019B00060E02AF09A95660F771F881FDAF7880F84
:1019C0009695879597F90895990F0008550FAA0BDA
:1019D000E0E8FEEF16161706E807F907C0F0121642
:1019E0001306E407F50798F0621B730B840B950B45
:1019F00039F40A2661F0232B242B252B21F408959A
:101A00000A2609F4A140A6958FEF811D811D089536
:101A100097F99F6780E870E060E008959FEF80ECA1
:101A20000895DF93CF931F930F93FF92EF92DF926E
:101A30007B018C01689406C0DA2EEF010E94A00D94
:101A4000FE01E894A5912591359145915591A6F314
:101A5000EF010E94330BFE019701A801DA9469F7A8
:101A6000DF90EF90FF900F911F91CF91DF9108953C
:101A700000240A941616170618060906089500246D
:101A80000A9412161306140605060895092E0394E7
:101A9000000C11F4882352F0BB0F40F4BF2B11F45B
:101AA00060FF04C06F5F7F4F8F4F9F4F089557FDBA
:101AB0009058440F551F59F05F3F71F04795880FBC
:101AC00097FB991F61F09F3F79F087950895121653
:101AD00013061406551FF2CF4695F1DF08C01616FF
:101AE00017061806991FF1CF8695710561050894B0
:101AF0000895E894BB2766277727CB0197F90895C7
:101B00000E94E40C08F48FEF08959B01AC0160E0A3
:101B100070E080E89FE30C94FF0B0E94A00D0C94F2
:101B2000460D0E94380D38F00E943F0D20F095239D
:101B300011F00C94080D0C940E0D11240C947A0DD8
:101B40000E94570D70F3959FC1F3950F50E0551FFC
:101B5000629FF001729FBB27F00DB11D639FAA2702
:101B6000F00DB11DAA1F649F6627B00DA11D661F51
:101B7000829F2227B00DA11D621F739FB00DA11D72
:101B8000621F839FA00D611D221F749F3327A00D2C
:101B9000611D231F849F600D211D822F762F6A2FC8
:101BA00011249F5750409AF0F1F088234AF0EE0F2D
:101BB000FF1FBB1F661F771F881F91505040A9F75A
:101BC0009E3F510580F00C94080D0C947A0D5F3FF8
:101BD000E4F3983ED4F3869577956795B795F79596
:101BE000E7959F5FC1F7FE2B880F911D969587950E
:101BF00097F908959B01AC010C948D0D97FB072E6E
:101C000016F4009407D077FD09D00E94120E07FC4D
:101C100005D03EF4909581959F4F089570956195FC
:101C20007F4F0895AA1BBB1B51E107C0AA1FBB1F12
:101C3000A617B70710F0A61BB70B881F991F5A9558
:101C4000A9F780959095BC01CD010895FB01DC01B9
:101C500001900D920020E1F70895BB274A3031F43E
:101C6000992322F4BDE2909581959F4F0C94390EF3
:101C7000BB27FB015527AA27880F991FAA1FA41766
:101C800010F0A41B83955051B9F7A05DAA3308F05A
:101C9000A95DA193009779F7B111B1931192CB018E
:101CA0000C941E120F931F93CF93DF93009731F480
:101CB0006115710519F480E090E03AC08B01EC01E8
:101CC0006EE070E081E090E00E94C410FC01892B7E
:101CD00091F380E883830115110571F01387028762
:101CE00081E883838091500390915103892B21F4E3
:101CF000F0935103E09350032097C9F0D187C08738
:101D00008381826083838091520390915303892B56
:101D100071F4F0935303E093520380915403909134
:101D20005503892B21F4F0935503E0935403CF011D
:101D3000DF91CF911F910F910895A0E0B0E0E3EA09
:101D4000FEE00C94D812AE014B5F5F4FFA01619137
:101D50007191AF0180915203909153030E94E30E61
:101D6000E2E00C94F4120F931F93CF93DF93E09172
:101D70005203F0915303238121FF1BC08C01D0E05B
:101D8000C0E0F80181918F0160915203709153037B
:101D9000DB011896ED91FC911997882331F0099594
:101DA000892B79F3DFEFCFEFECCF8AE00995892B10
:101DB00019F08FEF9FEF02C08D2F9C2FDF91CF91F5
:101DC0001F910F910895ABE0B0E0E9EEFEE00C94B6
:101DD000C8126C017B018A01FC0117821682838183
:101DE00081FFCCC1CE0101963C01F6019381F70140
:101DF00093FD859193FF81917F01882309F4BAC1F6
:101E0000853239F493FD859193FF81917F0185326D
:101E100029F4B60190E00E942E12E7CF912C212CDC
:101E2000312CFFE1F315D8F08B3279F038F48032A1
:101E300079F08332A1F4232D20611DC08D3261F031
:101E4000803369F4232D216016C0832D8260382EE3
:101E5000E32DE4603E2E2AC0F32DF8601DC037FC50
:101E60002DC020ED280F2A3040F08E32B9F436FC18
:101E700081C1232D2064322E19C036FE06C08AE0AF
:101E8000989E200D1124922E11C0EAE02E9E200D66
:101E90001124222EF32DF0623F2E08C08C3621F43F
:101EA000832D8068382E02C0883641F4F70193FDF7
:101EB000859193FF81917F018111B3CF982F9F7DF1
:101EC0009554933028F40C5F1F4F9FE399830DC006
:101ED000833631F0833771F0833509F059C021C062
:101EE000F801808189830E5F1F4F88248394912C91
:101EF000530113C02801F2E04F0E511CF801A080DD
:101F0000B18036FE03C0692D70E002C06FEF7FEF35
:101F1000C5010E9413124C018201F32DFF773F2E61
:101F200016C0280122E0420E511CF801A080B180A9
:101F300036FE03C0692D70E002C06FEF7FEFC50170
:101F40000E9401124C01F32DF0683F2E820133FCF8
:101F50001BC0822D90E088169906B0F4B60180E28D
:101F600090E00E942E122A94F4CFF50137FC85915F
:101F700037FE81915F01B60190E00E942E12211080
:101F80002A9421E0821A91088114910471F7E8C023
:101F9000843611F0893641F5F80137FE07C06081BB
:101FA0007181828193810C5F1F4F08C060817181B4
:101FB000072E000C880B990B0E5F1F4FF32DFF7639
:101FC0003F2E97FF09C090958095709561957F4F42
:101FD0008F4F9F4FF0683F2E2AE030E0A3010E9410
:101FE0006A12882E861845C0853731F4232D2F7E3E
:101FF000B22E2AE030E025C0932D997FB92E8F367E
:10200000C1F018F4883579F0B5C0803719F08837F9
:1020100021F0B0C0E92FE061BE2EB4FE0DC0FB2D53
:10202000F460BF2E09C034FE0AC0292F2660B22EEC
:1020300006C028E030E005C020E130E002C020E129
:1020400032E0F801B7FE07C060817181828193811F
:102050000C5F1F4F06C06081718180E090E00E5FD1
:102060001F4FA3010E946A12882E8618FB2DFF774E
:102070003F2E36FE0DC0232D2E7FA22E891458F43C
:1020800034FE0BC032FC09C0832D8E7EA82E05C005
:10209000B82CA32C03C0B82C01C0B92CA4FE0FC0CF
:1020A000FE01E80DF11D8081803321F49A2D997E87
:1020B000A92E09C0A2FE06C0B394B39404C08A2D11
:1020C000867809F0B394A3FC11C0A0FE06C0B21438
:1020D00088F4280C922C9B180EC0B21460F4B60140
:1020E00080E290E00E942E12B394F7CFB21418F45D
:1020F0002B1802C0982C212CA4FE10C0B60180E33E
:1021000090E00E942E12A2FE17C0A1FC03C088E737
:1021100090E002C088E590E0B6010CC08A2D867878
:1021200059F0A1FE02C08BE201C080E2A7FC8DE263
:10213000B60190E00E942E12891438F4B60180E3B3
:1021400090E00E942E129A94F7CF8A94F301E80D42
:10215000F11D8081B60190E00E942E128110F5CF12
:10216000222009F442CEB60180E290E00E942E12B5
:102170002A94F6CFF6018681978102C08FEF9FEFF8
:102180002B96E2E10C94E4120F931F93CF93DF930D
:10219000869F8001879F100D969F100D1124C80106
:1021A0000E94E010EC01009729F0A80160E070E0C7
:1021B0000E940C12CE01DF91CF911F910F910895D3
:1021C0000F931F93CF93DF938230910510F482E039
:1021D00090E0E0915803F091590320E030E0A0E056
:1021E000B0E0309719F14081518102811381481785
:1021F0005907C8F08417950769F4109731F01296C3
:102200000C93129713961C9327C0009358031093B6
:10221000590322C02115310519F04217530718F44C
:102220009A01BD01EF01DF01F801DBCF2115310576
:10223000F9F0281B390B2430310580F48A819B8109
:102240006115710521F0FB019383828304C0909393
:10225000590380935803FE01329644C0FE01E20FF9
:10226000F31F8193919322503109398328833AC017
:102270002091560330915703232B41F42091020102
:1022800030910301309357032093560320910001AE
:10229000309101012115310541F42DB73EB7409130
:1022A000040150910501241B350BE0915603F09178
:1022B0005703E217F307A0F42E1B3F0B281739072B
:1022C00078F0AC014E5F5F4F2417350748F04E0F92
:1022D0005F1F50935703409356038193919302C01D
:1022E000E0E0F0E0CF01DF91CF911F910F910895D1
:1022F000CF93DF93009709F481C0FC0132971382DA
:102300001282A0915803B0915903109781F4208153
:102310003181820F931F2091560330915703281764
:10232000390751F5F0935703E093560367C0ED0169
:1023300020E030E0CE17DF0740F44A815B819E0148
:1023400041155105F1F0EA01F5CFD383C2834081F5
:102350005181840F951FC817D90759F48881998135
:10236000840F951F0296918380838A819B8193833A
:1023700082832115310529F4F0935903E093580322
:102380003DC0E901FB83EA8349915991C40FD51FF0
:10239000EC17FD0761F480819181840F951F0296EF
:1023A000E90199838883828193819B838A83E0E01A
:1023B000F0E012968D919C911397009719F0FD0112
:1023C000DC01F7CF8D919C9111979D012E5F3F4FBE
:1023D000820F931F20915603309157032817390716
:1023E00069F4309729F4109259031092580302C0EF
:1023F00013821282B0935703A0935603DF91CF91BB
:102400000895FC010590615070400110D8F7809547
:1024100090958E0F9F1F0895DC0101C06D93415070
:102420005040E0F70895FC016150704001900110A8
:10243000D8F7809590958E0F9F1F0895DC01FC01C1
:10244000672F71917723E1F7329704C07C916D93E8
:1024500070836291AE17BF07C8F308950F931F935F
:10246000CF93DF93FB01238121FD03C08FEF9FEF0B
:102470002CC022FF16C04681578124813581421726
:10248000530744F4A081B1819D012F5F3F4F3183F9
:1024900020838C93268137812F5F3F4F378326839C
:1024A00014C08B01EC01FB010084F185E02D09953E
:1024B000892BE1F6D80116968D919C91179701967C
:1024C00017969C938E931697CE01DF91CF911F9113
:1024D0000F910895FA01AA27283051F1203181F196
:1024E000E8946F936E7F6E5F7F4F8F4F9F4FAF4F1C
:1024F000B1E03ED0B4E03CD0670F781F891F9A1F2F
:10250000A11D680F791F8A1F911DA11D6A0F711DE2
:10251000811D911DA11D20D009F468943F912AE0EE
:10252000269F11243019305D3193DEF6CF010895D6
:10253000462F4770405D4193B3E00FD0C9F7F6CF07
:10254000462F4F70405D4A3318F0495D31FD4052CF
:10255000419302D0A9F7EACFB4E0A6959795879565
:1025600077956795BA95C9F7009761057105089544
:102570009B01AC010A2E06945795479537952795F0
:10258000BA95C9F7620F731F841F951FA01D089588
:102590002F923F924F925F926F927F928F929F9273
:1025A000AF92BF92CF92DF92EF92FF920F931F9361
:1025B000CF93DF93CDB7DEB7CA1BDB0B0FB6F89412
:1025C000DEBF0FBECDBF09942A88398848885F8452
:1025D0006E847D848C849B84AA84B984C884DF80C3
:1025E000EE80FD800C811B81AA81B981CE0FD11DA7
:1025F0000FB6F894DEBF0FBECDBFED010895F8947D
:02260000FFCF0A
:1026020000005A0320000012001001009001040093
:102612002C010200960008000601080000000601D5
:102622000800960008002C0102009001040000003E
:10263200EA02C00296020000000000000000000052
:1026420046414C47205354415455533A2025640A7D
:102652000D0076616C7565206973202564004D4319
:102662005032353135206973204E4F5420696E2027
:10267200636F6E66696775726174696F6E206D6FE4
:1026820064652061667465722072657365742100E9
:102692004D435032353135206973204E4F542069F5
:1026A2006E2074686520737065636966696564206D
:1026B2006D6F646520616674657220696E69746904
:1026C200616C697A6174696F6E2100706C61790066
:1026D20053636F726500446966666963756C7479E9
:1026E2000053746172742067616D65003153542028
:1026F2002000324E44202000335244202000546FE8
:10270200702073636F72650045617379004D656473
:1027120069756D0048617264004D61696E206D6576
:102722006E7500506C61792067616D650053686F4A
:10273200772073636F726500496E697469617469A9
:102742006E67206E6F64652031200A0D00506F7332
:1027520020582076616C20697320253464202C2057
:10276200506F732059206973202534642C20736CB8
:102772006964657258206973202534642C202073A3
:102782006C69646572592069732025346420200ABB
:04279200200D000016
:00000001FF
