S010000054657374596F6C6F2E73726563D1
S11300000C94CB010C943C020C94E8010C94E80190
S11300100C94E8010C94E8010C94E8010C94E801B8
S11300200C94E8010C94E8010C94E8010C94E801A8
S11300300C94E8010C94E8010C94E8010C94E80198
S11300400C94E8010C94E8010C94E8010C94E80188
S11300500C94E8010C94E8010C94E8010C94E80178
S11300600C94E8010C94E8010C94E8010C94E80168
S1130070084AD73B3BCE016E84BCBFFDC12F3D6C0B
S113008074319ABD56833DDA3D00C77F11BED9E471
S1130090BB4C3E916BAAAABE000000803F0000004A
S11300A000000000000000065F5F0600000000077B
S11300B0070007070000147F7F147F7F1400242E9D
S11300C06B6B3A120000466630180C666200307A98
S11300D04F5D377A48000407030000000000001C4D
S11300E03E63410000000041633E1C000000082AFA
S11300F03E1C1C3E2A0808083E3E0808000000A0DA
S1130100E06000000000080808080808000000007B
S11301106060000000006030180C060301003E7FA0
S1130120594D7F3E000042427F7F40400000627391
S113013059496F660000226349497F360000181C44
S113014016137F7F1000276745457D3900003C7EEC
S11301504B4979300000036371190F070000367FA3
S113016049497F360000064F49693F1E00000000E0
S11301706C6C0000000000A0EC6C00000000081C87
S113018036634100000014141414141400000041D8
S113019063361C080000020351590F0600003E7F1D
S11301A0415D5D1F1E007C7E13137E7C0000417F39
S11301B07F49497F36001C3E634141632200417FF1
S11301C07F41637F1C00417F7F495D416300417F24
S11301D07F491D0103001C3E6341517372007F7F00
S11301E008087F7F000000417F7F410000003070DD
S11301F040417F3F0100417F7F081C776300417FBE
S11302007F41406070007F7F060C067F7F007F7F08
S1130210060C187F7F001C3E6341633E1C00417F37
S11302207F49090F06001E3F21717F5E0000417F58
S11302307F19396F460026674D597B320000034110
S11302407F7F410300007F7F40407F7F00001F3F8E
S113025060603F1F00007F7F3018307F7F0063772E
S11302601C081C776300074F78784F0700006773FA
S1130270594D47637100007F7F4141000000010335
S1130280060C183060000041417F7F000000080C1C
S11302900603060C08008080808080808080000037
S11302A0030704000000207454543C784000413F8C
S11302B07F44447C3800387C44446C280000307807
S11302C048493F7F4000387C54545C180000487E05
S11302D07F490302000098BCA4A4F87C0400417F79
S11302E07F08047C780000447D7D4000000040C409
S11302F084FD7D000000417F7F10386C4400004184
S11303007F7F400000007C7C0C180C7C78007C7C97
S113031004047C780000387C44447C38000084FC6D
S1130320F8A4243C1800183C24A4F8FC8400447C61
S113033078441C180000485C5454742400000004E1
S11303403E7F442400003C7C40403C7C40001C3CFC
S113035060603C1C00003C7C6030607C3C00446C71
S11303603810386C44009CBCA0A0FC7C00004C6499
S1130370745C4C64000008083E77414100000000B2
S11303800077770000004141773E0808000002032F
S113039001030203010011241FBECFEFD4E0DEBF2E
S11303A0CDBF12E0A0E0B1E0E8E0FFE102C00590BB
S11303B00D92AA31B107D9F722E0AAE1B2E001C057
S11303C01D92A03EB207E1F70E945D0A0C94820FD1
S11303D00C9400008068E1E0F4E1808386EF8A9564
S11303E0F1F780810895E1E0F4E120E8208326EF2D
S11303F02A95F1F7208130E0DC012D933C9321E82C
S11304002083B6EFBA95F1F7208130E0FC01338305
S113041022830895B89A83B7886083BF83B78061C5
S113042083BF83B7816083BF81E081BF0895CF9389
S1130430C82FF89485B7826085BF85B78E7F85BF46
S11304408BB780648BBF789480E80E94770361E067
S11304508BE20E943E0361E88AE20E943E036DEA59
S113046089E20E943E0365E088E20E943E038C2FED
S11304700E945403CF9108951F920F920FB60F92CA
S113048011248F939F9381E090E090931B028093BB
S11304901A029F918F910F900FBE0F901F90189585
S11304A00F931F93CF93DF938C01FC01C081D18103
S11304B06C2F6295660F607E82E30E943E03BE014C
S11304C076956795769567957695679581E30E940D
S11304D03E03F801628185E30E943E03F8018281B4
S11304E0882371F0C0E0F801EC0FF11D638186E30D
S11304F08C0F0E943E03CF5FF8018281C81798F3E6
S113050080E00E94C003DF91CF911F910F91089565
S11305109F92AF92BF92CF92DF92EF92FF920F938E
S11305201F93CF93DF93CDB7DEB72B970FB6F89415
S1130530DEBF0FBECDBF5C0181E60E945903C82E09
S1130540D12C82E60E945903DC2CCC24807EC80E78
S1130550D11C85E60E9459038F70982E81F07E018C
S113056084E0E80EF11C06E6090D16E6812F0E94D0
S11305705903F70181937F011F5F1013F7CFDA82CC
S1130580C9829B828BE0FE013196D50101900D92C8
S11305908A95E1F7C5012B960FB6F894DEBF0FBE1E
S11305A0CDBFDF91CF911F910F91FF90EF90DF901E
S11305B0CF90BF90AF909F900895CF93DF93EC01BD
S11305C080911A0290911B02892B61F0CE010E9446
S11305D0880210921B0210921A0240E061E08CE241
S11305E00E94A403CE01DF91CF910895EF92FF9270
S11305F00F931F93CF93DF93CDB7DEB72B970FB62F
S1130600F894DEBF0FBECDBF8CEC92E00E9491083F
S113061082E00E94EA01E82EECECF2E0808168942A
S1130620FF24F7F8F80E0281005882E00E94490A7C
S1130630182F0E9483092FEF30E03A832983FC822C
S11306400D83880F180F1E83EF8284E08B83CE0105
S113065001960E9450022B960FB6F894DEBF0FBE8F
S1130660CDBFDF91CF911F910F91FF90EF9008952F
S1130670811102C0C4980895C49A0895CF93DF935A
S1130680D82FC62F80E00E94380382E00E947D0AA2
S11306908D2F0E947D0A8C2F0E947D0A81E00E948A
S11306A03803DF91CF910895682F8FE00E943E03B5
S11306B00895CF93C82F80E00E94380383E00E94FE
S11306C07D0A8C2F0E947D0A0E94810AC82F81E036
S11306D00E9438038C2FCF91089580E00E94380344
S11306E080EC0E947D0A81E00E9438030895CF9334
S11306F0C82F0E94860A0E946D0380E80E9454035A
S11307008FEF9FE80197F1F700C000008EE00E9490
S11307105903807E803831F080E491E00E94FE0D20
S113072081E010C08C2F0E9454038EE00E94590374
S1130730807E8C1731F082E791E00E94FE0D81E00B
S113074001C080E0CF9108951F93CF93DF93182FBA
S1130750D62FC42F80E00E94380385E00E947D0AD2
S1130760812F0E947D0A8D2F0E947D0A8C2F0E946A
S11307707D0A81E00E943803DF91CF911F91089593
S1130780CF93C82F80E00E943803C13041F018F0A5
S1130790C23049F00CC081E80E947D0A0BC082E897
S11307A00E947D0A07C084E80E947D0A03C087E88E
S11307B00E947D0A81E00E943803CF910895329A05
S11307C080E28FBD82E18EBD0895FC01808191811C
S11307D0009721F170E044E650E0689F9001699F22
S11307E0300D789F300D11243183208334962130CD
S11307F0310519F419BC18BC04C059BD48BD35BD38
S113080024BD2FEF8FE392E0215080409040E1F728
S113081000C00000808191810097F9F619BC18BCD2
S113082008958093D00287708055E0910801F0917B
S11308300901808308958093D102982F9F70E091DD
S11308400801F0910901908382958F70805FE09197
S11308500801F0910901808308958055E091080111
S1130860F091090180830895CF93C62F0E9411044B
S11308708C2F0E941B04CF91089560E080E00E94B9
S1130880340408951F93CF93DF9310E0C6EAD0E0B9
S1130890812F0E942D0490E00DC08491A091060147
S11308A0B09107018C933196EC17FD07B1F79F5F68
S11308B0903819F0EEE9F0E0F0CF1F5F183041F7FF
S11308C00E943D04DF91CF911F910895E0910801AA
S11308D0F09109018EEA8083E0910801F091090109
S11308E081EA8083E0910801F09109018AED808317
S11308F0E0910801F091090182E18083E09108010F
S1130900F091090188EC8083E0910801F0910901DC
S113091088EA8083E0910801F09109018FE38083E4
S1130920E0910801F091090185ED8083E0910801CF
S1130930F091090180E88083E0910801F0910901B8
S113094081E88083E0910801F091090180E58083CA
S1130950E0910801F091090189ED8083E09108019B
S1130960F091090181E28083E0910801F09109018D
S113097080E28083E0910801F091090182E08083A4
S1130980E0910801F09109018BED8083E091080169
S1130990F091090180E38083E0910801F09109015D
S11309A08DEA8083E0910801F09109011082E091C1
S11309B00801F091090184EA8083E0910801F09133
S11309C0090186EA8083E0910801F09109018FEA28
S11309D080830E9442040E943D040895282F30E041
S11309E0F901EE0FFF1FEE0FFF1FEE0FFF1FE25680
S11309F0F040220F331F220F331F220F331F2A55BB
S1130A0030409491A0910601B09107019C933196D6
S1130A10E217F307B1F708950F931F93CF93DF9372
S1130A20FC0101900020E9F73197E81BF90B1E1631
S1130A301F0654F4EC018C010E0F1F1F89910E94B4
S1130A40EE04C017D107D1F7DF91CF911F910F9119
S1130A5008950E943404E0910601F091070188E1B1
S1130A608083E0910601F09107018083E091060103
S1130A70F09107019EE79083E0910601F091070150
S1130A809CE39083E0910601F0910701808308952F
S1130A90CF93DF93CDB7DEB72B970FB6F894DEBFB5
S1130AA00FBECDBF85E090E09A83898381E08B837C
S1130AB080910A0190910B018130910519F481E034
S1130AC08C830AC08230910519F482E08C8304C0BF
S1130AD0039711F483E08C83CE0101960E945002A7
S1130AE02B960FB6F894DEBF0FBECDBFDF91CF912A
S1130AF00895CF92DF92EF92FF920F931F93CF93BB
S1130B00DF93EC01690179836883BA0146960E94F8
S1130B10870DDD8ACC8AFB8AEA8AA02FB12FFE01D9
S1130B203296CE0142962D913D9121933193E8174F
S1130B30F907C9F7DF91CF911F910F91FF90EF90C3
S1130B40DF90CF900895DC01ED91FC911197208105
S1130B5031812115310511F02D933C930895FC0149
S1130B60A081B181FB01EE0FFF1FEA0FFB1F208163
S1130B7031812115310521F0FC0131832083089551
S1130B805496ED91FC915597309709F00995089585
S1130B900E948309843029F482E00E94490A882350
S1130BA0B9F30E948309823099F00E94830983304B
S1130BB079F00E948309813059F00E9483098823C7
S1130BC039F082E00E94490A811101C0089585E04C
S1130BD008950E9483098430E1F708956F5F7F4F81
S1130BE0FC018289938901966817790711F461E001
S1130BF070E0CB0108952091D4023091D502821780
S1130C0093078CF04091D2025091D3025093C702C3
S1130C104093C6023093D3022093D2029093D5021C
S1130C208093D40208952091D2023091D3022817E0
S1130C3039074CF43093C7022093C6029093D30231
S1130C408093D2020895821793075CF42091C60220
S1130C503091C7022817390724F49093C702809370
S1130C60C6020895CF93DF93CDB7DEB7A1970FB631
S1130C70F894DEBF0FBECDBF42E050E061E070E00B
S1130C808CE091E00E94E503CE0147960E94DD02CC
S1130C90CE0147960E94DD0289E090E09D878C8713
S1130CA087E08F8781E08E87CE010C960E945002E8
S1130CB00E94F602CE0101960E94DD028C818B3ADD
S1130CC0B9F78D8190E00E94FB0542E050E061E0BD
S1130CD070E08EE191E00E94E503A1960FB6F894CE
S1130CE0DEBF0FBECDBFDF91CF91089565E0815087
S1130CF00E94290508950F931F93CF93DF93CDB7D7
S1130D00DEB766970FB6F894DEBF0FBECDBF8C0179
S1130D1085E0EDEAF1E0DE01119601900D928A95ED
S1130D20E1F786E0E2EBF1E0DE01169601900D9228
S1130D308A95E1F78BE0E8EBF1E0DE011C96019087
S1130D400D928A95E1F76CE080E00E943404CE01B4
S1130D5001960E940C056CE081E00E943404CE01EF
S1130D6006960E940C056CE082E00E943404CE01D9
S1130D700C960E940C05C8010E94760666960FB672
S1130D80F894DEBF0FBECDBFDF91CF911F910F91BD
S1130D9008950F931F93CF93DF93CDB7DEB72B97AF
S1130DA00FB6F894DEBF0FBECDBF8C018BE0E3EC31
S1130DB0F1E0DE01119601900D928A95E1F76CE065
S1130DC080E00E943404CE0101960E940C05C80103
S1130DD00E9476062B960FB6F894DEBF0FBECDBFE9
S1130DE0DF91CF911F910F9108950F931F93CF938C
S1130DF0DF93CDB7DEB7E7970FB6F894DEBF0FBE2B
S1130E00CDBF8C018AE0E0EEF1E0DE0111960190A5
S1130E100D928A95E1F74AE0BE01655F7F4F8091AC
S1130E20D4029091D5020E948E0D4AE0BE01665E06
S1130E307F4F8091D2029091D3020E948E0D4AE09E
S1130E40BE01675D7F4F8091C6029091C7020E94E8
S1130E508E0D6CE080E00E943404CE0101960E9465
S1130E600C056CE082E00E9434048EEC91E00E9458
S1130E700C05CE010B960E940C056CE084E00E94E8
S1130E80340484ED91E00E940C05CE014A960E9440
S1130E900C056CE086E00E9434048AED91E00E9427
S1130EA00C05CE0189960E940C05C8010E947606A5
S1130EB0E7960FB6F894DEBF0FBECDBFDF91CF919A
S1130EC01F910F9108950F931F93CF93DF93CDB785
S1130ED0DEB761970FB6F894DEBF0FBECDBF8C01AD
S1130EE085E0EAEEF1E0DE01119601900D928A951B
S1130EF0E1F787E0EFEEF1E0DE01169601900D9246
S1130F008A95E1F785E0E6EFF1E0DE011D960190B8
S1130F100D928A95E1F76CE080E00E943404CE01E2
S1130F2001960E940C056CE081E00E943404CE011D
S1130F3006960E940C056CE082E00E943404CE0107
S1130F400D960E940C05C8010E94760661960FB6A4
S1130F50F894DEBF0FBECDBFDF91CF911F910F91EB
S1130F600895FC018789813621F4CB010E947B0618
S1130F7008958C3621F4CB010E94C9060895883661
S1130F8021F4CB010E94F5060895893619F4CB01AA
S1130F900E9463070895CF93DF93CDB7DEB7E09740
S1130FA00FB6F894DEBF0FBECDBF8AE992E09093EE
S1130FB0C5028093C40280E1E0E3F1E0DE01119612
S1130FC001900D928A95E1F780E16E0191E1C90EDD
S1130FD0D11CF601982F11929A95E9F75E01E1E28E
S1130FE0AE0EB11CF50111928A95E9F70F2EF3E0CC
S1130FF0EF2EF12CF02D8E010F5F1F4F20E030E01B
S11310004BEF51E060E070E08AE992E00E947905DC
S1131010EE24E394F12C860122E336E045E052E02D
S11310206AE972E080E792E00E9479056894EE2410
S1131030E3F8F12C850120E030E04FE052E06AE96A
S113104072E086E492E00E9479050F2EF3E0EF2E21
S1131050F12CF02D860128E435E048EB51E06AE9F3
S113106072E08CE192E00E94790560910A0170912E
S11310700B018091C4029091C5020E94B107EE2435
S1131080E394F12C0E94C805182F0E9442041130E9
S113109079F128F1123019F0133091F035C08091B4
S11310A00A0190910B01019731F4E091C402F0918F
S11310B0C5028289938990930B0180930A0124C00D
S11310C060910A0170910B018091C4029091C50254
S11310D00E94EE0590930B0180930A0115C084ECE5
S11310E092E00E94A305F0920B01E0920A010CC069
S11310F060910A0170910B0184EC92E00E94AF05AB
S1131100F0920B01E0920A0160910A0170910B01C7
S11311108091C4029091C5020E94B1070E94E90522
S1131120B1CF8F929F92AF92BF92CF92DF92EF9204
S1131130FF920F931F93CF93DF937C0180E00E9473
S1131140EA01C82FD0E081E00E94EA01682F70E034
S11311500091C8021091C902C80144976817790721
S11311600CF4B6C08896861797070CF04CC0601B29
S1131170710B072E000C880B990B0E94320C20E097
S113118030E048EC52E40E94160D4B015C01B801BA
S1131190110F880B990B0E94320C9B01AC0160E08B
S11311A070E08FE793E40E94A40A9B01AC01C5019F
S11311B0B4010E94880B0E94FA0B6B0126C0072E13
S11311C0000C880B990B0E94320C4B015C01B80196
S11311D0110F880B990B0E94320C9B01AC01C501C5
S11311E0B4010E94880B20E030E048EC52E40E94F5
S11311F0160D20E030E048EC52E40E94A40A0E945C
S1131200FA0B6B0102C0C12CD12C0091CA021091BF
S1131210CB02C80180559109C817D9070CF45FC0E7
S113122080569F4F8C179D070CF04AC0C01BD10BF2
S1131230BE01DD0F880B990B0E94320C20E030E0D8
S113124048EC52E40E94160D4B015C01B801110FE9
S1131250880B990B0E94320C9B01AC0160E070E09A
S11312608FE793E40E94A40A9B01AC01C501B40179
S11312700E94880B0E94FA0B25C0BE01DD0F880B6B
S1131280990B0E94320C4B015C01B801110F880BC1
S1131290990B0E94320C9B01AC01C501B4010E9460
S11312A0880B20E030E048EC52E40E94160D20E068
S11312B030E048EC52E40E94A40A0E94FA0B02C0F7
S11312C060E070E0F701D182C082738362830EC054
S11312D0C8014496861797070CF449CF70CFC8010C
S11312E0805B9F4F8C179D0744F6A0CFDF91CF9171
S11312F01F910F91FF90EF90DF90CF90BF90AF9030
S11313009F908F9008958F929F92AF92BF92CF92A9
S1131310DF92EF92FF92CF93DF938CEC92E00E94E6
S11313209108ECECF2E0E080F180C281D381B70156
S11313300F2C000C880B990B0E94320C4B015C01A2
S1131340BE010D2E000C880B990B0E94320CA501D6
S113135094010E94240B21E0CD2B09F020E02223EC
S113136031F021E0EF2809F020E0211179C00E943A
S1131370FA0B072E000C880B990B0E94320C6B01A0
S11313807C01C1E02BED3FE049E45FEB0E94090DD5
S113139088230CF4C0E0CC2371F0C1E02BED3FE0D6
S11313A049E45FE3C701B6010E94830B18160CF4ED
S11313B0C0E0C11157C0C1E024EE3BEC46E150EC63
S11313C0C701B6010E94090D88230CF4C0E0CC23A8
S11313D071F0C1E02BED3FE049E45FEBC701B601DA
S11313E00E94830B18160CF4C0E0C1113DC0C1E08B
S11313F024EE3BEC46E150E4C701B6010E94090D1E
S113140088230CF4C0E0C11131C0C1E024EE3BECF0
S113141046E150ECC701B6010E94830B18160CF488
S1131420C0E0C11123C0C1E02BED3FE049E45FE31C
S1131430C701B6010E94090D88230CF4C0E0CC2337
S113144071F0C1E024EE3BEC46E150E4C701B60183
S11314500E94830B18160CF4C0E0C11109C009C026
S113146084E007C081E005C083E003C080E001C0E0
S113147082E0DF91CF91FF90EF90DF90CF90BF900B
S1131480AF909F908F900895B9988C988D98C19A39
S11314900895813019F480B380710895811103C0D7
S11314A080B380720895823031F486B3869581705A
S11314B091E08927089580E008950E94DF030E9447
S11314C08D0A0E940A020E94940A6CE97AE080EA7A
S11314D09AE00E94B30D88EC92E00E94F3010E940E
S11314E066040E94440A0E94420480E00E9417029B
S11314F00E94CB0780E090E008958FB9779BFECFE0
S1131500089586E50E947D0A8FB1089587B3806BA4
S113151087BB8DB181658DB9089585B7806885BF16
S113152080B7806280BF08958FE189B910BC88E1DB
S11315308AB98EE880BD08955F9BFECF8CB1089573
S11315405D9BFECF8CB908955058BB27AA270E94F3
S1131550BC0A0C94CF0C0E94C10C38F00E94C80C39
S113156020F039F49F3F19F426F40C94970C0EF4F0
S1131570E095E7FB0C94910CE92F0E94E00C58F3E2
S1131580BA17620773078407950720F079F4A6F564
S11315900C94020D0EF4E0950B2EBA2FA02D0B0126
S11315A0B90190010C01CA01A0011124FF27591BA4
S11315B099F0593F50F4503E68F11A16F040A22FAA
S11315C0232F342F4427585FF3CF4695379527951B
S11315D0A795F0405395C9F77EF41F16BA0B620B1A
S11315E0730B840BBAF09150A1F0FF0FBB1F661F61
S11315F0771F881FC2F70EC0BA0F621F731F841FA4
S113160048F4879577956795B795F7959E3F08F0C9
S1131610B0CF9395880F08F09927EE0F979587958B
S113162008950E94C10C60F080E891E009F49EEFF7
S11316300E94C80C28F040E851E071F45EEF0CC041
S11316400C94970C0C94020DE92FE0780E94E00CA6
S113165040F3092E052AB1F326173707480759071F
S113166038F00E2E07F8E02569F0E025E0640AC0A2
S1131670EF6307F8009407FADB01B9019D01DC016F
S1131680CA01AD01EF930E949F0B0E94CF0C0E94F0
S1131690540B5F91552339F02BED3FE049E450FDA5
S11316A049EC0C94A50A0895DF93DD27B92FBF7781
S11316B040E85FE31616170648075B0718F4D92FAE
S11316C00E940E0D9F938F937F936F930E94830DBF
S11316D0E0E7F0E00E949A0C0E94CF0C2F913F911A
S11316E04F915F910E94290DDD2351F09058A2EA99
S11316F02AED3FE049EC5FE3D0785D270E94BC0A05
S1131700DF910C94CF0C0E946D0C08F481E00895D5
S11317100E949C0B0C94CF0C0E94C80C58F00E94A1
S1131720C10C40F029F45F3F29F00C94910C511145
S11317300C94030D0C94970C0E94E00C68F399230D
S1131740B1F3552391F3951B550BBB27AA276217B9
S11317507307840738F09F5F5F4F220F331F441FC6
S1131760AA1FA9F335D00E2E3AF0E0E832D09150FA
S11317705040E695001CCAF72BD0FE2F29D0660FE7
S1131780771F881FBB1F261737074807AB07B0E82A
S113179009F0BB0B802DBF01FF2793585F4F3AF030
S11317A09E3F510578F00C94910C0C94030D5F3F0F
S11317B0E4F3983ED4F3869577956795B795F795B6
S11317C09F5FC9F7880F911D9695879597F908959E
S11317D0E1E0660F771F881FBB1F6217730784073A
S11317E0BA0720F0621B730B840BBA0BEE1F88F749
S11317F0E09508950E94010C6894B1110C94030DB6
S113180008950E94E80C88F09F5798F0B92F992703
S1131810B751B0F0E1F0660F771F881F991F1AF0D7
S1131820BA95C9F714C0B13091F00E94020DB1E02D
S113183008950C94020D672F782F8827B85F39F02C
S1131840B93FCCF3869577956795B395D9F73EF470
S113185090958095709561957F4F8F4F9F4F089518
S1131860E89409C097FB3EF4909580957095619536
S11318707F4F8F4F9F4F9923A9F0F92F96E9BB27EC
S11318809395F695879577956795B795F111F8CF68
S1131890FAF4BB0F11F460FF1BC06F5F7F4F8F4FD3
S11318A09F4F16C0882311F096E911C0772321F0C9
S11318B09EE8872F762F05C0662371F096E8862F61
S11318C070E060E02AF09A95660F771F881FDAF7B8
S11318D0880F9695879597F90895990F0008550FE5
S11318E0AA0BE0E8FEEF16161706E807F907C0F0A2
S11318F012161306E407F50798F0621B730B840BAA
S1131900950B39F40A2661F0232B242B252B21F483
S113191008950A2609F4A140A6958FEF811D811D23
S1131920089597F99F6780E870E060E008959FEF5D
S113193080EC0895DF93CF931F930F93FF92EF9260
S1131940DF927B018C01689406C0DA2EEF010E94BD
S1131950290DFE01E894A591259135914591559164
S1131960A6F3EF010E94BC0AFE019701A801DA94D4
S113197069F7DF90EF90FF900F911F91CF91DF9166
S1131980089500240A9416161706180609060895E1
S113199000240A9412161306140605060895092E47
S11319A00394000C11F4882352F0BB0F40F4BF2BB6
S11319B011F460FF04C06F5F7F4F8F4F9F4F0895F6
S11319C057FD9058440F551F59F05F3F71F04795EC
S11319D0880F97FB991F61F09F3F79F087950895D1
S11319E0121613061406551FF2CF4695F1DF08C0F0
S11319F0161617061806991FF1CF8695710561050D
S1131A0008940895E894BB2766277727CB0197F9B4
S1131A1008950E946D0C08F48FEF08959B01AC01AA
S1131A2060E070E080E89FE30C94880B0E94290D2D
S1131A300C94CF0C0E94C10C38F00E94C80C20F00A
S1131A40952311F00C94910C0C94970C11240C9484
S1131A50030D0E94E00C70F3959FC1F3950F50E0C5
S1131A60551F629FF001729FBB27F00DB11D639F4C
S1131A70AA27F00DB11DAA1F649F6627B00DA11DF2
S1131A80661F829F2227B00DA11D621F739FB00D98
S1131A90A11D621F839FA00D611D221F749F332708
S1131AA0A00D611D231F849F600D211D822F762FA1
S1131AB06A2F11249F5750409AF0F1F088234AF07E
S1131AC0EE0FFF1FBB1F661F771F881F91505040EA
S1131AD0A9F79E3F510580F00C94910C0C94030DD2
S1131AE05F3FE4F3983ED4F3869577956795B79571
S1131AF0F795E7959F5FC1F7FE2B880F911D96958B
S1131B00879597F908959B01AC010C94160DFB0180
S1131B10DC0101900D920020E1F70895BB274A30C3
S1131B2031F4992322F4BDE2909581959F4F0C9452
S1131B309A0DBB27FB015527AA27880F991FAA1FB7
S1131B40A41710F0A41B83955051B9F7A05DAA33D4
S1131B5008F0A95DA193009779F7B111B19311929F
S1131B60CB010C94720F0F931F93CF93DF930097C5
S1131B7031F46115710519F480E090E03AC08B01ED
S1131B80EC016EE070E081E090E00E942E0EFC011A
S1131B90892B91F380E883830115110571F0138774
S1131BA0028781E883838091D6029091D702892BA2
S1131BB021F4F093D702E093D6022097C9F0D1879D
S1131BC0C0878381826083838091D8029091D902F7
S1131BD0892B71F4F093D902E093D8028091DA0250
S1131BE09091DB02892B21F4F093DB02E093DA027B
S1131BF0CF01DF91CF911F910F9108950F931F9300
S1131C00CF93DF93E091D802F091D902238121FF91
S1131C101BC08C01D0E0C0E0F80181918F0160917C
S1131C20D8027091D902DB011896ED91FC911997B5
S1131C30882331F00995892B79F3DFEFCFEFECCFCF
S1131C408AE00995892B19F08FEF9FEF02C08D2F41
S1131C509C2FDF91CF911F910F9108950F931F93A4
S1131C60CF93DF93869F8001879F100D969F100D61
S1131C701124C8010E944A0EEC01009729F0A80122
S1131C8060E070E00E946B0FCE01DF91CF911F9155
S1131C900F9108950F931F93CF93DF938230910593
S1131CA010F482E090E0E091DE02F091DF0220E0A7
S1131CB030E0A0E0B0E0309719F140815181028119
S1131CC0138148175907C8F08417950769F41097CA
S1131CD031F012960C93129713961C9327C000931D
S1131CE0DE021093DF0222C02115310519F04217DC
S1131CF0530718F49A01BD01EF01DF01F801DBCFAE
S1131D0021153105F9F0281B390B2430310580F4F5
S1131D108A819B816115710521F0FB019383828384
S1131D2004C09093DF028093DE02FE01329644C029
S1131D30FE01E20FF31F81939193225031093983FD
S1131D4028833AC02091DC023091DD02232B41F438
S1131D5020910201309103013093DD022093DC02D3
S1131D6020910001309101012115310541F42DB775
S1131D703EB74091040150910501241B350BE091BD
S1131D80DC02F091DD02E217F307A0F42E1B3F0BF7
S1131D902817390778F0AC014E5F5F4F24173507D9
S1131DA048F04E0F5F1F5093DD024093DC02819395
S1131DB0919302C0E0E0F0E0CF01DF91CF911F9159
S1131DC00F910895CF93DF93009709F481C0FC012C
S1131DD0329713821282A091DE02B091DF02109733
S1131DE081F420813181820F931F2091DC02309194
S1131DF0DD022817390751F5F093DD02E093DC0288
S1131E0067C0ED0120E030E0CE17DF0740F44A81DF
S1131E105B819E0141155105F1F0EA01F5CFD383B1
S1131E20C28340815181840F951FC817D90759F483
S1131E3088819981840F951F0296918380838A817A
S1131E409B81938382832115310529F4F093DF026A
S1131E50E093DE023DC0E901FB83EA834991599195
S1131E60C40FD51FEC17FD0761F480819181840FA5
S1131E70951F0296E90199838883828193819B83CC
S1131E808A83E0E0F0E012968D919C91139700977D
S1131E9019F0FD01DC01F7CF8D919C9111979D0103
S1131EA02E5F3F4F820F931F2091DC023091DD02A1
S1131EB02817390769F4309729F41092DF02109239
S1131EC0DE0202C013821282B093DD02A093DC0210
S1131ED0DF91CF910895DC0101C06D9341505040D2
S1131EE0E0F70895DC01FC01672F71917723E1F796
S1131EF0329704C07C916D9370836291AE17BF07D3
S10B1F00C8F30895F894FFCF23
S1131F080000E0022000001200100100900104000B
S1131F182C010200960008000601080000000601D2
S1131F280800960008002C0102009001040000003B
S1131F38700246021C0200000000000000000000BD
S1131F484D435032353135206973204E4F54206942
S1131F586E20636F6E66696775726174696F6E204F
S1131F686D6F64652061667465722072657365744B
S1131F7821004D435032353135206973204E4F547A
S1131F8820696E2074686520737065636966696585
S1131F9864206D6F646520616674657220696E697A
S1131FA87469616C697A6174696F6E2100706C611F
S1131FB8790053636F726500446966666963756C7A
S1131FC874790053746172742067616D65003153CC
S1131FD854202000324E4420200033524420200054
S1131FE8546F702073636F72650045617379004D97
S1131FF8656469756D0048617264004D61696E209D
S11320086D656E7500506C61792067616D6500536C
S10D2018686F772073636F72650030
S9030000FC
