S010000054657374596F6C6F2E73726563D1
S11300000C94CB010C943C020C94E8010C94E80190
S11300100C94E8010C94E8010C94E8010C94E801B8
S11300200C94E8010C94E8010C94E8010C94E801A8
S11300300C94E8010C94E8010C94E8010C94E80198
S11300400C94E8010C94E8010C94E8010C94E80188
S11300500C94E8010C94E8010C94E8010C94E80178
S11300600C94E8010C94E8010C94E8010C94E80168
S1130070084AD73B3BCE016E84BCBFFDC12F3D6C0B
S113008074319ABD56833DDA3D00C77F11BED9E471
S1130090BB4C3E916BAAAABE000000803F0000004A
S11300A000000000000000065F5F0600000000077B
S11300B0070007070000147F7F147F7F1400242E9D
S11300C06B6B3A120000466630180C666200307A98
S11300D04F5D377A48000407030000000000001C4D
S11300E03E63410000000041633E1C000000082AFA
S11300F03E1C1C3E2A0808083E3E0808000000A0DA
S1130100E06000000000080808080808000000007B
S11301106060000000006030180C060301003E7FA0
S1130120594D7F3E000042427F7F40400000627391
S113013059496F660000226349497F360000181C44
S113014016137F7F1000276745457D3900003C7EEC
S11301504B4979300000036371190F070000367FA3
S113016049497F360000064F49693F1E00000000E0
S11301706C6C0000000000A0EC6C00000000081C87
S113018036634100000014141414141400000041D8
S113019063361C080000020351590F0600003E7F1D
S11301A0415D5D1F1E007C7E13137E7C0000417F39
S11301B07F49497F36001C3E634141632200417FF1
S11301C07F41637F1C00417F7F495D416300417F24
S11301D07F491D0103001C3E6341517372007F7F00
S11301E008087F7F000000417F7F410000003070DD
S11301F040417F3F0100417F7F081C776300417FBE
S11302007F41406070007F7F060C067F7F007F7F08
S1130210060C187F7F001C3E6341633E1C00417F37
S11302207F49090F06001E3F21717F5E0000417F58
S11302307F19396F460026674D597B320000034110
S11302407F7F410300007F7F40407F7F00001F3F8E
S113025060603F1F00007F7F3018307F7F0063772E
S11302601C081C776300074F78784F0700006773FA
S1130270594D47637100007F7F4141000000010335
S1130280060C183060000041417F7F000000080C1C
S11302900603060C08008080808080808080000037
S11302A0030704000000207454543C784000413F8C
S11302B07F44447C3800387C44446C280000307807
S11302C048493F7F4000387C54545C180000487E05
S11302D07F490302000098BCA4A4F87C0400417F79
S11302E07F08047C780000447D7D4000000040C409
S11302F084FD7D000000417F7F10386C4400004184
S11303007F7F400000007C7C0C180C7C78007C7C97
S113031004047C780000387C44447C38000084FC6D
S1130320F8A4243C1800183C24A4F8FC8400447C61
S113033078441C180000485C5454742400000004E1
S11303403E7F442400003C7C40403C7C40001C3CFC
S113035060603C1C00003C7C6030607C3C00446C71
S11303603810386C44009CBCA0A0FC7C00004C6499
S1130370745C4C64000008083E77414100000000B2
S11303800077770000004141773E0808000002032F
S113039001030203010011241FBECFEFD4E0DEBF2E
S11303A0CDBF13E0A0E0B1E0E0E7F2E202C00590C7
S11303B00D92A033B107D9F723E0A0E3B3E001C065
S11303C01D92AC3CB207E1F70E940A090C94361165
S11303D00C9400008068E1E0F4E1808386EF8A9564
S11303E0F1F780810895E1E0F4E120E8208326EF2D
S11303F02A95F1F7208130E0DC012D933C9321E82C
S11304002083B6EFBA95F1F7208130E0FC01338305
S113041022830895B89A83B7886083BF83B78061C5
S113042083BF83B7816083BF81E081BF0895CF9389
S1130430C82FF89485B7826085BF85B78E7F85BF46
S11304408BB780648BBF789480E80E94090363E0D3
S11304508BE20E94D00261E88AE20E94D0026DEA37
S113046089E20E94D00265E088E20E94D0028C2FCB
S11304700E94E602CF9108951F920F920FB60F9239
S113048011248F939F9381E090E0909331038093A4
S113049030039F918F910F900FBE0F901F9018956E
S11304A00F931F93CF93DF938C01FC01C081D18103
S11304B06C2F6295660F607E82E30E94D002BE01BB
S11304C076956795769567957695679581E30E940D
S11304D0D002F801628185E30E94D002F801828192
S11304E0882371F0C0E0F801EC0FF11D638186E30D
S11304F08C0F0E94D002CF5FF8018281C81798F355
S113050080E00E944503DF91CF911F910F910895E0
S1130510EF92FF920F931F93CF93DF93CDB7DEB784
S11305202B970FB6F894DEBF0FBECDBF88EB93E0D8
S11305300E94410782E00E94EA01E82EE8EBF3E022
S113054080816894FF24F7F8F80E0281005882E055
S11305500E94F608182F0E94300821E030E03A8308
S11305602983FC820D83880F180F1E83EF8284E099
S11305708B83CE0101960E9450022B960FB6F894FD
S1130580DEBF0FBECDBFDF91CF911F910F91FF90C2
S1130590EF900895811102C0C4980895C49A0895F3
S11305A0CF93DF93D82FC62F80E00E94CA0282E047
S11305B00E9453098D2F0E9453098C2F0E945309C6
S11305C081E00E94CA02DF91CF910895682F8FE0E5
S11305D00E94D0020895CF93C82F80E00E94CA02DF
S11305E083E00E9453098C2F0E9453090E945709EB
S11305F0C82F81E00E94CA028C2FCF91089580E019
S11306000E94CA0280EC0E94530981E00E94CA023F
S11306100895CF93DF93D82F0E945C090E94FF02B4
S113062080E80E94E6028FEF9FE80197F1F700C08F
S113063000008EE00E94EB02C82F1F928F938AE184
S113064091E09F938F930E94D40CC07E0F900F90E3
S11306500F900F90C03831F086E291E00E94EA0CCE
S113066081E010C08D2F0E94E6028EE00E94EB0212
S1130670807E8D1731F088E591E00E94EA0C81E0DC
S113068001C080E0DF91CF910895CF93C82F80E01F
S11306900E94CA02C13041F018F0C23049F00CC0C7
S11306A081E80E9453090BC082E80E94530907C0E5
S11306B084E80E94530903C087E80E94530981E03B
S11306C00E94CA02CF9108958093BC03877080551D
S11306D0E0910801F0910901808308958093BD039E
S11306E0982F9F70E0910801F09109019083829501
S11306F08F70805FE0910801F09109018083089573
S11307008055E0910801F091090180830895CF9309
S1130710C62F0E9464038C2F0E946E03CF9108950C
S113072060E080E00E94870308951F93CF93DF93D6
S113073010E0C6EAD0E0812F0E94800390E00DC053
S11307408491A0910601B09107018C933196EC1726
S1130750FD07B1F79F5F903819F0EEE9F0E0F0CFB4
S11307601F5F183041F70E949003DF91CF911F91D2
S11307700895E0910801F09109018EEA8083E091E7
S11307800801F091090181EA8083E0910801F09168
S113079009018AED8083E0910801F091090182E169
S11307A08083E0910801F091090188EC8083E09155
S11307B00801F091090188EA8083E0910801F09131
S11307C009018FE38083E0910801F091090185ED2F
S11307D08083E0910801F091090180E88083E09131
S11307E00801F091090181E88083E0910801F0910A
S11307F0090180E58083E0910801F091090189ED08
S11308008083E0910801F091090181E28083E09105
S11308100801F091090180E28083E0910801F091E0
S1130820090182E08083E0910801F09109018BEDD8
S11308308083E0910801F091090180E38083E091D5
S11308400801F09109018DEA8083E0910801F0919B
S113085009011082E0910801F091090184EA808382
S1130860E0910801F091090186EA8083E091080192
S1130870F09109018FEA80830E9495030E949003FE
S11308800895282F30E0F901EE0FFF1FEE0FFF1F30
S1130890EE0FFF1FE256F040220F331F220F331FCB
S11308A0220F331F2A5530409491A0910601B09134
S11308B007019C933196E217F307B1F708950F935C
S11308C01F93CF93DF93FC0101900020E9F7319748
S11308D0E81BF90B1E161F0654F4EC018C010E0FD5
S11308E01F1F89910E944104C017D107D1F7DF91DE
S11308F0CF911F910F9108950E948703E091060103
S1130900F091070188E18083E0910601F0910701ED
S11309108083E0910601F09107019EE79083E091C6
S11309200601F09107019CE39083E0910601F091A8
S113093007018083089583E991E09F938F930E9438
S1130940D40C0F900F900E948802FDCFCF92DF92BB
S1130950EF92FF920F931F93CF93DF93EC01690102
S113096079836883BA0146960E945D0CDD8ACC8A3D
S1130970FB8AEA8AA02FB12FFE013296CE0142965D
S11309802D913D9121933193E817F907C9F7DF9130
S1130990CF911F910F91FF90EF90DF90CF9008952A
S11309A0DC01ED91FC91208131812115310559F053
S11309B0FC013183208387EA91E09F938F930E9407
S11309C0D40C0F900F900895FC01A081B181FB011C
S11309D0EE0FFF1FEA0FFB1F208131812115310526
S11309E041F0FC01318320838CEA91E00E94EA0CFF
S11309F008955496ED91FC915597309731F00995EF
S1130A0088EB91E00E94EA0C08958EEC91E00E943C
S1130A10EA0C0895CF938AED91E00E94EA0C0E94BB
S1130A203008843029F482E00E94F6088823B9F360
S1130A300E943008C82F823029F480EF91E00E9490
S1130A40EA0C16C00E943008C82F833089F00E9437
S1130A503008C82F813061F00E943008C82F8823E5
S1130A6039F082E00E94F608811101C002C0C5E09D
S1130A708C2FCF9108950E9430088430E1F70895B7
S1130A806F5F7F4FFC01828993890196681779070C
S1130A9011F461E070E0CB0108952091C00330911E
S1130AA0C103821793072CF09093C1038093C00372
S1130AB008952091BE033091BF03281739072CF401
S1130AC09093BF038093BE030895821793075CF449
S1130AD02091B2033091B3032817390724F490937B
S1130AE0B3038093B203089565E081500E947C04AF
S1130AF008950F931F93CF93DF93CDB7DEB72B9752
S1130B000FB6F894DEBF0FBECDBF8C0185E0E9EFD0
S1130B10F1E0DE01119601900D928A95E1F786E0ED
S1130B20EEEFF1E0DE01169601900D928A95E1F761
S1130B306CE080E00E948703CE0101960E945F046E
S1130B406CE081E00E948703CE0106960E945F0458
S1130B50C8010E9474052B960FB6F894DEBF0FBE31
S1130B60CDBFDF91CF911F910F9108950F931F93E4
S1130B70CF93DF93CDB7DEB72B970FB6F894DEBFD4
S1130B800FBECDBF8C018BE0E4E0F2E0DE011196F4
S1130B9001900D928A95E1F76CE080E00E94870352
S1130BA0CE0101960E945F04C8010E9474052B9631
S1130BB00FB6F894DEBF0FBECDBFDF91CF911F916A
S1130BC00F9108950F931F93CF93DF93CDB7DEB7A3
S1130BD0E7970FB6F894DEBF0FBECDBF8C018AE055
S1130BE0E1E2F2E0DE01119601900D928A95E1F7BF
S1130BF080E09DE70E944D054AE0BE01655F7F4F9E
S1130C008091C0039091C1030E94640C4AE0BE012C
S1130C10665E7F4F8091BE039091BF030E94640C77
S1130C204AE0BE01675D7F4F8091B2039091B303A8
S1130C300E94640C6CE080E00E948703CE01019660
S1130C400E945F046CE082E00E9487038FE092E0E0
S1130C500E945F04CE010B960E945F046CE084E066
S1130C600E94870385E192E00E945F04CE014A96C8
S1130C700E945F046CE086E00E9487038BE192E0AF
S1130C800E945F04CE0189960E945F04C8010E94FD
S1130C907405E7960FB6F894DEBF0FBECDBFDF91A3
S1130CA0CF911F910F910895CF93DF93EB01FC0136
S1130CB08789813641F48BE292E00E94EA0CCE01EE
S1130CC00E9479050FC08C3641F485E492E00E94BD
S1130CD0EA0CCE010E94B60505C0883619F4CB0192
S1130CE00E94E205DF91CF910895CF93DF93CDB7B2
S1130CF0DEB7E0970FB6F894DEBF0FBECDBF86E82F
S1130D0093E09093B1038093B00380E1EAE0F1E0D3
S1130D10DE01119601900D928A95E1F780E15E0162
S1130D2091E1A90EB11CF501982F11929A95E9F75A
S1130D306E01E1E2CE0ED11CF60111928A95E9F71B
S1130D406894EE24E1F8F12C8E010F5F1F4F20E030
S1130D5030E047E552E060E070E086E893E00E940E
S1130D60A604EE24E394F12C85012BE934E041E65A
S1130D7052E066E873E08CE593E00E94A604689470
S1130D80EE24E3F8F12C860120E030E04BE652E05B
S1130D9066E873E082E393E00E94A60461E070E0F9
S1130DA08091B0039091B1030E945406EE24E39421
S1130DB0F12C0F2EF5ECCF2EF2E0DF2EF02D86E78E
S1130DC092E00E94EA0C0E940A05182F8CE892E037
S1130DD00E94EA0C0E9495038DE992E00E94EA0CBD
S1130DE0113031F1C8F0123019F0133061F02CC019
S1130DF0F1E0EF1AF10841F5E091B003F091B1038D
S1130E00E288F38821C0B7018091B0039091B103C7
S1130E100E9440057C0118C08AEA92E00E94EA0C14
S1130E2080EB93E00E94D004EE24E394F12C0CC0F8
S1130E3080EB92E00E94EA0CB70180EB93E00E9401
S1130E40E404EE24E394F12C87EB92E00E94EA0C94
S1130E50E091B003F091B10386891F928F93DF92E2
S1130E60CF920E94D40CB7018091B0039091B1034A
S1130E700E9454060E943B050F900F900F900F9014
S1130E809ECF8F929F92AF92BF92CF92DF92EF92BA
S1130E90FF920F931F93CF93DF937C0180E00E9416
S1130EA0EA01C82FD0E081E00E94EA01682F70E0D7
S1130EB00091B4031091B503C8010A976817790724
S1130EC00CF4B4C04496861797070CF04CC0601B12
S1130ED0710B072E000C880B990B0E94080B20E065
S1130EE030E048EC52E40E94EC0B4B015C01B80189
S1130EF0110F880B990B0E94080B9B01AC0160E059
S1130F0070E08FE793E40E947A099B01AC01C5016C
S1130F10B4010E945E0A0E94D00A6B0126C0072E0B
S1130F20000C880B990B0E94080B4B015C01B80163
S1130F30110F880B990B0E94080B9B01AC01C50192
S1130F40B4010E945E0A20E030E048EC52E40E94C2
S1130F50EC0B20E030E048EC52E40E947A090E9455
S1130F60D00A6B0102C0C12CD12C0091B6031091A0
S1130F70B703C8010A97C817D9070CF45EC0449692
S1130F808C179D070CF04AC0C01BD10BBE01DD0FAE
S1130F90880B990B0E94080B20E030E048EC52E4E7
S1130FA00E94EC0B4B015C01B801110F880B990BEB
S1130FB00E94080B9B01AC0160E070E08FE793E4B2
S1130FC00E947A099B01AC01C501B4010E945E0A2A
S1130FD00E94D00A25C0BE01DD0F880B990B0E9428
S1130FE0080B4B015C01B801110F880B990B0E948F
S1130FF0080B9B01AC01C501B4010E945E0A20E00C
S113100030E048EC52E40E94EC0B20E030E048EC85
S113101052E40E947A090E94D00A02C060E070E0A3
S1131020F701D182C082738362830DC0C8010A961E
S1131030861797070CF44BCF72CFC8010A968C170A
S11310409D074CF6A1CFDF91CF911F910F91FF9097
S1131050EF90DF90CF90BF90AF909F908F900895C6
S11310608F929F92AF92BF92CF92DF92EF92FF92B4
S1131070CF93DF9388EB93E00E944107E8EBF3E022
S1131080E080F180C281D381B7010F2C000C880B62
S1131090990B0E94080B4B015C01BE010D2E000C44
S11310A0880B990B0E94080BA50194010E94FA0970
S11310B021E0CD2B09F020E0222331F021E0EF28BC
S11310C009F020E0211179C00E94D00A072E000CFB
S11310D0880B990B0E94080B6B017C01C1E02BED7E
S11310E03FE049E45FEB0E94DF0B88230CF4C0E08F
S11310F0CC2371F0C1E02BED3FE049E45FE3C7018D
S1131100B6010E94590A18160CF4C0E0C11157C068
S1131110C1E024EE3BEC46E150ECC701B6010E946D
S1131120DF0B88230CF4C0E0CC2371F0C1E02BED7D
S11311303FE049E45FEBC701B6010E94590A181663
S11311400CF4C0E0C1113DC0C1E024EE3BEC46E12B
S113115050E4C701B6010E94DF0B88230CF4C0E001
S1131160C11131C0C1E024EE3BEC46E150ECC701B3
S1131170B6010E94590A18160CF4C0E0C11123C02C
S1131180C1E02BED3FE049E45FE3C701B6010E94F3
S1131190DF0B88230CF4C0E0CC2371F0C1E024EE13
S11311A03BEC46E150E4C701B6010E94590A181607
S11311B00CF4C0E0C11109C009C084E007C081E09B
S11311C005C083E003C080E001C082E0DF91CF91DD
S11311D0FF90EF90DF90CF90BF90AF909F908F9053
S11311E00895B9988C988D98C19A0895813019F40E
S11311F080B380710895811103C080B38072089513
S1131200823031F486B38695817091E08927089500
S113121080E008950E9463090E940A020E946A09FC
S113122062E779E086E799E00E94890C84EB93E019
S11312300E94F3010E94B9030E94F1080E949503E1
S113124080E00E9417020E94750684ED92E09F934D
S11312508F930E94D40C0F900F90C8EBD3E009EE4B
S113126012E00E94880283E00E94EA01F82E82E0E4
S11312700E94EA011F928F931F92FF928B818F939A
S11312808A818F9389818F9388818F931F930F9382
S11312900E94D40C8DB79EB70A960FB6F8949EBFE1
S11312A00FBE8DBFDECF8FB9779BFECF089586E545
S11312B00E9453098FB1089587B3806B87BB8DB1AA
S11312C081658DB9089585B7806885BF80B78062D0
S11312D080BF08958FE189B910BC88E18AB98EE88E
S11312E080BD08955F9BFECF8CB108955D9BFECFBA
S11312F08CB908955058BB27AA270E9492090C94D0
S1131300A50B0E94970B38F00E949E0B20F039F435
S11313109F3F19F426F40C946D0B0EF4E095E7FB53
S11313200C94670BE92F0E94B60B58F3BA176207A7
S113133073078407950720F079F4A6F50C94D80B6D
S11313400EF4E0950B2EBA2FA02D0B01B9019001DC
S11313500C01CA01A0011124FF27591B99F0593F20
S113136050F4503E68F11A16F040A22F232F342F68
S11313704427585FF3CF469537952795A795F040B6
S11313805395C9F77EF41F16BA0B620B730B840BCB
S1131390BAF09150A1F0FF0FBB1F661F771F881F83
S11313A0C2F70EC0BA0F621F731F841F48F48795DB
S11313B077956795B795F7959E3F08F0B0CF9395CD
S11313C0880F08F09927EE0F9795879508950E9446
S11313D0970B60F080E891E009F49EEF0E949E0B69
S11313E028F040E851E071F45EEF0CC00C946D0BF2
S11313F00C94D80BE92FE0780E94B60B40F3092E29
S1131400052AB1F3261737074807590738F00E2E77
S113141007F8E02569F0E025E0640AC0EF6307F807
S1131420009407FADB01B9019D01DC01CA01AD0199
S1131430EF930E94750A0E94A50B0E942A0A5F91ED
S1131440552339F02BED3FE049E450FD49EC0C9471
S11314507B090895DF93DD27B92FBF7740E85FE369
S11314601616170648075B0718F4D92F0E94E40BD9
S11314709F938F937F936F930E94590CE0E7F0E062
S11314800E94700B0E94A50B2F913F914F915F9189
S11314900E94FF0BDD2351F09058A2EA2AED3FE0B1
S11314A049EC5FE3D0785D270E949209DF910C94A8
S11314B0A50B0E94430B08F481E008950E94720A70
S11314C00C94A50B0E949E0B58F00E94970B40F0C1
S11314D029F45F3F29F00C94670B51110C94D90B3C
S11314E00C946D0B0E94B60B68F39923B1F355234A
S11314F091F3951B550BBB27AA2762177307840723
S113150038F09F5F5F4F220F331F441FAA1FA9F3B8
S113151035D00E2E3AF0E0E832D091505040E695A6
S1131520001CCAF72BD0FE2F29D0660F771F881F07
S1131530BB1F261737074807AB07B0E809F0BB0BFA
S1131540802DBF01FF2793585F4F3AF09E3F51050E
S113155078F00C94670B0C94D90B5F3FE4F3983E3E
S1131560D4F3869577956795B795F7959F5FC9F7F7
S1131570880F911D9695879597F90895E1E0660F78
S1131580771F881FBB1F621773078407BA0720F0F1
S1131590621B730B840BBA0BEE1F88F7E09508955A
S11315A00E94D70A6894B1110C94D90B08950E9433
S11315B0BE0B88F09F5798F0B92F9927B751B0F018
S11315C0E1F0660F771F881F991F1AF0BA95C9F7C3
S11315D014C0B13091F00E94D80BB1E008950C947E
S11315E0D80B672F782F8827B85F39F0B93FCCF331
S11315F0869577956795B395D9F73EF49095809540
S1131600709561957F4F8F4F9F4F0895E89409C05F
S113161097FB3EF490958095709561957F4F8F4F21
S11316209F4F9923A9F0F92F96E9BB279395F69537
S1131630879577956795B795F111F8CFFAF4BB0FB5
S113164011F460FF1BC06F5F7F4F8F4F9F4F16C019
S1131650882311F096E911C0772321F09EE8872FA3
S1131660762F05C0662371F096E8862F70E060E05F
S11316702AF09A95660F771F881FDAF7880F9695D8
S1131680879597F90895990F0008550FAA0BE0E87C
S1131690FEEF16161706E807F907C0F01216130630
S11316A0E407F50798F0621B730B840B950B39F470
S11316B00A2661F0232B242B252B21F408950A26D6
S11316C009F4A140A6958FEF811D811D089597F916
S11316D09F6780E870E060E008959FEF80EC0895D4
S11316E0DF93CF931F930F93FF92EF92DF927B01CF
S11316F08C01689406C0DA2EEF010E94FF0BFE01F4
S1131700E894A5912591359145915591A6F3EF0162
S11317100E949209FE019701A801DA9469F7DF900B
S1131720EF90FF900F911F91CF91DF9108950024C6
S11317300A941616170618060906089500240A9432
S113174012161306140605060895092E0394000CB8
S113175011F4882352F0BB0F40F4BF2B11F460FF47
S113176004C06F5F7F4F8F4F9F4F089557FD905870
S1131770440F551F59F05F3F71F04795880F97FB51
S1131780991F61F09F3F79F087950895121613060B
S11317901406551FF2CF4695F1DF08C0161617063A
S11317A01806991FF1CF869571056105089408956F
S11317B0E894BB2766277727CB0197F908950E9401
S11317C0430B08F48FEF08959B01AC0160E070E0D7
S11317D080E89FE30C945E0A0E94FF0B0C94A50B17
S11317E00E94970B38F00E949E0B20F0952311F075
S11317F00C94670B0C946D0B11240C94D90B0E9460
S1131800B60B70F3959FC1F3950F50E0551F629F7F
S1131810F001729FBB27F00DB11D639FAA27F00D45
S1131820B11DAA1F649F6627B00DA11D661F829F6C
S11318302227B00DA11D621F739FB00DA11D621F51
S1131840839FA00D611D221F749F3327A00D611D6E
S1131850231F849F600D211D822F762F6A2F112450
S11318609F5750409AF0F1F088234AF0EE0FFF1F83
S1131870BB1F661F771F881F91505040A9F79E3FDA
S1131880510580F00C94670B0C94D90B5F3FE4F383
S1131890983ED4F3869577956795B795F795E79530
S11318A09F5FC1F7FE2B880F911D9695879597F939
S11318B008959B01AC010C94EC0BFB01DC0101903D
S11318C00D920020E1F70895BB274A3031F49923A3
S11318D022F4BDE2909581959F4F0C94700CBB2728
S11318E0FB015527AA27880F991FAA1FA41710F0D8
S11318F0A41B83955051B9F7A05DAA3308F0A95DE4
S1131900A193009779F7B111B1931192CB010C9483
S113191055100F931F93CF93DF93009731F4611504
S1131920710519F480E090E03AC08B01EC016EE09F
S113193070E081E090E00E94FB0EFC01892B91F3A2
S113194080E883830115110571F01387028781E80C
S113195083838091C2039091C303892B21F4F09374
S1131960C303E093C2032097C9F0D187C087838162
S1131970826083838091C4039091C503892B71F4A1
S1131980F093C503E093C4038091C6039091C70309
S1131990892B21F4F093C703E093C603CF01DF91B1
S11319A0CF911F910F910895A0E0B0E0EAEDFCE023
S11319B00C940F11AE014B5F5F4FFA01619171916D
S11319C0AF018091C4039091C5030E941A0DE2E017
S11319D00C942B110F931F93CF93DF93E091C403C7
S11319E0F091C503238121FF1BC08C01D0E0C0E02E
S11319F0F80181918F016091C4037091C503DB01EB
S1131A001896ED91FC911997882331F00995892B4B
S1131A1079F3DFEFCFEFECCF8AE00995892B19F04A
S1131A208FEF9FEF02C08D2F9C2FDF91CF911F91DD
S1131A300F910895ABE0B0E0E0E2FDE00C94FF10FC
S1131A406C017B018A01FC0117821682838181FF6C
S1131A50CCC1CE0101963C01F6019381F70193FDBF
S1131A60859193FF81917F01882309F4BAC185325E
S1131A7039F493FD859193FF81917F01853229F497
S1131A80B60190E00E946510E7CF912C212C312CF7
S1131A90FFE1F315D8F08B3279F038F4803279F025
S1131AA08332A1F4232D20611DC08D3261F0803377
S1131AB069F4232D216016C0832D8260382EE32D16
S1131AC0E4603E2E2AC0F32DF8601DC037FC2DC003
S1131AD020ED280F2A3040F08E32B9F436FC81C153
S1131AE0232D2064322E19C036FE06C08AE0989E4B
S1131AF0200D1124922E11C0EAE02E9E200D1124F7
S1131B00222EF32DF0623F2E08C08C3621F4832D53
S1131B108068382E02C0883641F4F70193FD859120
S1131B2093FF81917F018111B3CF982F9F7D9554AD
S1131B30933028F40C5F1F4F9FE399830DC08336C5
S1131B4031F0833771F0833509F059C021C0F801B1
S1131B50808189830E5F1F4F88248394912C5301C5
S1131B6013C02801F2E04F0E511CF801A080B1808F
S1131B7036FE03C0692D70E002C06FEF7FEFC50130
S1131B800E944A104C018201F32DFF773F2E16C0AC
S1131B90280122E0420E511CF801A080B18036FEDB
S1131BA003C0692D70E002C06FEF7FEFC5010E9492
S1131BB038104C01F32DF0683F2E820133FC1BC01A
S1131BC0822D90E088169906B0F4B60180E290E088
S1131BD00E9465102A94F4CFF50137FC859137FEF5
S1131BE081915F01B60190E00E94651021102A9452
S1131BF021E0821A91088114910471F7E8C08436B7
S1131C0011F0893641F5F80137FE07C06081718112
S1131C10828193810C5F1F4F08C060817181072E00
S1131C20000C880B990B0E5F1F4FF32DFF763F2E90
S1131C3097FF09C090958095709561957F4F8F4F60
S1131C409F4FF0683F2E2AE030E0A3010E94A110CC
S1131C50882E861845C0853731F4232D2F7EB22E69
S1131C602AE030E025C0932D997FB92E8F36C1F03C
S1131C7018F4883579F0B5C0803719F0883721F029
S1131C80B0C0E92FE061BE2EB4FE0DC0FB2DF460A0
S1131C90BF2E09C034FE0AC0292F2660B22E06C00A
S1131CA028E030E005C020E130E002C020E132E06D
S1131CB0F801B7FE07C060817181828193810C5F56
S1131CC01F4F06C06081718180E090E00E5F1F4F5E
S1131CD0A3010E94A110882E8618FB2DFF773F2EAA
S1131CE036FE0DC0232D2E7FA22E891458F434FE07
S1131CF00BC032FC09C0832D8E7EA82E05C0B82CE3
S1131D00A32C03C0B82C01C0B92CA4FE0FC0FE0143
S1131D10E80DF11D8081803321F49A2D997EA92E3E
S1131D2009C0A2FE06C0B394B39404C08A2D867879
S1131D3009F0B394A3FC11C0A0FE06C0B21488F449
S1131D40280C922C9B180EC0B21460F4B60180E2E9
S1131D5090E00E946510B394F7CFB21418F42B18D6
S1131D6002C0982C212CA4FE10C0B60180E390E0A0
S1131D700E946510A2FE17C0A1FC03C088E790E092
S1131D8002C088E590E0B6010CC08A2D867859F02F
S1131D90A1FE02C08BE201C080E2A7FC8DE2B60185
S1131DA090E00E946510891438F4B60180E390E055
S1131DB00E9465109A94F7CF8A94F301E80DF11DFF
S1131DC08081B60190E00E9465108110F5CF222039
S1131DD009F442CEB60180E290E00E9465102A9494
S1131DE0F6CFF6018681978102C08FEF9FEF2B9685
S1131DF0E2E10C941B110F931F93CF93DF93869F03
S1131E008001879F100D969F100D1124C8010E9418
S1131E10170FEC01009729F0A80160E070E00E9420
S1131E204310CE01DF91CF911F910F9108950F932D
S1131E301F93CF93DF938230910510F482E090E0FA
S1131E40E091CA03F091CB0320E030E0A0E0B0E0E1
S1131E50309719F140815181028113814817590744
S1131E60C8F08417950769F4109731F012960C9313
S1131E70129713961C9327C00093CA031093CB03A5
S1131E8022C02115310519F04217530718F49A019D
S1131E90BD01EF01DF01F801DBCF21153105F9F0B8
S1131EA0281B390B2430310580F48A819B8161150C
S1131EB0710521F0FB019383828304C09093CB03CB
S1131EC08093CA03FE01329644C0FE01E20FF31F61
S1131ED08193919322503109398328833AC0209108
S1131EE0C8033091C903232B41F42091020130919E
S1131EF003013093C9032093C8032091000130915A
S1131F0001012115310541F42DB73EB7409104017B
S1131F1050910501241B350BE091C803F091C903CE
S1131F20E217F307A0F42E1B3F0B2817390778F0AC
S1131F30AC014E5F5F4F2417350748F04E0F5F1F0B
S1131F405093C9034093C8038193919302C0E0E086
S1131F50F0E0CF01DF91CF911F910F910895CF93BE
S1131F60DF93009709F481C0FC0132971382128237
S1131F70A091CA03B091CB03109781F420813181E1
S1131F80820F931F2091C8033091C9032817390782
S1131F9051F5F093C903E093C80367C0ED0120E055
S1131FA030E0CE17DF0740F44A815B819E01411582
S1131FB05105F1F0EA01F5CFD383C2834081518109
S1131FC0840F951FC817D90759F488819981840F04
S1131FD0951F0296918380838A819B819383828358
S1131FE02115310529F4F093CB03E093CA033DC0D6
S1131FF0E901FB83EA8349915991C40FD51FEC177A
S1132000FD0761F480819181840F951F0296E90197
S113201099838883828193819B838A83E0E0F0E0C3
S113202012968D919C911397009719F0FD01DC0194
S1132030F7CF8D919C9111979D012E5F3F4F820F99
S1132040931F2091C8033091C9032817390769F4F5
S1132050309729F41092CB031092CA0302C0138262
S11320601282B093C903A093C803DF91CF9108955E
S1132070FC010590615070400110D8F7809590954F
S11320808E0F9F1F0895DC0101C06D934150504095
S1132090E0F70895FC016150704001900110D8F7F9
S11320A0809590958E0F9F1F0895DC01FC01672F8A
S11320B071917723E1F7329704C07C916D9370831B
S11320C06291AE17BF07C8F308950F931F93CF9380
S11320D0DF93FB01238121FD03C08FEF9FEF2CC011
S11320E022FF16C046815781248135814217530748
S11320F044F4A081B1819D012F5F3F4F3183208340
S11321008C93268137812F5F3F4F3783268314C0FA
S11321108B01EC01FB010084F185E02D0995892BED
S1132120E1F6D80116968D919C9117970196179612
S11321309C938E931697CE01DF91CF911F910F91AF
S11321400895FA01AA27283051F1203181F1E89449
S11321506F936E7F6E5F7F4F8F4F9F4FAF4FB1E096
S11321603ED0B4E03CD0670F781F891F9A1FA11D91
S1132170680F791F8A1F911DA11D6A0F711D811D92
S1132180911DA11D20D009F468943F912AE0269F57
S113219011243019305D3193DEF6CF010895462FB6
S11321A04770405D4193B3E00FD0C9F7F6CF462F97
S11321B04F70405D4A3318F0495D31FD4052419300
S11321C002D0A9F7EACFB4E0A695979587957795BD
S11321D06795BA95C9F700976105710508959B0144
S11321E0AC010A2E06945795479537952795BA95CD
S11321F0C9F7620F731F841F951FA01D08952F92A6
S11322003F924F925F926F927F928F929F92AF9282
S1132210BF92CF92DF92EF92FF920F931F93CF93CF
S1132220DF93CDB7DEB7CA1BDB0B0FB6F894DEBF66
S11322300FBECDBF09942A88398848885F846E848C
S11322407D848C849B84AA84B984C884DF80EE80D6
S1132250FD800C811B81AA81B981CE0FD11D0FB6DF
S1132260F894DEBF0FBECDBFED010895F894FFCF03
S11322700000CC032000001200105C0332030000B5
S11322800000000000000000000076616C7565200D
S11322906973202564004D4350323531352069730C
S11322A0204E4F5420696E20636F6E6669677572A5
S11322B06174696F6E206D6F646520616674657208
S11322C020726573657421004D43503235313520D9
S11322D06973204E4F5420696E20746865207370B2
S11322E065636966696564206D6F64652061667401
S11322F0657220696E697469616C697A6174696F69
S11323006E21004EC3A5206B6AC3B8726572207338
S113231070696C6C6574004C454654004279747461
S113232065206E6F646509004B4AC3985220465578
S11323304E534B4A4F4E5350454B45520900446F40
S1132340206E6F7468696E670900496E6E2069209B
S11323507761697420666F7220616374696F6E00BF
S1132360555055505550555000706C617900536369
S11323706F72650053746172742067616D6500311A
S11323805354202000324E44202000335244202055
S113239000546F702073636F7265005570646174CC
S11323A06520204D41494E5F4D454E552073637263
S11323B065656E090055706461746520504C41591F
S11323C0206D656E7509004D61696E206D656E75D1
S11323D000506C61792067616D650053686F7720E8
S11323E073636F72650046C3B872205761697420C5
S11323F0666F7220616374696F6E090046C3B872B8
S1132400206F6C656420636C656172090046C3B813
S1132410722073776974636809004C6566740900F7
S113242052494748540900416674657220737769BC
S113243074636809004E6F64656E61766E2025636F
S113244020090A00496E6974696174696E67206EB7
S11324506F64652031200A0D00506F732058207678
S1132460616C20697320253464202C20506F732004
S113247059206973202534642C20736C6964657257
S113248058206973202534642C2020736C6964659A
S113249072592069732025346420200A200D00001D
S9030000FC
