S010000054657374596F6C6F2E73726563D1
S11300000C94CB010C943C020C94E8010C94E80190
S11300100C94E8010C94E8010C94E8010C94E801B8
S11300200C94E8010C94E8010C94E8010C94E801A8
S11300300C94E8010C94E8010C94E8010C94E80198
S11300400C94E8010C94E8010C94E8010C94E80188
S11300500C94E8010C94E8010C94E8010C94E80178
S11300600C94E8010C94E8010C94E8010C94E80168
S1130070084AD73B3BCE016E84BCBFFDC12F3D6C0B
S113008074319ABD56833DDA3D00C77F11BED9E471
S1130090BB4C3E916BAAAABE000000803F0000004A
S11300A000000000000000065F5F0600000000077B
S11300B0070007070000147F7F147F7F1400242E9D
S11300C06B6B3A120000466630180C666200307A98
S11300D04F5D377A48000407030000000000001C4D
S11300E03E63410000000041633E1C000000082AFA
S11300F03E1C1C3E2A0808083E3E0808000000A0DA
S1130100E06000000000080808080808000000007B
S11301106060000000006030180C060301003E7FA0
S1130120594D7F3E000042427F7F40400000627391
S113013059496F660000226349497F360000181C44
S113014016137F7F1000276745457D3900003C7EEC
S11301504B4979300000036371190F070000367FA3
S113016049497F360000064F49693F1E00000000E0
S11301706C6C0000000000A0EC6C00000000081C87
S113018036634100000014141414141400000041D8
S113019063361C080000020351590F0600003E7F1D
S11301A0415D5D1F1E007C7E13137E7C0000417F39
S11301B07F49497F36001C3E634141632200417FF1
S11301C07F41637F1C00417F7F495D416300417F24
S11301D07F491D0103001C3E6341517372007F7F00
S11301E008087F7F000000417F7F410000003070DD
S11301F040417F3F0100417F7F081C776300417FBE
S11302007F41406070007F7F060C067F7F007F7F08
S1130210060C187F7F001C3E6341633E1C00417F37
S11302207F49090F06001E3F21717F5E0000417F58
S11302307F19396F460026674D597B320000034110
S11302407F7F410300007F7F40407F7F00001F3F8E
S113025060603F1F00007F7F3018307F7F0063772E
S11302601C081C776300074F78784F0700006773FA
S1130270594D47637100007F7F4141000000010335
S1130280060C183060000041417F7F000000080C1C
S11302900603060C08008080808080808080000037
S11302A0030704000000207454543C784000413F8C
S11302B07F44447C3800387C44446C280000307807
S11302C048493F7F4000387C54545C180000487E05
S11302D07F490302000098BCA4A4F87C0400417F79
S11302E07F08047C780000447D7D4000000040C409
S11302F084FD7D000000417F7F10386C4400004184
S11303007F7F400000007C7C0C180C7C78007C7C97
S113031004047C780000387C44447C38000084FC6D
S1130320F8A4243C1800183C24A4F8FC8400447C61
S113033078441C180000485C5454742400000004E1
S11303403E7F442400003C7C40403C7C40001C3CFC
S113035060603C1C00003C7C6030607C3C00446C71
S11303603810386C44009CBCA0A0FC7C00004C6499
S1130370745C4C64000008083E77414100000000B2
S11303800077770000004141773E0808000002032F
S113039001030203010011241FBECFEFD4E0DEBF2E
S11303A0CDBF13E0A0E0B1E0E8E2F1E202C00590C5
S11303B00D92AE31B107D9F723E0AEE1B3E001C04D
S11303C01D92A43BB207E1F70E949B080C94921083
S11303D00C9400008068E1E0F4E1808386EF8A9564
S11303E0F1F780810895E1E0F4E120E8208326EF2D
S11303F02A95F1F7208130E0DC012D933C9321E82C
S11304002083B6EFBA95F1F7208130E0FC01338305
S113041022830895B89A83B7886083BF83B78061C5
S113042083BF83B7816083BF81E081BF0895CF9389
S1130430C82FF89485B7826085BF85B78E7F85BF46
S11304408BB780648BBF789480E80E94070363E0D5
S11304508BE20E94CE0261E88AE20E94CE026DEA3B
S113046089E20E94CE0265E088E20E94CE028C2FCF
S11304700E94E402CF9108951F920F920FB60F923B
S113048011248F939F9381E090E090931F038093B6
S11304901E039F918F910F900FBE0F901F90189580
S11304A00F931F93CF93DF938C01FC01C081D18103
S11304B06C2F6295660F607E82E30E94CE02BE01BD
S11304C076956795769567957695679581E30E940D
S11304D0CE02F801628185E30E94CE02F801828196
S11304E0882371F0C0E0F801EC0FF11D638186E30D
S11304F08C0F0E94CE02CF5FF8018281C81798F357
S113050080E00E944303DF91CF911F910F910895E2
S1130510EF92FF920F931F93CF93DF93CDB7DEB784
S11305202B970FB6F894DEBF0FBECDBF84EA93E0DD
S11305300E94D20682E00E94EA01E82EE4EAF3E097
S113054080816894FF24F7F8F80E0281005882E055
S11305500E948708182F0E94C1071A821982FC8200
S11305600D83880F180F1E83EF8284E08B83CE01E6
S113057001960E9450022B960FB6F894DEBF0FBE70
S1130580CDBFDF91CF911F910F91FF90EF90089510
S1130590811102C0C4980895C49A0895CF93DF933B
S11305A0D82FC62F80E00E94C80282E00E94E4088F
S11305B08D2F0E94E4088C2F0E94E40881E00E94A1
S11305C0C802DF91CF910895682F8FE00E94CE0278
S11305D00895CF93C82F80E00E94C80283E00E9450
S11305E0E4088C2F0E94E4080E94E808C82F81E0E8
S11305F00E94C8028C2FCF91089580E00E94C80207
S113060080EC0E94E40881E00E94C8020895CF9320
S1130610DF93D82F0E94ED080E94FD0280E80E941B
S1130620E4028FEF9FE80197F1F700C000008EE02D
S11306300E94E902C82F1F928F938AE191E09F9351
S11306408F930E94400CC07E0F900F900F900F90DC
S1130650C03831F086E291E00E94560C81E010C06F
S11306608D2F0E94E4028EE00E94E902807E8D17A5
S113067031F088E591E00E94560C81E001C080E0F1
S1130680DF91CF910895CF93C82F80E00E94C802D4
S1130690C13041F018F0C23049F00CC081E80E942A
S11306A0E4080BC082E80E94E40807C084E80E94C2
S11306B0E40803C087E80E94E40881E00E94C802BD
S11306C0CF9108958093A80387708055E091080125
S11306D0F0910901808308958093A903982F9F7056
S11306E0E0910801F0910901908382958F70805FF9
S11306F0E0910801F0910901808308958055E0910B
S11307000801F091090180830895CF93C62F0E94B8
S113071062038C2F0E946C03CF91089560E080E007
S11307200E94850308951F93CF93DF9310E0C6EAD8
S1130730D0E0812F0E947E0390E00DC08491A091AF
S11307400601B09107018C933196EC17FD07B1F7C0
S11307509F5F903819F0EEE9F0E0F0CF1F5F18309A
S113076041F70E948E03DF91CF911F910895E0918C
S11307700801F09109018EEA8083E0910801F0916B
S1130780090181EA8083E0910801F09109018AED71
S11307908083E0910801F091090182E18083E09176
S11307A00801F091090188EC8083E0910801F0913F
S11307B0090188EA8083E0910801F09109018FE33F
S11307C08083E0910801F091090185ED8083E09137
S11307D00801F091090180E88083E0910801F0911B
S11307E0090181E88083E0910801F091090180E525
S11307F08083E0910801F091090189ED8083E09103
S11308000801F091090181E28083E0910801F091EF
S1130810090180E28083E0910801F091090182E0FE
S11308208083E0910801F09109018BED8083E091D0
S11308300801F091090180E38083E0910801F091BF
S113084009018DEA8083E0910801F0910901108289
S1130850E0910801F091090184EA8083E0910801A4
S1130860F091090186EA8083E0910801F091090181
S11308708FEA80830E9493030E948E030895282F99
S113088030E0F901EE0FFF1FEE0FFF1FEE0FFF1F09
S1130890E256F040220F331F220F331F220F331F63
S11308A02A5530409491A0910601B09107019C9380
S11308B03196E217F307B1F708950F931F93CF937F
S11308C0DF93FC0101900020E9F73197E81BF90B55
S11308D01E161F0654F4EC018C010E0F1F1F899184
S11308E00E943F04C017D107D1F7DF91CF911F9128
S11308F00F9108950E948503E0910601F09107018C
S113090088E18083E0910601F09107018083E09102
S11309100601F09107019EE79083E0910601F091B2
S113092007019CE39083E0910601F0910701808325
S1130930089583E991E09F938F930E94400C0F9058
S11309400F900E948802FDCFCF92DF92EF92FF9228
S11309500F931F93CF93DF93EC016901798368832D
S1130960BA0146960E94EE0BDD8ACC8AFB8AEA8A9B
S1130970A02FB12FFE013296CE0142962D913D91CA
S113098021933193E817F907C9F7DF91CF911F91AC
S11309900F91FF90EF90DF90CF900895DC01ED91DF
S11309A0FC91208131812115310559F0FC013183FD
S11309B0208387EA91E09F938F930E94400C0F90CD
S11309C00F900895FC01A081B181FB01EE0FFF1F80
S11309D0EA0FFB1F208131812115310541F0FC0113
S11309E0318320838CEA91E00E94560C089554963A
S11309F0ED91FC915597309731F0099588EB91E092
S1130A000E94560C08958EEC91E00E94560C0895B5
S1130A10CF938AED91E00E94560C0E94C107843066
S1130A2029F482E00E9487088823B9F30E94C10751
S1130A30C82F823029F480EF91E00E94560C16C032
S1130A400E94C107C82F833089F00E94C107C82FB4
S1130A50813061F00E94C107C82F882339F082E0F9
S1130A600E948708811101C002C0C5E08C2FCF917C
S1130A7008950E94C1078430E1F708956F5F7F4FA6
S1130A80FC018289938901966817790711F461E062
S1130A9070E0CB01089565E081500E947A040895C6
S1130AA00F931F93CF93DF93CDB7DEB72B970FB67A
S1130AB0F894DEBF0FBECDBF8C0185E0E9EFF1E015
S1130AC0DE01119601900D928A95E1F786E0EEEF32
S1130AD0F1E0DE01169601900D928A95E1F76CE043
S1130AE080E00E948503CE0101960E945D046CE0C3
S1130AF081E00E948503CE0106960E945D04C80130
S1130B000E944B052B960FB6F894DEBF0FBECDBFE7
S1130B10DF91CF911F910F9108950F931F93CF935E
S1130B20DF93CDB7DEB72B970FB6F894DEBF0FBEB9
S1130B30CDBF8C018BE0E4E0F2E0DE011196019080
S1130B400D928A95E1F76CE080E00E948503CE0166
S1130B5001960E945D04C8010E944B052B960FB6B6
S1130B60F894DEBF0FBECDBFDF91CF911F910F91DF
S1130B7008950F931F93CF93DF93CDB7DEB72A97D2
S1130B800FB6F894DEBF0FBECDBF8C018AE0EFE054
S1130B90F2E0DE01119601900D928A95E1F76CE086
S1130BA080E00E948503CE0101960E945D04C80185
S1130BB00E944B052A960FB6F894DEBF0FBECDBF38
S1130BC0DF91CF911F910F910895CF93DF93EB01A4
S1130BD0FC018789813641F489E192E00E94560C38
S1130BE0CE010E9450050FC08C3641F483E392E09D
S1130BF00E94560CCE010E948D0505C0883619F45A
S1130C00CB010E94B905DF91CF910895CF93DF9373
S1130C10CDB7DEB7E0970FB6F894DEBF0FBECDBFF9
S1130C2084E793E090939F0380939E0380E1EAE03E
S1130C30F1E0DE01119601900D928A95E1F780E1D1
S1130C405E0191E1A90EB11CF501982F11929A95BC
S1130C50E9F76E01E1E2CE0ED11CF60111928A95FC
S1130C60E9F76894EE24E1F8F12C8E010F5F1F4F31
S1130C7020E030E045E452E060E070E084E793E097
S1130C800E94A404EE24E394F12C850129E934E0C4
S1130C904FE452E064E773E08AE493E00E94A40422
S1130CA06894EE24E3F8F12C860120E030E049E575
S1130CB052E064E773E080E293E00E94A40461E000
S1130CC070E080919E0390919F030E94E505EE24BD
S1130CD0E394F12C0F2EF3EBCF2EF2E0DF2EF02D68
S1130CE084E692E00E94560C0E940805182F8AE7B9
S1130CF092E00E94560C0E9493038BE892E00E94BB
S1130D00560C113031F1C8F0123019F0133061F083
S1130D102CC0F1E0EF1AF10841F5E0919E03F09147
S1130D209F03E288F38821C0B70180919E039091CC
S1130D309F030E943E057C0118C088E992E00E944E
S1130D40560C8EE993E00E94CE04EE24E394F12C39
S1130D500CC08EE992E00E94560CB7018EE993E034
S1130D600E94E204EE24E394F12C85EA92E00E94CE
S1130D70560CE0919E03F0919F0386891F928F93F6
S1130D80DF92CF920E94400CB70180919E03909114
S1130D909F030E94E5050E9439050F900F900F9064
S1130DA00F909ECF8F929F92AF92BF92CF92DF927D
S1130DB0EF92FF920F931F93CF93DF937C0180E018
S1130DC00E94EA01C82FD0E081E00E94EA01682F66
S1130DD070E00091A0031091A103C8010A9768175D
S1130DE079070CF4B4C04496861797070CF04CC0EE
S1130DF0601B710B072E000C880B990B0E94990A3B
S1130E0020E030E048EC52E40E947D0B4B015C0191
S1130E10B801110F880B990B0E94990A9B01AC0130
S1130E2060E070E08FE793E40E940B099B01AC0142
S1130E30C501B4010E94EF090E94610A6B0126C03A
S1130E40072E000C880B990B0E94990A4B015C0138
S1130E50B801110F880B990B0E94990A9B01AC01F0
S1130E60C501B4010E94EF0920E030E048EC52E4EF
S1130E700E947D0B20E030E048EC52E40E940B0914
S1130E800E94610A6B0102C0C12CD12C0091A20303
S1130E901091A303C8010A97C817D9070CF45EC0C0
S1130EA044968C179D070CF04AC0C01BD10BBE01A1
S1130EB0DD0F880B990B0E94990A20E030E048EC82
S1130EC052E40E947D0B4B015C01B801110F880BA9
S1130ED0990B0E94990A9B01AC0160E070E08FE7D6
S1130EE093E40E940B099B01AC01C501B4010E946B
S1130EF0EF090E94610A25C0BE01DD0F880B990B22
S1130F000E94990A4B015C01B801110F880B990BDF
S1130F100E94990A9B01AC01C501B4010E94EF092A
S1130F2020E030E048EC52E40E947D0B20E030E009
S1130F3048EC52E40E940B090E94610A02C060E07E
S1130F4070E0F701D182C082738362830DC0C8014F
S1130F500A96861797070CF44BCF72CFC8010A96EE
S1130F608C179D074CF6A1CFDF91CF911F910F9164
S1130F70FF90EF90DF90CF90BF90AF909F908F90B5
S1130F8008958F929F92AF92BF92CF92DF92EF9289
S1130F90FF92CF93DF9384EA93E00E94D206E4EABF
S1130FA0F3E0E080F180C281D381B7010F2C000C03
S1130FB0880B990B0E94990A4B015C01BE010D2E0E
S1130FC0000C880B990B0E94990AA50194010E94B8
S1130FD08B0921E0CD2B09F020E0222331F021E020
S1130FE0EF2809F020E0211179C00E94610A072E40
S1130FF0000C880B990B0E94990A6B017C01C1E0DB
S11310002BED3FE049E45FEB0E94700B88230CF466
S1131010C0E0CC2371F0C1E02BED3FE049E45FE395
S1131020C701B6010E94EA0918160CF4C0E0C11108
S113103057C0C1E024EE3BEC46E150ECC701B601D9
S11310400E94700B88230CF4C0E0CC2371F0C1E043
S11310502BED3FE049E45FEBC701B6010E94EA09CA
S113106018160CF4C0E0C1113DC0C1E024EE3BEC05
S113107046E150E4C701B6010E94700B88230CF4CA
S1131080C0E0C11131C0C1E024EE3BEC46E150ECBC
S1131090C701B6010E94EA0918160CF4C0E0C11198
S11310A023C0C1E02BED3FE049E45FE3C701B60193
S11310B00E94700B88230CF4C0E0CC2371F0C1E0D3
S11310C024EE3BEC46E150E4C701B6010E94EA0974
S11310D018160CF4C0E0C11109C009C084E007C0AF
S11310E081E005C083E003C080E001C082E0DF91BD
S11310F0CF91FF90EF90DF90CF90BF90AF909F90F3
S11311008F900895B9988C988D98C19A08958130DC
S113111019F480B380710895811103C080B3807283
S11311200895823031F486B38695817091E08927E1
S1131130089580E008950E94F4080E940A020E9423
S1131140FB0863E079E087E099E00E94F50B80EA10
S113115093E00E94F3010E94B7030E9482080E9458
S1131160930380E00E9417020E94060682EC92E03C
S11311709F938F930E94400C0F900F90C4EAD3E08A
S113118007ED12E00E94880283E00E94EA01F82E33
S113119082E00E94EA011F928F931F92FF928B813B
S11311A08F938A818F9389818F9388818F931F93E3
S11311B00F930E94400C8DB79EB70A960FB6F89411
S11311C09EBF0FBE8DBFDECF8FB9779BFECF089534
S11311D086E50E94E4088FB1089587B3806B87BBCE
S11311E08DB181658DB9089585B7806885BF80B755
S11311F0806280BF08958FE189B910BC88E18AB903
S11312008EE880BD08955F9BFECF8CB108955D9BF1
S1131210FECF8CB908955058BB27AA270E942309F2
S11312200C94360B0E94280B38F00E942F0B20F0F0
S113123039F49F3F19F426F40C94FE0A0EF4E09559
S1131240E7FB0C94F80AE92F0E94470B58F3BA17EE
S1131250620773078407950720F079F4A6F50C94C8
S1131260690B0EF4E0950B2EBA2FA02D0B01B901DA
S113127090010C01CA01A0011124FF27591B99F008
S1131280593F50F4503E68F11A16F040A22F232F14
S1131290342F4427585FF3CF469537952795A79564
S11312A0F0405395C9F77EF41F16BA0B620B730B0B
S11312B0840BBAF09150A1F0FF0FBB1F661F771F7C
S11312C0881FC2F70EC0BA0F621F731F841F48F431
S11312D0879577956795B795F7959E3F08F0B0CFBA
S11312E09395880F08F09927EE0F979587950895A1
S11312F00E94280B60F080E891E009F49EEF0E94C0
S11313002F0B28F040E851E071F45EEF0CC00C9410
S1131310FE0A0C94690BE92FE0780E94470B40F316
S1131320092E052AB1F3261737074807590738F05D
S11313300E2E07F8E02569F0E025E0640AC0EF63AB
S113134007F8009407FADB01B9019D01DC01CA0129
S1131350AD01EF930E94060A0E94360B0E94BB095E
S11313605F91552339F02BED3FE049E450FD49EC02
S11313700C940C090895DF93DD27B92FBF7740E85B
S11313805FE31616170648075B0718F4D92F0E9467
S1131390750B9F938F937F936F930E94EA0BE0E703
S11313A0F0E00E94010B0E94360B2F913F914F9168
S11313B05F910E94900BDD2351F09058A2EA2AED30
S11313C03FE049EC5FE3D0785D270E942309DF9179
S11313D00C94360B0E94D40A08F481E008950E940C
S11313E0030A0C94360B0E942F0B58F00E94280B12
S11313F040F029F45F3F29F00C94F80A51110C9441
S11314006A0B0C94FE0A0E94470B68F39923B1F30C
S1131410552391F3951B550BBB27AA276217730716
S1131420840738F09F5F5F4F220F331F441FAA1FAA
S1131430A9F335D00E2E3AF0E0E832D09150504066
S1131440E695001CCAF72BD0FE2F29D0660F771F14
S1131450881FBB1F261737074807AB07B0E809F0FA
S1131460BB0B802DBF01FF2793585F4F3AF09E3F7F
S1131470510578F00C94F80A0C946A0B5F3FE4F37E
S1131480983ED4F3869577956795B795F7959F5FC2
S1131490C9F7880F911D9695879597F90895E1E00E
S11314A0660F771F881FBB1F621773078407BA076D
S11314B020F0621B730B840BBA0BEE1F88F7E095C8
S11314C008950E94680A6894B1110C946A0B0895F7
S11314D00E944F0B88F09F5798F0B92F9927B75166
S11314E0B0F0E1F0660F771F881F991F1AF0BA95C4
S11314F0C9F714C0B13091F00E94690BB1E00895AE
S11315000C94690B672F782F8827B85F39F0B93F9F
S1131510CCF3869577956795B395D9F73EF4909576
S11315208095709561957F4F8F4F9F4F0895E894F4
S113153009C097FB3EF490958095709561957F4F17
S11315408F4F9F4F9923A9F0F92F96E9BB279395C5
S1131550F695879577956795B795F111F8CFFAF4D5
S1131560BB0F11F460FF1BC06F5F7F4F8F4F9F4F06
S113157016C0882311F096E911C0772321F09EE864
S1131580872F762F05C0662371F096E8862F70E0CA
S113159060E02AF09A95660F771F881FDAF7880FA4
S11315A09695879597F90895990F0008550FAA0BFA
S11315B0E0E8FEEF16161706E807F907C0F0121662
S11315C01306E407F50798F0621B730B840B950B65
S11315D039F40A2661F0232B242B252B21F40895BA
S11315E00A2609F4A140A6958FEF811D811D089557
S11315F097F99F6780E870E060E008959FEF80ECC2
S11316000895DF93CF931F930F93FF92EF92DF928E
S11316107B018C01689406C0DA2EEF010E94900BC6
S1131620FE01E894A5912591359145915591A6F334
S1131630EF010E942309FE019701A801DA9469F7DA
S1131640DF90EF90FF900F911F91CF91DF9108955C
S113165000240A941616170618060906089500248D
S11316600A9412161306140605060895092E039407
S1131670000C11F4882352F0BB0F40F4BF2B11F47B
S113168060FF04C06F5F7F4F8F4F9F4F089557FDDA
S11316909058440F551F59F05F3F71F04795880FDC
S11316A097FB991F61F09F3F79F087950895121673
S11316B013061406551FF2CF4695F1DF08C016161F
S11316C017061806991FF1CF8695710561050894D0
S11316D00895E894BB2766277727CB0197F90895E7
S11316E00E94D40A08F48FEF08959B01AC0160E0D6
S11316F070E080E89FE30C94EF090E94900B0C9437
S1131700360B0E94280B38F00E942F0B20F09523F3
S113171011F00C94F80A0C94FE0A11240C946A0B30
S11317200E94470B70F3959FC1F3950F50E0551F2E
S1131730629FF001729FBB27F00DB11D639FAA2722
S1131740F00DB11DAA1F649F6627B00DA11D661F71
S1131750829F2227B00DA11D621F739FB00DA11D92
S1131760621F839FA00D611D221F749F3327A00D4C
S1131770611D231F849F600D211D822F762F6A2FE8
S113178011249F5750409AF0F1F088234AF0EE0F4D
S1131790FF1FBB1F661F771F881F91505040A9F77A
S11317A09E3F510580F00C94F80A0C946A0B5F3F3D
S11317B0E4F3983ED4F3869577956795B795F795B6
S11317C0E7959F5FC1F7FE2B880F911D969587952E
S11317D097F908959B01AC010C947D0BFB01DC018E
S11317E001900D920020E1F708950F931F93CF937A
S11317F0DF93009731F46115710519F480E090E0EE
S11318003AC08B01EC016EE070E081E090E00E9450
S1131810670EFC01892B91F380E883830115110580
S113182071F01387028781E883838091AA039091E2
S1131830AB03892B21F4F093AB03E093AA03209725
S1131840C9F0D187C0878381826083838091AC0390
S11318509091AD03892B71F4F093AD03E093AC0345
S11318608091AE039091AF03892B21F4F093AF03E1
S1131870E093AE03CF01DF91CF911F910F910895B3
S1131880A0E0B0E0E6E4FCE00C946B10AE014B5F2A
S11318905F4FFA0161917191AF018091AC03909116
S11318A0AD030E94860CE2E00C9487100F931F9303
S11318B0CF93DF93E091AC03F091AD03238121FF3B
S11318C01BC08C01D0E0C0E0F80181918F016091D0
S11318D0AC037091AD03DB011896ED91FC9119975F
S11318E0882331F00995892B79F3DFEFCFEFECCF23
S11318F08AE00995892B19F08FEF9FEF02C08D2F95
S11319009C2FDF91CF911F910F910895ABE0B0E030
S1131910ECE8FCE00C945B106C017B018A01FC0197
S113192017821682838181FFCCC1CE0101963C01CE
S1131930F6019381F70193FD859193FF81917F01D6
S1131940882309F4BAC1853239F493FD859193FF54
S113195081917F01853229F4B60190E00E94C10F84
S1131960E7CF912C212C312CFFE1F315D8F08B32E9
S113197079F038F4803279F08332A1F4232D206198
S11319801DC08D3261F0803369F4232D216016C0AF
S1131990832D8260382EE32DE4603E2E2AC0F32D81
S11319A0F8601DC037FC2DC020ED280F2A3040F010
S11319B08E32B9F436FC81C1232D2064322E19C035
S11319C036FE06C08AE0989E200D1124922E11C086
S11319D0EAE02E9E200D1124222EF32DF0623F2EDC
S11319E008C08C3621F4832D8068382E02C08836D6
S11319F041F4F70193FD859193FF81917F0181115A
S1131A00B3CF982F9F7D9554933028F40C5F1F4FCC
S1131A109FE399830DC0833631F0833771F08335AA
S1131A2009F059C021C0F801808189830E5F1F4FDE
S1131A3088248394912C530113C02801F2E04F0EA3
S1131A40511CF801A080B18036FE03C0692D70E0FE
S1131A5002C06FEF7FEFC5010E94B60F4C018201F7
S1131A60F32DFF773F2E16C0280122E0420E511CB1
S1131A70F801A080B18036FE03C0692D70E002C079
S1131A806FEF7FEFC5010E94A40F4C01F32DF068A6
S1131A903F2E820133FC1BC0822D90E088169906EC
S1131AA0B0F4B60180E290E00E94C10F2A94F4CF12
S1131AB0F50137FC859137FE81915F01B60190E015
S1131AC00E94C10F21102A9421E0821A91088114E6
S1131AD0910471F7E8C0843611F0893641F5F801B4
S1131AE037FE07C060817181828193810C5F1F4F33
S1131AF008C060817181072E000C880B990B0E5F62
S1131B001F4FF32DFF763F2E97FF09C090958095C8
S1131B10709561957F4F8F4F9F4FF0683F2E2AE05D
S1131B2030E0A3010E94FD0F882E861845C085373A
S1131B3031F4232D2F7EB22E2AE030E025C0932DE0
S1131B40997FB92E8F36C1F018F4883579F0B5C075
S1131B50803719F0883721F0B0C0E92FE061BE2E3C
S1131B60B4FE0DC0FB2DF460BF2E09C034FE0AC0C4
S1131B70292F2660B22E06C028E030E005C020E1FF
S1131B8030E002C020E132E0F801B7FE07C0608116
S1131B907181828193810C5F1F4F06C060817181C6
S1131BA080E090E00E5F1F4FA3010E94FD0F882E7E
S1131BB08618FB2DFF773F2E36FE0DC0232D2E7F7A
S1131BC0A22E891458F434FE0BC032FC09C0832DB4
S1131BD08E7EA82E05C0B82CA32C03C0B82C01C03F
S1131BE0B92CA4FE0FC0FE01E80DF11D80818033E5
S1131BF021F49A2D997EA92E09C0A2FE06C0B394A1
S1131C00B39404C08A2D867809F0B394A3FC11C060
S1131C10A0FE06C0B21488F4280C922C9B180EC0A7
S1131C20B21460F4B60180E290E00E94C10FB39454
S1131C30F7CFB21418F42B1802C0982C212CA4FE50
S1131C4010C0B60180E390E00E94C10FA2FE17C04D
S1131C50A1FC03C088E790E002C088E590E0B601EB
S1131C600CC08A2D867859F0A1FE02C08BE201C017
S1131C7080E2A7FC8DE2B60190E00E94C10F8914B6
S1131C8038F4B60180E390E00E94C10F9A94F7CF34
S1131C908A94F301E80DF11D8081B60190E00E9461
S1131CA0C10F8110F5CF222009F442CEB60180E2A3
S1131CB090E00E94C10F2A94F6CFF60186819781A5
S1131CC002C08FEF9FEF2B96E2E10C9477100F93F5
S1131CD01F93CF93DF93869F8001879F100D969F5C
S1131CE0100D1124C8010E94830EEC01009729F005
S1131CF0A80160E070E00E94AF0FCE01DF91CF91A8
S1131D001F910F9108950F931F93CF93DF93823008
S1131D10910510F482E090E0E091B203F091B303F6
S1131D2020E030E0A0E0B0E0309719F1408151812B
S1131D300281138148175907C8F08417950769F47D
S1131D40109731F012960C93129713961C9327C098
S1131D500093B2031093B30322C02115310519F087
S1131D604217530718F49A01BD01EF01DF01F8018E
S1131D70DBCF21153105F9F0281B390B243031054F
S1131D8080F48A819B816115710521F0FB019383A5
S1131D90828304C09093B3038093B203FE0132960E
S1131DA044C0FE01E20FF31F819391932250310945
S1131DB0398328833AC02091B0033091B103232B97
S1131DC041F420910201309103013093B103209337
S1131DD0B00320910001309101012115310541F436
S1131DE02DB73EB74091040150910501241B350BDA
S1131DF0E091B003F091B103E217F307A0F42E1BB6
S1131E003F0B2817390778F0AC014E5F5F4F24175A
S1131E10350748F04E0F5F1F5093B1034093B00352
S1131E208193919302C0E0E0F0E0CF01DF91CF9184
S1131E301F910F910895CF93DF93009709F481C008
S1131E40FC01329713821282A091B203B091B303C2
S1131E50109781F420813181820F931F2091B00368
S1131E603091B1032817390751F5F093B103E0938A
S1131E70B00367C0ED0120E030E0CE17DF0740F487
S1131E804A815B819E0141155105F1F0EA01F5CFCC
S1131E90D383C28340815181840F951FC817D9070A
S1131EA059F488819981840F951F029691838083C8
S1131EB08A819B81938382832115310529F4F093D0
S1131EC0B303E093B2033DC0E901FB83EA83499184
S1131ED05991C40FD51FEC17FD0761F480819181DE
S1131EE0840F951F0296E9019983888382819381E7
S1131EF09B838A83E0E0F0E012968D919C91139786
S1131F00009719F0FD01DC01F7CF8D919C91119799
S1131F109D012E5F3F4F820F931F2091B00330919C
S1131F20B1032817390769F4309729F41092B303E1
S1131F301092B20302C013821282B093B103A09331
S1131F40B003DF91CF910895FC010590615070407A
S1131F500110D8F7809590958E0F9F1F0895DC018E
S1131F6001C06D9341505040E0F70895FC01615069
S1131F70704001900110D8F7809590958E0F9F1FA7
S1131F8008950F931F93CF93DF93FB01238121FDCA
S1131F9003C08FEF9FEF2CC022FF16C046815781EC
S1131FA0248135814217530744F4A081B1819D01F6
S1131FB02F5F3F4F318320838C93268137812F5F9E
S1131FC03F4F3783268314C08B01EC01FB0100844F
S1131FD0F185E02D0995892BE1F6D80116968D91AE
S1131FE09C911797019617969C938E931697CE0102
S1131FF0DF91CF911F910F910895FA01AA272830FC
S113200051F1203181F1E8946F936E7F6E5F7F4FC1
S11320108F4F9F4FAF4FB1E03ED0B4E03CD0670F3D
S1132020781F891F9A1FA11D680F791F8A1F911D90
S1132030A11D6A0F711D811D911DA11D20D009F4E0
S113204068943F912AE0269F11243019305D319322
S1132050DEF6CF010895462F4770405D4193B3E00B
S11320600FD0C9F7F6CF462F4F70405D4A3318F0B2
S1132070495D31FD4052419302D0A9F7EACFB4E063
S1132080A6959795879577956795BA95C9F700971B
S11320906105710508959B01AC010A2E06945795BC
S11320A0479537952795BA95C9F7620F731F841F13
S11320B0951FA01D08952F923F924F925F926F92A9
S11320C07F928F929F92AF92BF92CF92DF92EF92C4
S11320D0FF920F931F93CF93DF93CDB7DEB7CA1B45
S11320E0DB0B0FB6F894DEBF0FBECDBF09942A8870
S11320F0398848885F846E847D848C849B84AA8418
S1132100B984C884DF80EE80FD800C811B81AA81A4
S1132110B981CE0FD11D0FB6F894DEBF0FBECDBF6F
S10B2120ED010895F894FFCFCE
S11321280000B4032000001200104A03200300003A
S11321380000000000000000000076616C75652056
S11321486973202564004D43503235313520697355
S1132158204E4F5420696E20636F6E6669677572EE
S11321686174696F6E206D6F646520616674657251
S113217820726573657421004D4350323531352022
S11321886973204E4F5420696E20746865207370FB
S113219865636966696564206D6F6465206166744A
S11321A8657220696E697469616C697A6174696FB2
S11321B86E21004EC3A5206B6AC3B8726572207382
S11321C870696C6C6574004C4546540042797474AB
S11321D865206E6F646509004B4AC39852204655C2
S11321E84E534B4A4F4E5350454B45520900446F8A
S11321F8206E6F7468696E670900496E6E206920E5
S11322087761697420666F7220616374696F6E0008
S1132218555055505550555000706C6179005363B2
S11322286F72650053746172742067616D65005440
S11322386F702073636F72650055706461746520F4
S1132248204D41494E5F4D454E5520736372656577
S11322586E090055706461746520504C4159206DB5
S1132268656E7509004D61696E206D656E75005067
S11322786C61792067616D650053686F77207363BB
S11322886F72650046C3B872205761697420666F1F
S11322987220616374696F6E090046C3B872206F57
S11322A86C656420636C656172090046C3B872206A
S11322B873776974636809004C6566740900524948
S11322C847485409004166746572207377697463DA
S11322D86809004E6F64656E61766E202563200977
S11322E80A00496E6974696174696E67206E6F6467
S11322F8652031200A0D00506F7320582076616CD8
S113230820697320253464202C20506F73205920B1
S11323186973202534642C20736C696465725820B1
S11323286973202534642C2020736C6964657259A0
S11123382069732025346420200A200D000043
S9030000FC
