:100000000C94B4010C941C020C94D1010C94D101F9
:100010000C94D1010C94D1010C94D1010C94D10118
:100020000C94D1010C94D1010C94D1010C94D10108
:100030000C94D1010C94D1010C94D1010C94D101F8
:100040000C94D1010C94D1010C94D1010C94D101E8
:100050000C94D1010C94D1010C94D1010C94D101D8
:100060000C94D1010C94D1010C94D1010C94D101C8
:10007000000000000000000000065F5F06000000B6
:100080000007070007070000147F7F147F7F14001C
:10009000242E6B6B3A120000466630180C66620024
:1000A000307A4F5D377A48000407030000000000F3
:1000B000001C3E63410000000041633E1C00000044
:1000C000082A3E1C1C3E2A0808083E3E080800007C
:1000D00000A0E06000000000080808080808000010
:1000E00000006060000000006030180C0603010092
:1000F0003E7F594D7F3E000042427F7F40400000DE
:10010000627359496F660000226349497F360000D7
:10011000181C16137F7F1000276745457D390000A6
:100120003C7E4B4979300000036371190F070000D2
:10013000367F49497F360000064F49693F1E00005F
:1001400000006C6C0000000000A0EC6C00000000DF
:10015000081C366341000000141414141414000029
:10016000004163361C080000020351590F060000CD
:100170003E7F415D5D1F1E007C7E13137E7C000070
:10018000417F7F49497F36001C3E63414163220025
:10019000417F7F41637F1C00417F7F495D41630058
:1001A000417F7F491D0103001C3E63415173720072
:1001B0007F7F08087F7F000000417F7F41000000B3
:1001C000307040417F3F0100417F7F081C77630012
:1001D000417F7F41406070007F7F060C067F7F007B
:1001E0007F7F060C187F7F001C3E6341633E1C002E
:1001F000417F7F49090F06001E3F21717F5E00008D
:10020000417F7F19396F460026674D597B320000C8
:1002100003417F7F410300007F7F40407F7F0000DC
:100220001F3F60603F1F00007F7F3018307F7F00DE
:1002300063771C081C776300074F78784F0700002E
:100240006773594D47637100007F7F414100000093
:100250000103060C183060000041417F7F00000060
:10026000080C0603060C0800808080808080808057
:100270000000030704000000207454543C78400040
:10028000413F7F44447C3800387C44446C28000063
:10029000307848493F7F4000387C54545C18000057
:1002A000487E7F490302000098BCA4A4F87C0400A7
:1002B000417F7F08047C780000447D7D4000000081
:1002C00040C484FD7D000000417F7F10386C4400F5
:1002D00000417F7F400000007C7C0C180C7C780083
:1002E0007C7C04047C780000387C44447C3800002A
:1002F00084FCF8A4243C1800183C24A4F8FC8400D6
:10030000447C78441C180000485C54547424000059
:1003100000043E7F442400003C7C40403C7C400084
:100320001C3C60603C1C00003C7C6030607C3C00FD
:10033000446C3810386C44009CBCA0A0FC7C0000CD
:100340004C64745C4C64000008083E774141000036
:1003500000000077770000004141773E0808000068
:10036000020301030203010011241FBECFEFD4E0FA
:10037000DEBFCDBF12E0A0E0B1E0E4E4F3E102C0F3
:1003800005900D92A23BB107D9F722E0A2EBB2E0B3
:1003900001C01D92A43CB207E1F70E9497040C949F
:1003A000A0090C940000E1E0F4E120E8208326EFAE
:1003B0002A95F1F7208130E0DC012D933C9321E870
:1003C0002083B6EFBA95F1F7208130E0FC0133834A
:1003D00022830895B89A83B7886083BF83B780610A
:1003E00083BF83B7816083BF81E081BF0895CF93CE
:1003F000C82FF89485B7826085BF85B78E7F85BF8B
:100400008BB780648BBF789480E80E945D0363E0C3
:100410008BE20E94240361E88AE20E9424036DEAD1
:1004200089E20E94240365E088E20E9424038C2F65
:100430000E943A03CF9108951F920F920FB60F9228
:1004400011248F939F9381E090E09093B302809367
:10045000B2029F918F910F900FBE0F901F90189531
:100460009F92AF92BF92CF92DF92EF92FF920F9343
:100470001F93CF93DF93CDB7DEB72B970FB6F894CA
:10048000DEBF0FBECDBF5C0181E60E943F03C82ED8
:10049000D12C82E60E943F03DC2CCC24807EC80E47
:1004A000D11C85E60E943F038F70982E81F07E015B
:1004B00084E0E80EF11C06E6090D16E6812F0E9485
:1004C0003F03F70181937F011F5F1013F7CFDA829B
:1004D000C9829B828BE0FE013196D50101900D927D
:1004E0008A95E1F7C5012B960FB6F894DEBF0FBED3
:1004F000CDBFDF91CF911F910F91FF90EF90DF90D3
:10050000CF90BF90AF909F9008959F92AF92BF926F
:10051000CF92DF92EF92FF920F931F93CF93DF93CF
:10052000CDB7DEB72B970FB6F894DEBF0FBECDBFA9
:100530005C0181E70E943F03C82ED12C82E70E9414
:100540003F03DC2CCC24807EC80ED11C85E70E94A2
:100550003F038F70982E81F07E0184E0E80EF11C3D
:1005600006E7090D16E7812F0E943F03F7018193EB
:100570007F011F5F1013F7CFDA82C9829B828BE065
:10058000FE013196D50101900D928A95E1F7C501E2
:100590002B960FB6F894DEBF0FBECDBFDF91CF9183
:1005A0001F910F91FF90EF90DF90CF90BF90AF9091
:1005B0009F900895CF93DF93EC018CE20E943F035C
:1005C0008823D1F0CE010E9430028AE091E00E949F
:1005D000640540E061E08CE20E9499038CE20E9495
:1005E0003F03811127C08CE191E00E9464051092C5
:1005F000B3021092B2021EC08CE20E943F03882315
:10060000C9F0CE010E9485028AE291E00E94640551
:1006100040E062E08CE20E9499038CE20E943F037A
:10062000811108C08CE391E00E9464051092B3022E
:100630001092B202CE01DF91CF910895811102C0D4
:10064000C4980895C49A0895CF93DF93D82FC62FE6
:1006500080E00E941E0382E00E94DC048D2F0E9435
:10066000DC048C2F0E94DC0481E00E941E03DF91D9
:10067000CF910895682F8FE00E9424030895CF93AF
:10068000C82F80E00E941E0383E00E94DC048C2FB0
:100690000E94DC040E94E004C82F81E00E941E0337
:1006A0008C2FCF91089580E00E941E0380EC0E9461
:1006B000DC0481E00E941E030895CF93DF93D82FBE
:1006C0000E94E5040E94530380E80E943A038FEFE2
:1006D0009FE80197F1F700C000008EE00E943F0301
:1006E000C82F1F928F9383EF91E09F938F930E9467
:1006F0004E05C07E0F900F900F900F90C03831F0D4
:100700008FEF91E00E94640581E010C08D2F0E9460
:100710003A038EE00E943F03807E8D1731F081E323
:1007200092E00E94640581E001C080E0DF91CF91FA
:1007300008951F93CF93DF93182FD62FC42F80E0F7
:100740000E941E0385E00E94DC04812F0E94DC04CD
:100750008D2F0E94DC048C2F0E94DC0481E00E941B
:100760001E03DF91CF911F9108958093B802877087
:100770008055E0910801F0910901808308958093EC
:10078000B902982F9F70E0910801F09109019083C0
:1007900082958F70805FE0910801F091090180835C
:1007A00008958055E0910801F09109018083089532
:1007B000CF93C62F0E94B5038C2F0E94BF03CF9109
:1007C000089560E080E00E94D80308951F93CF93BE
:1007D000DF9310E0C8E7D0E0812F0E94D10390E0C2
:1007E0000DC08491A0910601B09107018C933196C0
:1007F000EC17FD07B1F79F5F903819F0E0E7F0E0E4
:10080000F0CF1F5F183041F70E94E103DF91CF91D5
:100810001F910895E0910801F09109018EEA80830B
:10082000E0910801F091090181EA8083E0910801DB
:10083000F09109018AED8083E0910801F0910901AE
:1008400082E18083E0910801F091090188EC8083C6
:10085000E0910801F091090188EA8083E0910801A4
:10086000F09109018FE38083E0910801F091090183
:1008700085ED8083E0910801F091090180E8808393
:10088000E0910801F091090181E88083E09108017D
:10089000F091090180E58083E0910801F091090160
:1008A00089ED8083E0910801F091090181E2808364
:1008B000E0910801F091090180E28083E091080154
:1008C000F091090182E08083E0910801F091090133
:1008D0008BED8083E0910801F091090180E3808332
:1008E000E0910801F09109018DEA8083E09108010F
:1008F000F09109011082E0910801F091090184EA68
:100900008083E0910801F091090186EA8083E091FB
:100910000801F09109018FEA80830E94E6030E949A
:10092000E1030895B9988C988D98C19A0895CF9352
:10093000DF93CDB7DEB72B970FB6F894DEBF0FBEAF
:10094000CDBF0E94EC040E94EA010E94F3046BEF09
:1009500074E08FEF94E00E94030584EB92E00E9424
:10096000D3010E940A040E9492040E94E60380E0E0
:100970000E94F7018CE692E09F938F930E944E05B0
:100980000F900F9001E812E0CE0101960E94DA026A
:100990008C818823C9F39B811F929F931F928F9311
:1009A0001F929F931F930F930E944E050FB6F894CA
:1009B000DEBF0FBECDBFE8CF8FB9779BFECF0895C6
:1009C00086E50E94DC048FB1089587B3806B87BBF6
:1009D0008DB181658DB9089585B7806885BF80B771
:1009E000806280BF08958FE189B910BC88E18AB91F
:1009F0008EE880BD08955F9BFECF8CB108955D9B0E
:100A0000FECF8CB908950F931F93CF93DF93009778
:100A100031F46115710519F480E090E03AC08B0162
:100A2000EC016EE070E081E090E00E947507FC014F
:100A3000892B91F380E883830115110571F01387E9
:100A4000028781E883838091BA029091BB02892B4F
:100A500021F4F093BB02E093BA022097C9F0D1874A
:100A6000C0878381826083838091BC029091BD02A4
:100A7000892B71F4F093BD02E093BC028091BE0219
:100A80009091BF02892B21F4F093BF02E093BE0244
:100A9000CF01DF91CF911F910F910895A0E0B0E0B9
:100AA000E4E5F5E00C947909AE014B5F5F4FFA0184
:100AB00061917191AF018091BC029091BD020E9441
:100AC0009405E2E00C9495090F931F93CF93DF9365
:100AD000E091BC02F091BD02238121FF1BC08C017B
:100AE000D0E0C0E0F80181918F016091BC0270916B
:100AF000BD02DB011896ED91FC911997882331F026
:100B00000995892B79F3DFEFCFEFECCF8AE00995D8
:100B1000892B19F08FEF9FEF02C08D2F9C2FDF9153
:100B2000CF911F910F910895ABE0B0E0EAE9F5E0B5
:100B30000C9469096C017B018A01FC011782168201
:100B4000838181FFCCC1CE0101963C01F6019381E6
:100B5000F70193FD859193FF81917F01882309F42B
:100B6000BAC1853239F493FD859193FF81917F015C
:100B7000853229F4B60190E00E94CF08E7CF912C8E
:100B8000212C312CFFE1F315D8F08B3279F038F4B9
:100B9000803279F08332A1F4232D20611DC08D3283
:100BA00061F0803369F4232D216016C0832D8260AB
:100BB000382EE32DE4603E2E2AC0F32DF8601DC0D0
:100BC00037FC2DC020ED280F2A3040F08E32B9F4CA
:100BD00036FC81C1232D2064322E19C036FE06C09A
:100BE0008AE0989E200D1124922E11C0EAE02E9EDC
:100BF000200D1124222EF32DF0623F2E08C08C36DA
:100C000021F4832D8068382E02C0883641F4F70124
:100C100093FD859193FF81917F018111B3CF982F2F
:100C20009F7D9554933028F40C5F1F4F9FE3998369
:100C30000DC0833631F0833771F0833509F059C028
:100C400021C0F801808189830E5F1F4F882483941F
:100C5000912C530113C02801F2E04F0E511CF801F2
:100C6000A080B18036FE03C0692D70E002C06FEF36
:100C70007FEFC5010E94C4084C018201F32DFF776C
:100C80003F2E16C0280122E0420E511CF801A08020
:100C9000B18036FE03C0692D70E002C06FEF7FEFB8
:100CA000C5010E94B2084C01F32DF0683F2E82016D
:100CB00033FC1BC0822D90E088169906B0F4B60173
:100CC00080E290E00E94CF082A94F4CFF50137FC2F
:100CD000859137FE81915F01B60190E00E94CF08B7
:100CE00021102A9421E0821A91088114910471F74D
:100CF000E8C0843611F0893641F5F80137FE07C0A7
:100D000060817181828193810C5F1F4F08C0608177
:100D10007181072E000C880B990B0E5F1F4FF32D6E
:100D2000FF763F2E97FF09C090958095709561954D
:100D30007F4F8F4F9F4FF0683F2E2AE030E0A30196
:100D40000E940B09882E861845C0853731F4232D63
:100D50002F7EB22E2AE030E025C0932D997FB92E48
:100D60008F36C1F018F4883579F0B5C0803719F0A6
:100D7000883721F0B0C0E92FE061BE2EB4FE0DC06F
:100D8000FB2DF460BF2E09C034FE0AC0292F266057
:100D9000B22E06C028E030E005C020E130E002C0FD
:100DA00020E132E0F801B7FE07C0608171818281E5
:100DB00093810C5F1F4F06C06081718180E090E0DD
:100DC0000E5F1F4FA3010E940B09882E8618FB2D72
:100DD000FF773F2E36FE0DC0232D2E7FA22E8914C5
:100DE00058F434FE0BC032FC09C0832D8E7EA82E31
:100DF00005C0B82CA32C03C0B82C01C0B92CA4FE8C
:100E00000FC0FE01E80DF11D8081803321F49A2D81
:100E1000997EA92E09C0A2FE06C0B394B39404C063
:100E20008A2D867809F0B394A3FC11C0A0FE06C0F9
:100E3000B21488F4280C922C9B180EC0B21460F4E3
:100E4000B60180E290E00E94CF08B394F7CFB214CD
:100E500018F42B1802C0982C212CA4FE10C0B60147
:100E600080E390E00E94CF08A2FE17C0A1FC03C05F
:100E700088E790E002C088E590E0B6010CC08A2DBA
:100E8000867859F0A1FE02C08BE201C080E2A7FC87
:100E90008DE2B60190E00E94CF08891438F4B601C3
:100EA00080E390E00E94CF089A94F7CF8A94F301F0
:100EB000E80DF11D8081B60190E00E94CF088110FD
:100EC000F5CF222009F442CEB60180E290E00E94E4
:100ED000CF082A94F6CFF6018681978102C08FEF62
:100EE0009FEF2B96E2E10C9485090F931F93CF930C
:100EF000DF93869F8001879F100D969F100D112410
:100F0000C8010E949107EC01009729F0A80160E058
:100F100070E00E94BD08CE01DF91CF911F910F912B
:100F200008950F931F93CF93DF938230910510F4B0
:100F300082E090E0E091C202F091C30220E030E054
:100F4000A0E0B0E0309719F1408151810281138116
:100F500048175907C8F08417950769F4109731F0BE
:100F600012960C93129713961C9327C00093C202FB
:100F70001093C30222C02115310519F042175307FF
:100F800018F49A01BD01EF01DF01F801DBCF211553
:100F90003105F9F0281B390B2430310580F48A81A2
:100FA0009B816115710521F0FB019383828304C04D
:100FB0009093C3028093C202FE01329644C0FE01A8
:100FC000E20FF31F819391932250310939832883D3
:100FD0003AC02091C0023091C102232B41F42091EC
:100FE0000201309103013093C1022093C00220918D
:100FF0000001309101012115310541F42DB73EB7B3
:101000004091040150910501241B350BE091C00271
:10101000F091C102E217F307A0F42E1B3F0B281733
:10102000390778F0AC014E5F5F4F2417350748F061
:101030004E0F5F1F5093C1024093C0028193919362
:1010400002C0E0E0F0E0CF01DF91CF911F910F915E
:101050000895CF93DF93009709F481C0FC01329784
:1010600013821282A091C202B091C302109781F440
:1010700020813181820F931F2091C0023091C102E3
:101080002817390751F5F093C102E093C00267C0F9
:10109000ED0120E030E0CE17DF0740F44A815B81AC
:1010A0009E0141155105F1F0EA01F5CFD383C283CA
:1010B00040815181840F951FC817D90759F4888141
:1010C0009981840F951F0296918380838A819B81E9
:1010D000938382832115310529F4F093C302E093B1
:1010E000C2023DC0E901FB83EA8349915991C40FD3
:1010F000D51FEC17FD0761F480819181840F951F46
:101100000296E90199838883828193819B838A83F4
:10111000E0E0F0E012968D919C911397009719F002
:10112000FD01DC01F7CF8D919C9111979D012E5F00
:101130003F4F820F931F2091C0023091C1022817A8
:10114000390769F4309729F41092C3021092C20251
:1011500002C013821282B093C102A093C002DF9139
:10116000CF910895FC010590615070400110D8F7AF
:10117000809590958E0F9F1F0895DC0101C06D939F
:1011800041505040E0F70895FC01615070400190DB
:101190000110D8F7809590958E0F9F1F08950F939B
:1011A0001F93CF93DF93FB01238121FD03C08FEFBA
:1011B0009FEF2CC022FF16C04681578124813581C4
:1011C0004217530744F4A081B1819D012F5F3F4F27
:1011D000318320838C93268137812F5F3F4F378364
:1011E000268314C08B01EC01FB010084F185E02D06
:1011F0000995892BE1F6D80116968D919C91179748
:10120000019617969C938E931697CE01DF91CF91FE
:101210001F910F910895FA01AA27283051F120312A
:1012200081F1E8946F936E7F6E5F7F4F8F4F9F4F7A
:10123000AF4FB1E03ED0B4E03CD0670F781F891FBC
:101240009A1FA11D680F791F8A1F911DA11D6A0F8A
:10125000711D811D911DA11D20D009F468943F913D
:101260002AE0269F11243019305D3193DEF6CF013C
:101270000895462F4770405D4193B3E00FD0C9F702
:10128000F6CF462F4F70405D4A3318F0495D31FD6F
:101290004052419302D0A9F7EACFB4E0A6959795C2
:1012A000879577956795BA95C9F700976105710598
:1012B00008959B01AC010A2E0694579547953795E2
:1012C0002795BA95C9F7620F731F841F951FA01D3C
:1012D00008952F923F924F925F926F927F928F92DA
:1012E0009F92AF92BF92CF92DF92EF92FF920F93B5
:1012F0001F93CF93DF93CDB7DEB7CA1BDB0B0FB6BF
:10130000F894DEBF0FBECDBF09942A88398848887B
:101310005F846E847D848C849B84AA84B984C88411
:10132000DF80EE80FD800C811B81AA81B981CE0F08
:10133000D11D0FB6F894DEBF0FBECDBFED010895ED
:04134000F894FFCF4F
:101344000000C40220000012001069207265636569
:101354007074696F6E206E7231200D0065722069A1
:10136400206966206E7231200D0069207265636504
:101374007074696F6E206E7232200D006572206980
:10138400206966206E7232200D00496E7465727297
:101394007570742066756E67657265720A0D004417
:1013A400415441454E2065723A2025640A0D006976
:1013B40064656E746966696572203A202564200D3F
:1013C4000A0064617461206C656E677468203A2059
:1013D4002564200D0A00494B4B4520496E74657203
:1013E40072757074200D0044415441454E3220659D
:1013F400723A2025640A0D006964656E7469666931
:10140400657232203A202564200D0A0064617461FB
:10141400206C656E67746832203A202564200D0ABA
:1014240000494B4B4520496E746572727570743275
:10143400200D0076616C7565206973202564004D6C
:10144400435032353135206973204E4F5420696E34
:1014540020636F6E66696775726174696F6E206D63
:101464006F646520616674657220726573657421AA
:10147400004D435032353135206973204E4F54208E
:10148400696E207468652073706563696669656454
:10149400206D6F646520616674657220696E69747D
:1014A40069616C697A6174696F6E2100496E69744F
:1014B400696174696E67206E6F64652031200A0D5E
:1014C400004C656E6764656E206572203A20256461
:1014D4000A0D2044617461656E2065723A202564AA
:1014E4000A0D20494427656E2065723A2025640A56
:0214F4000D00E9
:00000001FF
